:102DE000CEF85EFE1AAE6EF86EF4008825FA44D076
:102DF000017006C37FE02EF42EF8EAA11EFE8EF2CB
:102E0000007805C8500400056406000707CE017865
:102E100002C900F0FA2E14E490060107A5F045F26D
:102E200001F0F25467F002C200002ECE45F02B9163
:102E30002A9046F006F046F00A0229F005F2A5F0C5
:102E400001F0F25467F002C201001ECE45F046F0D8
:102E500046F02B912A900A0229F005F2A5F001F024
:102E6000F25467F002C202000FCE45F046F046F081
:102E70002B912A9046F00A0229F005F2A5F001F004
:102E8000F25467F03DC20300008200001190A6EDED
:102E900000E01390A8ED1390AAED1390ACED139001
:102EA000AEED1390B0ED1390B2ED1190B4ED119022
:102EB000B5ED82A0A4F2D2A059F2D2A05AF2D0A0CD
:102EC0005BF2D2A05CF2D0A05DF2E2A059F2E2A0E7
:102ED0005AF2E0A05BF2E2A05CF2E0A05DF280803A
:102EE0001A9020812A91038144D04A9013800130A6
:102EF0001190A4F200E000F0F62D7EE000F0F62D37
:062F00007DE000F0F62D5B
:087CB8005EFE1AAE5EF80088C2
:107CC00000001190A6ED1392A8ED42B01390AAED1A
:107CD00044B01390ACED46B01390AEED00E01390BD
:107CE000B0ED48B01390B2ED00001190B4ED1190DA
:107CF000B5ED1290AAED08C81290AEED05C801E0EE
:107D00001EF8EAA11EFE1FFE1090A5F201200170D0
:107D100002C87FE0F5CE01001190B5ED80801A9089
:0E7D20001190A1F201001190A3F200E0E9CE53
:101190005EFE1AAE5EF8008801001190A6ED139273
:1011A000A8ED42B01390AAED44B01390ACED46B058
:1011B0001390AEED00E01390B0ED48B01390B2ED97
:1011C00000001190B4ED1190B5ED1290AAED08C891
:1011D0001290AEED05C801E01EF8EAA11EFE1FFE4A
:1011E0001090A5F20120017002C87FE0F5CE010049
:1011F0001190B5ED1290AAED04C880801A900130CC
:1012000002CE80801A901190A1F201001190A3F2F9
:0412100000E0E2CE4A
:0C581400CEF85EFC5EF41090A5F200815E
:105820001090B5ED0EC901701CC9027002C800F0DD
:105830003659037002C800F0D659047002C800F04F
:105840002A5A1290B2ED09C905F400E01390B2EDA6
:105850001092B4ED1290B0ED43F001E01EF41EFC86
:105860008EF210800420047017C800001190B5ED6E
:1058700002001190B4ED00001190A3F21290B2ED6D
:1058800009C905F400E01390B2ED1092B4ED129046
:10589000B0ED43F001E0E2CE1080022002700AC8B1
:1058A00000001190B5ED01001190B4ED02001190CF
:1058B000A3F23ECE1290AAED15C902001190B5EDEB
:1058C000129CA8EDC0901190A2F2C5F081E0139057
:1058D000A8ED1290AAEDFFE01390AAED010011903F
:1058E000A3F226CE1090A6ED0FC904001190B5EDDD
:1058F00001041290AEEDFFE01292B0ED27F001C866
:1059000081041194A3F214CE03001190B5ED129C02
:10591000ACEDC0901190A2F2C5F081E01390ACED17
:105920001290B0ED81E01390B0ED01001190A3F260
:1059300000E000F05C581080022002700BC80000EC
:105940001190B5ED01001190B4ED02001190A3F299
:1059500000F0D0591290AAED12C9129CA8EDC09087
:105960001190A2F2C5F081E01390A8ED1290AAED7B
:10597000FFE01390AAED01001190A3F229CE12903E
:10598000AEED07C800001190B5ED02001190A3F232
:105990001FCE1090A6ED08C901001190B5ED80A0B2
:1059A000A1F2A0A0A3F214CE03001190B5ED129CB9
:1059B000ACEDC0901190A2F2C5F081E01390ACED77
:1059C0001290B0ED81E01390B0ED01001190A3F2C0
:1059D00000E000F05C5810800220027008C800004F
:1059E0001190B5ED01001190B4ED020019CE1290A6
:1059F000AEED1292B0ED27F00FC9129CACEDC09045
:105A00001190A2F2C5F081E01390ACED25F081E099
:105A10001390B0ED010004CE00001190B5ED02002E
:0E5A20001190A3F200E000F05C58129CACED77
:025A2E001090D6
:105A3000A0F2C1901290ACED81E01390ACED129009
:105A4000B0ED81E01390B0ED1290AEED1292B0ED9A
:105A500027F008C90104FFE027F001C88104119470
:105A6000A3F206CE00001190B5ED02001190A3F252
:065A700000E000F05C58AC
:0837880082A0A3F200001190E1
:10379000A6ED00E01390A8ED1390AAED1390ACED08
:1037A0001390AEED1390B0ED1390B2ED1190B4ED17
:0637B0001190B5ED1FFEB3
:02026E0000008E
:0E027000000000000000000000000000000080
:043EAC005EF40000C0
:103EB000119011F0119012F0119013F0119014F074
:103EC000119015F0119016F0119017F0119018F054
:103ED000119019F011901AF011901BF011901CF034
:103EE00011901DF011901EF011901FF000E445F0AC
:103EF00046F078021F0309A2C6EA81E41F74005548
:063F0000F6C51EF41FFED1
:041E1C0008ED1FFEB0
:041E1800F7EB1FFEC7
:0E17F2006EF8008825FA1F7003C17FE02EF804
:101800001FFE25F206C98080000106F009AAC6EA7B
:1018100007CE8080000106F078021F0309A2C6EA05
:0418200000E0EDCE29
:020006000FFEEB
:021F78001FFE4A
:043CAC00000106F01D
:063CB00008A0C6EA02F0C4
:0A70B600CEFF6EF0109000F04EF0D7
:1070C000000001F0AC3C0EF0119000F02EF08EFFAD
:06656A00CEF96EF0109066
:1065700000F04EF0010001F0AC3C0EF0119000F084
:066580002EF08EF90FFE63
:0C084400CEF96EF0109000F04EF00200B3
:1008500001F0AC3C0EF0119000F02EF08EF90FFE7E
:0C08A400CEF96EF0109000F04EF0030052
:1008B00001F0AC3C0EF0119000F02EF08EF90FFE1E
:0E653200CEF96EF0109000F04EF0040001F073
:0E654000AC3C0EF0119000F02EF08EF90FFE24
:0606CA00CEF96EF0109065
:1006D00000F04EF0050001F0AC3C0EF0119000F07F
:0606E0002EF08EF90FFE62
:0A06E600CEF96EF0109000F04EF017
:1006F000060001F0AC3C0EF0119000F02EF08EF9E7
:020700000FFEEA
:025A7E00CEF95F
:105A80006EF0109000F04EF0070001F0AC3C0EF00C
:0A5A9000119000F02EF08EF90FFEC9
:065A9A00CEF96EF0109041
:105AA00000F04EF0080001F0AC3C0EF0119000F058
:065AB0002EF08EF90FFE3E
:0E786200CEF96EF0109000F04EF0090001F02B
:0E787000AC3C0EF0119000F02EF08EF90FFEE1
:0C6BE400CEF96EF0109000F04EF00A00A8
:106BF00001F0AC3C0EF0119000F02EF08EF90FFE7B
:0A770600CEF96EF0109000F04EF086
:107710000B0001F0AC3C0EF0119000F02EF08EF951
:027720000FFE5A
:0878C800CEF96EF0109000F003
:1078D0004EF00C0001F0AC3C0EF0119000F02EF0D8
:0478E0008EF90FFE10
:040CDC00CEF96EF0EF
:100CE000109000F04EF00D0001F0AC3C0EF01190B1
:080CF00000F02EF08EF90FFE5A
:080CF800CEF96EF0109000F03F
:100D00004EF00E0001F0AC3C0EF0119000F02EF011
:040D10008EF90FFE4B
:04102C00CEF96EF09B
:10103000109000F04EF00F0001F0AC3C0EF011905B
:0810400000F02EF08EF90FFE06
:08104800CEF96EF0109000F0EB
:101050004EF0100001F0AC3C0EF0119000F02EF0BC
:041060008EF90FFEF8
:0609CA00CEF96EF0109062
:1009D00000F04EF0110001F0AC3C0EF0119000F070
:0609E0002EF08EF90FFE5F
:1008C000CEF96EF0109000F04EF0120001F0AC3C4A
:0C08D0000EF0119000F02EF08EF90FFEDB
:0C0D3400CEF96EF0109000F04EF01300AD
:100D400001F0AC3C0EF0119000F02EF08EF90FFE89
:0471DC00CEF96EF08A
:1071E000109000F04EF0140001F0AC3C0EF0119045
:0871F00000F02EF08EF90FFEF5
:0C0DA400CEF96EF0109000F04EF015003B
:100DB00001F0AC3C0EF0119000F02EF08EF90FFE19
:0871F800CEF96EF0109000F0DA
:107200004EF0160001F0AC3C0EF0119000F02EF0A4
:047210008EF90FFEE6
:0C373400CEF96EF0109000F04EF017007F
:1037400001F0AC3C0EF0119000F02EF08EF90FFE5F
:0A2F0600CEF96EF0109000F04EF0CE
:102F1000180001F0AC3C0EF0119000F02EF08EF98C
:022F20000FFEA2
:0E2F2200CEF96EF0109000F04EF0190001F0A4
:0E2F3000AC3C0EF0119000F02EF08EF90FFE6A
:0436CC00CEF96EF0D5
:1036D000109000F04EF01A0001F0AC3C0EF011908A
:0836E00000F02EF08EF90FFE40
:106C0000CEF96EF0109000F04EF01B0001F0AC3C9D
:0C6C10000EF0119000F02EF08EF90FFE37
:02654E00CEF984
:106550006EF0109000F04EF01C0001F0AC3C0EF01C
:0A656000119000F02EF08EF90FFEEE
:0206AE00CEF983
:1006B0006EF0109000F04EF01D0001F0AC3C0EF01A
:0A06C000119000F02EF08EF90FFEED
:101E2000CEF96EF0109000F04EF01E0001F0AC3CC8
:0C1E30000EF0119000F02EF08EF90FFE65
:02000800B670D0
:04000C006A6506001B
:100010004408A40832650600CA06E6067E5A9A5AC3
:1000200062780600E46B0600060006000677C878D2
:1000300006000600DC0CF80C0600060006000600B0
:100040002C1048100600060006000600CA09C00869
:100050000600060006000600340DDC71A40DF871E0
:100060003437062F222FCC360600006C06004E6572
:08007000AE0606000600201E8A
:0A3D160001F0285101F0561201F0EF
:103D2000847101F0E47800E02202C30313908CEC6C
:103D300013928EEC01F02221000011905AEF01F055
:103D4000044301F0561200001190D4ED00E445F058
:103D50002B912A9000E209A2AAEC09A2ACEC45F052
:103D60002B912A9009A22AED09A22CED45F02B9166
:103D70002A9009A266ED09A268ED81E40F7400554E
:103D8000E6C5F0A011F001F0DC0801F0561201F0D8
:103D90001A291090CDED017009C1A0A060F201F0C8
:103DA000264CA2A060F200001190CDED1090D5ED50
:103DB000007009C3F0A058F201F00424F2A058F2F8
:103DC0000CF0D5ED3FFE109022EF017028C190A0BD
:103DD00060F201F0D86292A060F20CF016EF2FFEB4
:103DE0000CF017EF2FFE109017EF017010C012901B
:103DF000E6EE1292E8EE1390F2EE1392F4EE1290C9
:103E0000D6EE1292D8EE1390E2EE1392E4EE00009A
:103E1000119022EF12904EEF81E013904EEF109030
:103E200016EF017005C101F0C65F0000119016EF9A
:103E3000109017EF017005C101F03E5B000011907A
:103E400017EF12904EEFE870035102C000F08A3D68
:103E5000F2A011F001F0242C00E013904EEF00F0DE
:023E6000343DEF
:0A1256005A0011900EF081A00EF076
:0A126000FAC9A50011900EF01FFE60
:08512800CEF880A02AF0A2A03D
:105130002AF0B0A02AF0E0A02AF0F2A02AF00000A5
:1051400011902CF011902EF011902FF001F0E83614
:1051500001F01C2D01F0544F01F0C00D01F04E671D
:1051600001F0181E01F0AC3E0C0255030C0001F0DA
:10517000F217F0A012F0E60209030F0001F0F21797
:1051800080A014F0C2022A030E0001F0F217A0A0C2
:1051900013F0B0A013F0A0A01BF0B0A01BF080A0F3
:1051A000E2F890A0E2F8A2A0E2F880A0E6F890A0D1
:1051B000E6F8A2A0E6F8000001F0503700001190D8
:1051C000E0F820001190E4F880A0E2F892A0E2F864
:1051D00000001190E1F880A0E3F8D0A0E2F8B0A0C0
:1051E0000BF0A0A00BF090A00BF080A00BF0B0A0F3
:1051F00059F2B2A05BF2B2A05AF2B2A05DF2B2A034
:105200005CF2F0A025F0F2A024F0F2A026F07602E5
:105210005A03080001F0F217F2A011F0F2A019F001
:10522000030011900FF001F0561201004EF0400201
:105230001F0301F0E02D02E12C0006015EF04002A8
:105240001F03020001F0DC1F02E101F07206000002
:105250001190EFEF01F0E84201F01C1E01F0720D19
:1052600001F09C0C01F0A45701F0562980A069F2CE
:1052700090A069F2A2A069F2129068EF12926CEF0E
:1052800028803981139066EF00001190EEEF01F055
:1052900088377A001F015EF001E05EF0B800ED0192
:1052A0005EF001E05EF0B702ED031090B6ED01F0A4
:1052B000B87C08E102CE01F056121090EEEF0170BA
:1052C000FAC800001190EEEF01F088377A001F0154
:1052D0005EF001E05EF0BA00ED015EF001E05EF02C
:1052E000B902ED031090B6ED01F0B87C08E102CEF2
:0852F00001F056121090EEEFE0
:0852F8000170FAC800001190DA
:10530000EEEF01F088377A001F015EF001E05EF0F9
:10531000C100ED015EF001E05EF0C002ED0310900F
:10532000B6ED01F0B87C08E102CE01F05612109003
:10533000EEEF0170FAC800001190EEEF01F088372F
:105340007A001F015EF001E05EF0C900ED015EF041
:1053500001E05EF0C802ED031090B6ED01F0B87CFC
:1053600008E102CE01F056121090EEEF0170FAC87B
:1053700000001190EEEF01F088377A001F015EF017
:1053800001E05EF0C700ED015EF001E05EF0C602F4
:10539000ED031090B6ED01F0B87C08E102CE01F00B
:1053A00056121090EEEF0170FAC800001190EEEF67
:1053B00001F088377A001F015EF001E05EF0CB005B
:1053C000ED015EF001E05EF0CA02ED031090B6ED73
:1053D00001F0B87C08E102CE01F056121090EEEF19
:1053E0000170FAC800001190EEEF01F088377A00E2
:1053F0001F015EF001E05EF0FC00ED015EF001E0F7
:105400005EF0FB02ED031090FAED01F0B87C08E1CC
:0A54100002CE01F056121090EEEFEC
:06541A000170FAC8000059
:105420001190EEEF01F088377A001F015EF001E085
:105430005EF0FE00ED015EF001E05EF0FD02ED03C6
:105440001090FAED01F0B87C08E102CE01F056129E
:105450001090EEEF0170FAC800001190EEEF01F02D
:1054600088377A001F015EF001E05EF00000EE0177
:105470005EF001E05EF0FF02ED031090FAED01F046
:10548000B87C08E102CE01F056121090EEEF0170E8
:10549000FAC8F2A011F000001190EEEF01F0883789
:1054A00090A0A4F27A001F015EF00EE05EF07C0096
:1054B000EC015EF001E05EF0CE02ED031090B6ED7F
:1054C00001F0901108E102CE01F056121090EEEFBB
:1054D0000170FAC890A06BF290A06AF2E0A061F2AD
:1054E000E0A062F2E0A063F2E2A064F2E2A065F262
:0254F0008EF23A
:0A4C2600CEF86EF85EF4F2A011F073
:104C300000001190EEEF01F0883790A0A4F27A0006
:104C40001F015EF00EE05EF07C00EC015EF001E022
:104C50005EF0CE02ED031090B6ED01F0901108E188
:104C600002CE01F056121090EEEF0170FAC81090CB
:104C70007DEC000110927CEC2083000226F0108273
:104C80002F8330826EF001F06A122EF01094D4ED72
:104C900000052B952A9449A0AAEC49A2ACEC1090EF
:104CA0007EEC00010083000210907FEC26F0108261
:104CB0002F8330826EF001F06A122EF049A02AEDA7
:104CC00049A22CED109080EC0001008300021090AE
:104CD00081EC26F010822F8330826EF001F06A1290
:104CE0002EF049A066ED49A268ED109084EC000119
:104CF00000830002109085EC26F010822F83308212
:104D00006EF001F06A122EF01390A2ED1392A4ED52
:104D1000109086EC000100830002109087EC26F0D2
:104D200010822F8330826EF001F06A122EF0139001
:104D300062EC139264EC109088EC00010083000296
:104D4000109089EC26F010822F8330826EF001F0F3
:104D50006A122EF013905EEC139260EC48A0AAEC5D
:104D600048A2ACEC6EF0129098EC12929AEC6EF0B5
:104D700001F0905704E12EF049A0AAEC49A2ACEC56
:104D800048A02AED48A22CED6EF01290E6EC1292AB
:104D9000E8EC6EF001F0905704E12EF049A02AED06
:104DA00049A22CED48A066ED48A268ED6EF0129085
:024DB0008CEC89
:0E4DB20012928EEC6EF001F0905704E12EF09C
:104DC00049A066ED49A268ED1290A2ED1292A4ED01
:104DD0006EF01290EEED1292F0ED6EF001F0905741
:104DE00004E12EF01390A2ED1392A4ED129062EC68
:104DF000129264EC6EF01290F2ED1292F4ED6EF0FD
:104E000001F0905704E12EF0139062EC139264ECE1
:104E100012905EEC129260EC6EF01290F6ED12922F
:104E2000F8ED6EF001F0905704E12EF013905EEC77
:104E3000139260EC00E013908CEB05F42B952A9410
:104E400048A8AAEC48AAACEC6EF8129074EC129246
:104E500076EC6EF001F0A21E04E12EF0139074ECDB
:104E6000139276EC48A82AED48AA2CED6EF8129021
:104E700070EC129272EC6EF001F0A21E04E12EF0C2
:104E8000139070EC139272EC48A066ED48A268EDA6
:104E90006EF012906CEC12926EEC6EF001F0A21EAD
:104EA00004E12EF013906CEC13926EEC12908CEBEC
:104EB00081E013908CEB0F700051BFC5129074EC21
:104EC000129276EC6EF000E0700241036EF001F099
:104ED000106804E12EF0139074EC139276EC1290AB
:104EE00070EC129272EC6EF000E0700241036EF012
:104EF00001F0106804E12EF0139070EC139272EC44
:044F000012906CECB3
:0C4F040012926EEC6EF000E070024103AF
:104F10006EF001F0106804E12EF013906CEC139227
:104F20006EEC0CF0D4ED2FFE1090D4ED0F7003C199
:104F300000001190D4EDF0A011F00CF0D5ED2FFE93
:064F40001EF42EF88EF2B3
:0C240400CEF85EFE1AAEF8E16EF4129005
:1024100086EE129288EE6EF0FCE101F02413FC00CF
:10242000A901F102D2034D04620550063F077EF078
:1024300001F0201208E101F0105504E12EF0139094
:10244000EAED1392ECED00E0139086EE139088EE27
:102450001290A2ED1292A4ED6EF01290C2ED1292C3
:10246000C4ED6EF001F0106804E11290EAED1292F2
:10247000ECED6EF001F0C01204E112908AEE1292BF
:102480008CEE6EF001F0A21E04E12EF01390E2ED4E
:102490001392E4ED129062EC129264EC6EF01290E2
:1024A000C2ED1292C4ED6EF001F0106804E11290DA
:1024B000EAED1292ECED6EF001F0C01204E12EF0A4
:1024C00012948EEE129690EE7EF001F0905704E199
:1024D0002EF01390DEED1392E0ED129074EC129258
:1024E00076EC6EF001F0FA121EF002E101F04A13F0
:1024F00005F4129070EC129272EC6EF001F0FA1288
:102500001EF002E101F04A1306F412906CEC1292F4
:102510006EEC6EF001F0FA121EF002E101F04A13C7
:1025200005F245F026F010822F8330826EF001F024
:102530006A122EF01390E6ED1392E8ED6EF000E0D3
:10254000800246036EF001F0061F08E10BA002C2F4
:1025500000F0BC261290E6ED1292E8ED6EF000E07D
:10256000000247036EF001F0061F08E10BA002C154
:1025700000F0BC2612906CEC12926EEC6EF0FCE156
:0825800001F02413129070EC2D
:08258800129272EC6EF0FCE10E
:1025900001F02413E5F0F8E001F0A63410E1EBF0CF
:1025A000F8FF36907EF08500EB015102B8031E045F
:1025B000A5054C0640077EF001F0201208E101F06D
:1025C000105504E12EF01390DAED1392DCED129029
:1025D000E2ED1292E4ED6EF0129092EE129294EE11
:1025E0006EF001F0C01204E12EF01294DAED1296B2
:1025F000DCED6EF4129496EE129698EE6EF401F005
:10260000C01204E12EF46EF06EF401F0A21E04E19B
:102610002EF013908AEE13928CEE12906CEC1292C4
:102620006EEC6EF0FCE101F02413129074EC129247
:1026300076EC6EF0FCE101F02413E5F0F8E001F037
:10264000A63410E1EBF0F8FF36907EF08500EB0148
:102650005102B8031E04A5054C0640077EF001F0A8
:10266000201208E101F0105504E12EF01390D6ED90
:102670001392D8ED1290DEED1292E0ED6EF0129012
:1026800092EE129294EE6EF001F0C01204E12EF080
:102690001294D6ED1296D8ED6EF4129496EE129630
:1026A00098EE6EF401F0C01204E12EF46EF06EF4B8
:1026B00001F0A21E04E12EF000F0882712906CECCD
:1026C00012926EEC6EF0FCE101F02413129070ECAB
:1026D000129272EC6EF0FCE101F02413E5F0F8E0E8
:1026E00001F0A63410E1EBF0F8FF36907EF08500A3
:1026F000EB015102B8031E04A5054C0640077EF00D
:1027000001F0201208E101F0105504E12EF01390C1
:10271000DAED1392DCED1290E2ED1292E4ED1390FB
:0E2720008AEE13928CEE12906CEC12926EEC1C
:02272E006EF04B
:10273000FCE101F02413129074EC129276EC6EF02E
:10274000FCE101F02413E5F0F8E001F0A63410E11B
:10275000EBF0F8FF36907EF08500EB015102B803F4
:102760001E04A5054C0640077EF001F0201208E18A
:1027700001F0105504E12EF01390D6ED1392D8ED30
:102780001290DEED1292E0ED13908EEE139290EE29
:0E2790000CF022EF2FFE2EF4EAA11EFE8EF2B8
:06291A0000E01390D0ED77
:102920001390D2ED139004EE139006EE139008EE80
:1029300013900AEE13900CEE13900EEE139010EE1F
:10294000139012EE13901EEE139020EE139022EED1
:06295000139026EE1FFEAD
:0C71840082A073F982A037F982A027F9DD
:1071900082A017F9129060EF139062F9139032F900
:1071A000139022F9139012F980A073F980A037F997
:1071B00080A027F980A017F900E0139064EE1390E7
:1071C00086EE139088EE1390DAEE1390DCEE1390B7
:0C71D000EAEE1390ECEE13902CEF1FFE83
:0C78E400CEF85EF400E02002099296EB62
:1078F00081E096700051F9C5060002015EF0960025
:10790000EB015EF001F0D26704E10D0011902AEC6A
:107910000A0011902BEC00001190EFEF01F0E8420B
:10792000FE0054015EF0960200039600EB0101F0A8
:107930005A1D02E104CE01F0700D01F056121090B4
:10794000EFEF0170F8C800001190EFEF01F0E8428E
:10795000FE0054015EF002E28E00EB0101F0A26B2A
:1079600002E102CE01F056121090EFEF0170FAC85A
:1079700000E4F0A011F01090CDED017002C000F015
:10798000D07A00001190EEEF01F0883790A0A4F2B9
:107990007A001F015EF00EE05EF07C00EC015EF00C
:1079A00001E05EF0CE02ED031090B6ED01F0901113
:1079B00008E102CE01F056121090EEEF0170FAC805
:1079C000109084EC000100830002109085EC26F0FA
:1079D00010822F8330826EF001F06A121290EEED69
:1079E0001292F0ED6EF001F0A21E04E12EF0139061
:1079F000EEED1392F0ED109086EC00010083000292
:107A0000109087EC26F010822F8330826EF001F008
:107A10006A121290F2ED1292F4ED6EF001F0A21ED5
:107A200004E12EF01390F2ED1392F4ED109088EC37
:107A3000000100830002109089EC26F010822F8351
:087A400030826EF001F06A12C1
:087A48001290F6ED1292F8ED28
:107A50006EF001F0A21E04E12EF01390F6ED1392E9
:107A6000F8ED10907DEC000110927CEC2083000278
:107A700026F010822F8330826EF001F06A1212908D
:107A800098EC12929AEC6EF001F0A21E04E12EF036
:107A9000139098EC13929AEC10907EEC0001008306
:107AA000000210907FEC26F010822F8330826EF05F
:107AB00001F06A121290E6EC1292E8EC6EF001F01E
:107AC000A21E04E12EF01390E6EC1392E8EC81E4A0
:107AD0000A74005502C400F076791290EEED12920D
:107AE000F0ED6EF000E0200241036EF001F010684E
:107AF00004E12EF01390EEED1392F0ED1290F2ED02
:107B00001292F4ED6EF000E0200241036EF001F0FD
:107B1000106804E12EF01390F2ED1392F4ED129040
:107B2000F6ED1292F8ED6EF000E0200241036EF0E7
:107B300001F0106804E12EF01390F6ED1392F8EDC9
:107B4000129098EC12929AEC6EF000E02002410341
:107B50006EF001F0106804E12EF0139098EC13928F
:107B60009AEC1290E6EC1292E8EC6EF000E0200243
:107B700041036EF001F0106804E12EF01390E6EC82
:107B80001392E8ECF2A011F000E02002099296EBCB
:107B900081E096700051F9C5520002015EF0960036
:107BA000EB015EF001F0D26704E10D0011902AECC8
:107BB0000A0011902BEC00001190EFEF01F0E84269
:0C7BC000FE0054015EF0960200039600E7
:047BCC00EB0101F0D8
:107BD0005A1D02E104CE01F0700D01F05612109012
:0A7BE000EFEF0170F8C81EF48EF2FA
:0E212200CEF800E02002099296EB81E0967064
:102130000051F9C5129054EF5EF0129052EF5EF02C
:10214000129096EE129298EE6EF0FCE101F02413DC
:10215000129092EE129294EE6EF0FCE101F02413D4
:10216000129006EF129208EF6EF0FCE101F02413DA
:10217000129002EF129204EF6EF0FCE101F02413D2
:102180001290FEEE129200EF6EF0FCE101F02413CB
:10219000C60001015EF09600EB015EF001F0D2672F
:1021A00030E10D0011902AEC0A0011902BEC000098
:1021B0001190EFEF01F0E842FE0054015EF096024C
:1021C00000039600EB0101F05A1D02E102CE01F07E
:0C21D00056121090EFEF0170FAC88EF26A
:0C430400CEF800E0000209928EEB81E090
:1043100007700051F9C5A2A013F0B2A013F000007D
:104320001190EFEF01F0E842FE0054015EF008E268
:104330008E00EB0101F0A26B02E102CE01F05612F9
:104340001090EFEF0170FAC810908EEB707002C9F8
:1043500000F0FC4310908FEB697002C900F0FC4341
:10436000109090EB119066EC109091EB119067EC2F
:10437000109092EB119068EC109093EB119069EC17
:10438000109094EB11906AEC109095EB11906BECFF
:104390007800EC015EF0020002015EF06600EC01C4
:1043A0005EF001F0EC1D06E1129078EC12927AECCE
:1043B0001390FEEE139200EF13900AEF13920CEF9E
:1043C0006EF000E0000240036EF001F0106804E1BE
:1043D0002EF0139002EF139204EF129078EC1292E9
:1043E0007AEC6EF000E0000240036EF001F010681D
:1043F00004E12EF013900EEF139210EF10908EEB5D
:10440000707002C900F08E4410908FEB62703FC84C
:10441000109090EB119066EC109091EB119067EC7E
:10442000109092EB119068EC109093EB119069EC66
:08443000109094EB11906AEC6E
:08443800109095EB11906BEC64
:104440007800EC015EF0020002015EF06600EC0113
:104450005EF001F0EC1D06E1129078EC12927AEC1D
:104460006EF001F0FA121EF002E1139052EF12907A
:1044700078EC6EF000E08002BF036EF001F0C01235
:1044800004E101F0FA121EF002E1139056EF1090D1
:104490008EEB647002C900F0204510908FEB6270C3
:1044A0003FC8109090EB119066EC109091EB11903A
:1044B00067EC109092EB119068EC109093EB1190D8
:1044C00069EC109094EB11906AEC109095EB1190C0
:1044D0006BEC7800EC015EF0020002015EF0660019
:1044E000EC015EF001F0EC1D06E1129078EC129206
:1044F0007AEC6EF001F0FA121EF002E1139054EF24
:10450000129078EC6EF000E08002BF036EF001F0D4
:10451000C01204E101F0FA121EF002E1139058EF0C
:1045200010908EEB6B7034C810908FEB707030C8A9
:10453000109090EB119066EC109091EB119067EC5D
:10454000109092EB119068EC109093EB119069EC45
:0C455000109094EB11906AEC109095EB29
:04455C0011906BEC63
:104560007800EC015EF0020002015EF06600EC01F2
:104570005EF001F0EC1D06E1129078EC12927AECFC
:104580001390FEEE139200EF13900AEF13920CEFCC
:1045900010908EEB6B7034C810908FEB697030C840
:1045A000109090EB119066EC109091EB119067ECED
:1045B000109092EB119068EC109093EB119069ECD5
:1045C000109094EB11906AEC109095EB11906BECBD
:1045D0007800EC015EF0020002015EF06600EC0182
:1045E0005EF001F0EC1D06E1129078EC12927AEC8C
:1045F000139002EF139204EF13900EEF139210EF4B
:1046000010908EEB6B7034C810908FEB647030C8D4
:10461000109090EB119066EC109091EB119067EC7C
:10462000109092EB119068EC109093EB119069EC64
:10463000109094EB11906AEC109095EB11906BEC4C
:0E4640007800EC015EF0020002015EF0660000
:02464E00EC017D
:104650005EF001F0EC1D06E1129078EC12927AEC1B
:10466000139006EF139208EF139012EF139214EFCA
:1046700010908EEB617002C900F0FE4610908FEB37
:1046800031703DC8109090EB119066EC109091EB5A
:10469000119067EC109092EB119068EC109093EBF6
:1046A000119069EC109094EB11906AEC109095EBDE
:1046B00011906BEC7800EC015EF0020002015EF0FC
:1046C0006600EC015EF001F0EC1D06E1129078EC62
:1046D00012927AEC139092EE139294EE00E0800224
:1046E0003F036EF0129078EC12927AEC6EF001F0CB
:1046F000905704E12EF0139096EE139298EE1090DE
:104700008EEB617002C900F08C4710908FEB327015
:104710003DC8109090EB119066EC109091EB1190C9
:1047200067EC109092EB119068EC109093EB119065
:1047300069EC109094EB11906AEC109095EB11904D
:104740006BEC7800EC015EF0020002015EF06600A6
:02475000EC017A
:0E4752005EF001F0EC1D06E100E080023F0386
:104760006EF0129078EC12927AEC6EF001F09057A5
:1047700004E12EF0139092EE139294EE129078ECE6
:1047800012927AEC139096EE139298EE00E02002CB
:10479000099296EB81E096700051F9C5129054EFA2
:1047A0005EF0129052EF5EF0129096EE129298EE3A
:1047B0006EF0FCE101F02413129092EE129294EE4E
:1047C0006EF0FCE101F02413129006EF129208EF54
:1047D0006EF0FCE101F02413129002EF129204EF4C
:1047E0006EF0FCE101F024131290FEEE129200EF45
:1047F0006EF0FCE101F02413360006015EF0960035
:10480000EB015EF001F0D26730E10D0011902AEC6F
:104810000A0011902BEC00001190EFEF01F0E8423C
:10482000FE0054015EF0960200039600EB0101F0D9
:104830005A1D02E102CE01F056121090EFEF017006
:0C484000FAC8A0A013F0B0A013F08EF294
:0408DC00CEF81290B0
:1008E00032F912926EEF26F0139032F9129022F93B
:1008F000129270EF26F0139022F9129012F91292D0
:1009000072EF26F0139012F927CE32E001F024188E
:1009100082A073F982A037F982A027F982A017F983
:10092000129062F981E0139062F9129032F981E03D
:10093000139032F9129022F981E0139022F912906B
:1009400012F981E0139012F980A073F980A037F9B1
:1009500080A027F980A017F9129062F912926AEF2D
:1009600027F0D3C124CE1090CDED017005C101F068
:10097000264C00001190CDED1090D5ED007005C310
:1009800001F004240CF0D5ED3FFE109022EF017031
:100990000CC101F0D86201F0C65F01F03E5B0000BF
:1009A000119022EF0CF05AEF2FFE01F0561210902A
:1009B0005AEF0A70D8C100E01390DEEE1390E0EE1B
:0A09C0001390EEEE1390F0EE8EF2AD
:0862D800CEF86EF412908EEE78
:1062E000129290EE6EF001F09C062EF01390D6EE16
:1062F0001392D8EE6EF01290FEEE129200EF6EF056
:1063000001F0C01204E12EF06EF001F0FA121EF45A
:1063100002E1139428ED1294DEEE1296E0EE6EF494
:10632000129402EF129604EF6EF401F0C01204E131
:106330002EF46EF06EF401F0A21E04E12EF0139024
:1063400078EF13927AEF12908AEE12928CEE6EF042
:1063500001F09C062EF01390E6EE1392E8EE6EF03C
:1063600012900AEF12920CEF6EF001F0C01204E1ED
:106370002EF01294EEEE1296F0EE6EF412940EEFF2
:10638000129610EF6EF401F0C01204E12EF46EF0DC
:106390006EF401F0A21E04E12EF013907CEF139234
:1063A0007EEF10905AEF0A7002C000F02E65129036
:1063B000D6EE1292D8EE6EF000E000E26EF001F040
:1063C000061F08E10BA02BC382A037F982A027F992
:1063D00012906AEF00E26EF001F06013129078EF15
:1063E00012927AEF6EF001F0A21E04E12EF41290E8
:1063F0006EEF00E26EF001F060132EF07EF001F01F
:10640000A21E04E101F0FA121EF002E1139032F92B
:1064100012906AEF139022F901F0A65028CE82A0C4
:1064200037F982A027F912906AEF139032F900E24F
:106430006EF001F06013129078EF12927AEF6EF026
:1064400001F0905704E12EF4129072EF00E26EF02A
:1064500001F060132EF07EF001F0A21E04E101F0C5
:0E646000FA121EF002E1139022F901F0A6508C
:02646E0080A00C
:1064700037F980A027F91290E6EE1292E8EE6EF05E
:1064800000E000E26EF001F0061F08E10BA023C35C
:1064900082A073F982A017F912906AEF00E26EF001
:1064A00001F0601312907CEF12927EEF6EF001F01B
:1064B000A21E04E101F0FA121EF002E1139062F94B
:1064C00012906AEF139012F901F0A65080A073F9B0
:1064D00080A017F92CCE82A073F982A017F9129030
:1064E0006AEF139062F900E26EF001F0601312900F
:1064F0007CEF12927EEF6EF001F0905704E12EF4E3
:10650000129070EF00E26EF001F060132EF07EF05A
:1065100001F0A21E04E101F0FA121EF002E1139054
:1065200012F901F0A65080A073F980A017F92EF49B
:026530008EF2E9
:0A5FC600CEF86EF41290DAEE00E25D
:105FD0006EF0FCE101F0F228FC00A901F102D2030D
:105FE0004D04620550063F077EF001F0201208E1E3
:105FF00001F0105504E12EF0139080EF139282EF20
:1060000000E01390DAEE129080EF6EF01290D6EE70
:106010001292D8EE6EF001F0C01204E11290DEEEA2
:106020001292E0EE6EF001F0A21E04E12EF0139049
:10603000DEEE1392E0EE6EF0129002EF129204EF99
:106040006EF001F0C01204E101F0FA121EF002E15C
:10605000139024ED1294D6EE1296D8EE6EF41294AC
:10606000FEEE129600EF6EF401F0C01204E12EF481
:1060700010822F8330826EF001F06A122EF07EF0D3
:1060800001F0A21E04E12EF0139084EF139286EF2C
:106090001290EAEE00E26EF0FCE101F0F228FC0062
:1060A000A901F102D2034D04620550063F077EF0BC
:1060B00001F0201208E101F0105504E12EF01390D8
:1060C00088EF13928AEF00E01390EAEE129088EFC7
:1060D0006EF01290E6EE1292E8EE6EF001F0C01251
:1060E00004E11290EEEE1292F0EE6EF001F0A21EBC
:1060F00004E12EF01390EEEE1392F0EE1290E6EE25
:106100001292E8EE6EF012900AEF12920CEF6EF01F
:1061100001F0C01204E12EF01294EEEE1296F0EEB1
:106120006EF412940EEF129610EF6EF401F0C0129E
:1061300004E12EF46EF06EF401F0A21E04E12EF0E4
:0C61400013908CEF13928EEF10905AEF2A
:04614C000A7002C013
:1061500000F0D4621290D6EE1292D8EE6EF000E00B
:1061600000E26EF001F0061F08E10BA02BC382A035
:1061700037F982A027F912906AEF00E26EF001F081
:106180006013129084EF129286EF6EF001F0A21E5F
:1061900004E12EF412906EEF00E26EF001F0601355
:1061A0002EF07EF001F0A21E04E101F0FA121EF0C2
:1061B00002E1139032F912906AEF139022F901F084
:1061C000A65028CE82A037F982A027F912906AEF54
:1061D000139032F900E26EF001F06013129084EF38
:1061E000129286EF6EF001F0905704E12EF41290B7
:1061F00072EF00E26EF001F060132EF07EF001F01D
:10620000A21E04E101F0FA121EF002E1139022F93D
:1062100001F0A65080A037F980A027F91290E6EE91
:106220001292E8EE6EF000E000E26EF001F0061F60
:1062300008E10BA023C382A073F982A017F9129082
:106240006AEF00E26EF001F0601312908CEF129290
:106250008EEF6EF001F0A21E04E101F0FA121EF0C2
:1062600002E1139062F912906AEF139012F901F0B3
:10627000A65080A073F980A017F92CCE82A073F9E4
:1062800082A017F912906AEF139062F900E26EF0A3
:1062900001F0601312908CEF12928EEF6EF001F00D
:1062A000905704E12EF4129070EF00E26EF001F0CE
:1062B00060132EF07EF001F0A21E04E101F0FA124C
:1062C0001EF002E1139012F901F0A65080A073F9BC
:0862D00080A017F92EF48EF2F4
:025B3E00CEF89F
:105B40006EF86EF41290DCEE00E26EF0FCE101F013
:105B5000F228FC00A901F102D2034D0462055006AF
:105B60003F077EF001F0201208E101F0105504E13A
:105B70002EF0139090EF139292EF00E01390DCEE72
:105B80001290D6EE1292D8EE6EF01290E2EE1292D1
:105B9000E4EE6EF001F0905704E1129090EF129253
:105BA00092EF6EF001F0106804E12EF01390F6EE23
:105BB0001392F8EE1290D6EE1292D8EE6EF000E04C
:105BC00000E26EF001F0061F08E10BA012C0129077
:105BD000E2EE1292E4EE6EF000E000E26EF001F010
:105BE000061F08E10BA005C100E01390DEEE139044
:105BF000E0EE1290D6EE1292D8EE6EF000E000E2E7
:105C00006EF001F0061F08E10BA012C11290E2EE47
:105C10001292E4EE6EF000E000E26EF001F0061F7A
:105C200008E10BA005C000E01390DEEE1390E0EE5B
:105C30001290D6EE1292D8EE1390E2EE1392E4EEAA
:105C4000129006EF129208EF6EF01290F6EE12929A
:105C5000F8EE6EF001F0C01204E101F0FA121EF845
:105C600002E1139826ED1290D6EE1292D8EE6EF065
:105C70001290FEEE129200EF6EF001F0C01204E1FD
:105C80002EF01294DEEE1296E0EE6EF4129402EF15
:105C9000129604EF6EF401F0C01204E12EF46EF0DF
:105CA0006EF401F0A21E04E12EF490822F83308264
:105CB00025FA6EF801F06A122EF07EF001F0A21EB5
:105CC00004E12EF0139094EF139296EF1290ECEE05
:105CD00000E26EF0FCE101F0F228FC00A901F10203
:105CE000D2034D04620550063F077EF001F02012FA
:105CF00008E101F0105504E12EF0139098EF139293
:105D00009AEF00E01390ECEE1290E6EE1292E8EEBD
:105D10006EF01290F2EE1292F4EE6EF001F09057E7
:105D200004E1129098EF12929AEF6EF001F0106871
:105D300004E12EF01390FAEE1392FCEE1290E6EED0
:105D40001292E8EE6EF000E000E26EF001F0061F45
:105D500008E10BA012C01290F2EE1292F4EE6EF077
:105D600000E000E26EF001F0061F08E10BA005C1A3
:105D700000E01390EEEE1390F0EE1290E6EE129229
:105D8000E8EE6EF000E000E26EF001F0061F08E1C0
:105D90000BA012C11290F2EE1292F4EE6EF000E03F
:105DA00000E26EF001F0061F08E10BA005C000E064
:105DB0001390EEEE1390F0EE1290E6EE1292E8EEF3
:105DC0001390F2EE1392F4EE6EF012900AEF12922C
:105DD0000CEF6EF001F0C01204E12EF01294EEEE22
:105DE0001296F0EE6EF412940EEF129610EF6EF41F
:105DF00001F0C01204E12EF46EF06EF401F0A21E68
:105E000004E12EF0129412EF129614EF6EF4129435
:105E1000FAEE1296FCEE6EF401F0C01204E12EF4DC
:105E20006EF06EF401F0A21E04E12EF013909CEFD0
:105E300013929EEF10905AEF0A7002C000F0C05FFC
:105E40001290D6EE1292D8EE6EF000E000E26EF004
:105E500001F0061F08E10BA02BC382A037F982A036
:0E5E600027F912906AEF00E26EF001F0601375
:025E6E00129090
:105E700094EF129296EF6EF001F0A21E04E12EF460
:105E800012906EEF00E26EF001F060132EF07EF0E3
:105E900001F0A21E04E101F0FA121EF002E11390DB
:105EA00032F912906AEF139022F901F0A65028CE31
:105EB00082A037F982A027F912906AEF139032F985
:105EC00000E26EF001F06013129094EF129296EFE0
:105ED0006EF001F0905704E12EF4129072EF00E2A0
:105EE0006EF001F060132EF07EF001F0A21E04E1CE
:105EF00001F0FA121EF002E1139022F901F0A6500F
:105F000080A037F980A027F91290E6EE1292E8EE11
:105F10006EF000E000E26EF001F0061F08E10BA059
:105F200023C382A073F982A017F912906AEF00E2EE
:105F30006EF001F0601312909CEF12929EEF6EF0E3
:105F400001F0A21E04E101F0FA121EF002E113902A
:105F500062F912906AEF139012F901F0A65080A036
:105F600073F980A017F92CCE82A073F982A017F9DB
:105F700012906AEF139062F900E26EF001F0601384
:105F800012909CEF12929EEF6EF001F0905704E198
:105F90002EF4129070EF00E26EF001F060132EF01C
:105FA0007EF001F0A21E04E101F0FA121EF002E1FF
:105FB000139012F901F0A65080A073F980A017F990
:065FC0002EF42EF88EF213
:0A50A600129032F9129268EF27F021
:1050B00002C3139232F9129032F912926CEF27F078
:1050C00002C0139232F9129062F9129268EF27F03F
:1050D00002C3139262F9129062F912926CEF27F0F8
:1050E00002C0139262F9129022F9129268EF27F02F
:1050F00002C3139222F9129022F912926CEF27F058
:1051000002C0139222F9129012F9129268EF27F05E
:1051100002C3139212F9129012F912926CEF27F057
:0851200002C0139212F91FFEF8
:0C2C2400CEF8129032F9129260EF27F007
:102C30000EC2129062F927F00AC2129022F927F010
:102C400006C2129012F927F002C200F0062D01F020
:102C5000561282A073F982A037F982A027F982A0C8
:102C600017F9129062F9F6E0139062F9129032F9B6
:102C7000F6E0139032F9129022F9F6E0139022F95F
:102C8000129012F9F6E0139012F980A073F980A067
:102C900037F980A027F980A017F96400000101F03E
:102CA0002418129032F9129260EF27F002C21392A8
:102CB00032F9129062F927F002C2139262F912906F
:102CC00022F927F002C2139222F9129012F927F08A
:102CD00002C2139212F9129032F927F002C300F0E7
:102CE0004E2C129062F927F002C300F04E2C129085
:102CF00022F927F002C300F04E2C129012F927F0AF
:102D000002C300F04E2CFF003F0113901AEF139006
:0C2D10001CEF13901EEF139020EF8EF2CA
:0E0D720082A061F280A063F280A062F280A0F5
:100D800065F282A064F292A072F980A072F91290CA
:100D900062EF139060F9129060EF139062F982A0F5
:040DA00073F91FFEC6
:040C9C00A2A059F2C7
:100CA000A0A05BF2A0A05AF2A2A05DF2A0A05CF20C
:100CB00092A036F980A036F9129062EF139030F9C5
:0E0CC000129060EF139032F982A037F91FFEF8
:0C57A40092A051F290A053F290A052F29B
:1057B00092A055F290A054F292A026F980A026F96A
:1057C000129062EF139020F9129060EF139022F97B
:0657D00082A027F91FFE74
:0A29560082A051F280A053F280A08D
:1029600052F282A055F280A054F292A016F980A0F3
:1029700016F9129062EF139010F9129060EF139015
:0829800012F982A017F91FFEF5
:0E2AC200CEF8A1A050F203C9A2A050F202CE9D
:102AD000A0A050F21290DAEE81E01390DAEE00E25C
:102AE000FF70FF510052005303C500E01390DAEE6F
:102AF0001290EAEE81E01390EAEE00E2FF70FF51DF
:102B00000052005303C500E01390EAEE1290DCEE91
:102B100081E01390DCEE00E2FF70FF5100520053A1
:102B200003C500E01390DCEE1290ECEE81E0139010
:102B3000ECEE00E2FF70FF510052005303C500E0CD
:102B40001390ECEE129086EE129288EE6EF000E09A
:102B500080023F036EF001F0A21E04E12EF01390FC
:102B600086EE139288EE6EF00000FF017F024703AD
:102B70006EF001F0061F08E10BA005C100E0139004
:082B800086EE139088EE8EF240
:085A760001001190CDED1FFEAF
:0254FE00CEF8E6
:0C55000001F04C0701001190EFEF8EF25B
:061F7A00CEF801F014583E
:081F800001001190EEEF8EF25A
:04550C0000F014583F
:0409E60000F04C07CA
:02674E0082A027
:1067500002F092A002F0B0A002F0A2A002F090A07D
:0E67600003F080A003F0F0A003F008ED1FFE90
:0836E80082A051F292A051F200
:1036F000A2A051F280A053F280A052F290A053F207
:1037000090A052F2A0A053F2A0A052F282A055F2D3
:1037100082A054F292A055F292A054F2A2A055F2C7
:10372000A2A054F282A050F292A050F2A2A050F2B5
:0437300000F056123D
:042D1C0082A059F246
:102D200092A059F2A2A059F2B2A059F2C2A059F24F
:102D3000D2A059F2E2A059F2F2A059F280A05BF2BF
:102D400080A05AF290A05BF290A05AF2A0A05BF291
:102D5000A0A05AF2B0A05BF2B0A05AF2C0A05BF201
:102D6000C0A05AF2D0A05BF2D0A05AF2E0A05BF271
:102D7000E0A05AF2F0A05BF2F0A05AF282A05DF25D
:102D800082A05CF292A05DF292A05CF2A2A05DF241
:102D9000A2A05CF2B2A05DF2B2A05CF2C2A05DF2B1
:102DA000C2A05CF2D2A05DF2D2A05CF2E2A05DF221
:102DB000E2A05CF2F2A05DF2F2A05CF282A058F216
:102DC00092A058F2A2A058F2B2A058F2C2A058F2B3
:102DD000D2A058F2E2A058F2F2A058F200F0561237
:0C4F540082A061F292A061F2A2A061F2C2
:104F6000B2A061F2C2A061F2D2A061F2E2A061F24D
:104F7000F2A061F280A063F280A062F290A063F2DE
:104F800090A062F2A0A063F2A0A062F2B0A063F2CF
:104F9000B0A062F2C0A063F2C0A062F2D0A063F23F
:104FA000D0A062F2E0A063F2E0A062F2F0A063F2AF
:104FB000F0A062F282A065F282A064F292A065F293
:104FC00092A064F2A2A065F2A2A064F2B2A065F27F
:104FD000B2A064F2C2A065F2C2A064F2D2A065F2EF
:104FE000D2A064F2E2A065F2E2A064F2F2A065F25F
:104FF000F2A064F282A060F292A060F2A2A060F23D
:10500000B2A060F2C2A060F2D2A060F2E2A060F2B0
:08501000F2A060F200F056125C
:100DC00082A069F292A069F2A2A069F2B2A069F2CF
:100DD000C2A069F2D2A069F280A06BF280A06AF290
:100DE00090A06BF290A06AF2A0A06BF2A0A06AF2B1
:100DF000B0A06BF2B0A06AF2C0A06BF2C0A06AF221
:100E0000D0A06BF2D0A06AF282A068F292A068F241
:100E1000A2A068F2B2A068F2C2A068F2D2A068F202
:040E200000F0561276
:0C182400CEF86EF45EFC5EF805F805F4EA
:101830000006010001F0503780A0EAF892A0EAF813
:10184000FF001190E8F81190ECF885F080780059CD
:1018500007C07B917A902B912A908880998105FC12
:101860008078005902C87FEC00068078005915C3C3
:1018700004CE8010FF6105F4011645F08074005518
:10188000F8C245F408C97B917A902B912A90488040
:10189000598105FC02CE7FECFF1601F056120000C4
:1018A0001190E9F880A0EBF81090E9F8000105F23A
:1018B0001090EDF8038325F008CE1090E9F80001B0
:1018C00005F21090EDF8038325F0C7F0F6C100761D
:1018D00005C982A0EBF8FF167FECDFCE1EF81EFCD8
:0418E0002EF48EF262
:020D70001FFE64
:02000200EA7B97
:02027E00686BAB
:10028000001C0000000080461B086F1283421A0405
:100290001913380100003B000000000000000000BE
:1002A000000000000000000000000000000000004E
:1002B000000000000000000000000000000000003E
:1002C00000001E0078016002010309000000000028
:1002D0000000000000000000000000005C8FC23F32
:1002E0006F1203BE0000000000000000705100000B
:1002F0000A000A0000008C420000484200007043DF
:10030000AE47E1BDAE47E13DAE47E1BDAE47E13DA1
:100310000000803F0080B343000034430000000031
:1003200000000000000000000000000000000000CD
:1003300000000000000000000000000000000000BD
:10034000C03E000000009A99593F000000000000E4
:1003500000000000000000000000EC51783F8FC258
:10036000F53C00000000000000000000010000005B
:10037000000000000000000000000000000000007D
:10038000000000000000000000000000000000006D
:10039000000000000000000000000000803F00009E
:1003A000000000000000000000000000000000004D
:1003B000000000000000000000000000000000003D
:1003C0000000000000000000144200000041000096
:1003D0005041000014420000004100005041000064
:1003E0000000FF3FFF3FFF3FFF3F000000008C4247
:1003F00000000000000000000000000000000000FD
:1004000000000000000000000000000000000000EC
:1004100000000000000000000000000000000000DC
:1004200000000000983A401F0221684200000000CE
:10043000C8320429342188FF9CFF320000000000EC
:1004400000000000000000000000000000000000AC
:10045000000000000000000000000000000000009C
:08046000000000000000000094
:04062C0000E10000E9
:06063000000200000000C2
:030202002566006E
:0A0206004779726F2043616C696252
:10021000726174696F6E3A20506C65617365204B32
:1002200065657020746865205175616420466C6155
:100230007420616E642052657475726E20416E790F
:10024000203220636861727320746F20537461726E
:02025000740038
:0E0252004779726F2043616C69627261746952
:0D0260006F6E20436F6D706C65746521003A
:0A01C60043757272656E7420536574
:1001D0007474696E67733A206B703D25662C6B6989
:1001E0003D25662C6B643D25662C61313D25662CD2
:1001F00061323D25662C50623D25752C44623D25BB
:02020000750087
:0A063600202020204E657720536538
:100640007474696E67733A206B703D25662C6B6914
:100650003D25662C6B643D25662C61313D25662C5D
:1006600061323D25662C50623D25752C44623D2546
:02067000750013
:0200000074EAA0
:02000400EC7B93
:067BEA0001CEFFCE00E019
:107BF00000E200E400E60008E0098AF0579088E817
:107C0000F079FCC10078FAC15A0CA50D119C0EF058
:107C100081A00EF0FBC9119D0EF0000A0CF0880542
:107C2000AF905290FF7002C8FF7120C9AF9052927E
:107C3000AF905294AF905096AF90509780E4F0C9B7
:107C400001A20BC801A409C86F90029882E07F903E
:107C5000239882E2FEE4F8C8E3CE6F90009881E0BA
:107C60007F90219881E2FFE4F8C8DACE01F00A00A3
:0A7C70000000119000F000F0163D36
:02000A001FFED7
:080588006E02A6ED0602000060
:02059000FFFF6B
:107FE000FFFFFFFFFFFFFFFFFFFFFFFFFFFFFFFFA1
:107FF000FFFFFFFFFFFFFFFFFFFFFFFFFFFFFFFF91
:10375000007005C901700AC902700FC91FFE82A05E
:10376000E3F882A0E7F8D0A0E2F81FFE82A0EBF811
:1037700082A0EFF8D0A0EAF81FFE82A063F382A037
:083780006BF3A0A062F31FFE31
:041FDC00CEF85EFEDF
:101FE0001AAE5EFC5EF85EF4008800700FC90170E6
:101FF00002C800F00221027002C800F00A217FE04E
:102000001EF41EF81EFCEAA11EFE8EF200008001E6
:1020100000E244BC6EF0C29002B26EF001F08C3C63
:1020200004E12EF0007000510052005302C87EE01F
:10203000E7CEFFE005F404D0037002C37DE0E0CEFC
:1020400005D0027002C37CE0DBCE06D0017002C373
:102050007BE0D6CE07D0017002C37AE0D1CE08D0A3
:10206000017002C379E0CCCE00E01390A0EF139092
:10207000A2EF1390A4EF1390A6EF1190A8EF82A007
:1020800091F201F0DA23109092F20089F920008990
:1020900080801A909081038110801030119092F20C
:1020A000C2A092F2109093F200898020008944BC73
:1020B00005D02A9004D1038106D04A90138007D11D
:1020C0005A91038108D06A90138090810381119105
:1020D00093F2119494F2109095F20089F020008907
:1020E00050800F2090810381119195F282A096F289
:1020F00092A096F2A2A096F2B2A096F200E000F0B2
:10210000002000E001E200F0122025F000E27B93C5
:102110007B927B917A903B933B923B913A9000F07B
:0221200012208B
:061D5A005EFE1AAE5EF809
:101D600005F882A091F282A092F21390A0EF139254
:101D7000A2EF00E01390A4EF42B01390A6EF000092
:101D80001190A8EF007200530FC38090119090F251
:101D90001290A0EF81E01390A0EF1290A4EF81E0E9
:101DA0001390A4EF80A091F21EF8EAA11EFE1FFE80
:0E6BA2005EFE1AAE82A091F282A096F292A040
:106BB00096F2A2A096F280A092F21390A0EF139208
:106BC000A2EF00E01390A4EF42B01390A6EF0000F4
:106BD0001190A8EF0072005302C380A091F2EAA1C5
:046BE0001EFE1FFE78
:04074C00CEF85EFC89
:10075000109092F20120007034C81290A2EF129211
:10076000A4EF27F019C9109096F20820007012C863
:10077000129CA0EFC090119090F2C5F081E0139010
:10078000A0EF25F081E01390A4EF80A091F200E0AB
:100790001EFC8EF27FE0FCCE109091F201200070E2
:1007A0000EC81290A6EF09C905FC00E01390A6EF51
:1007B0001092A8EF1290A2EFC3F001E0E9CE7EE024
:1007C000E7CE1290A2EF1292A4EF27F02CC910905E
:1007D00096F2072000821090A8EF23801190A8EFD6
:1007E00082A096F292A096F2A2A096F2129CA0EF9E
:1007F000109090F2C1901290A0EF81E01390A0EFC2
:100800001290A4EF81E01390A4EF01A209C8129006
:10081000A2EF1292A4EF27F006C900E000F09007C3
:10082000010001F0CE0C1290A6EF09C905FC00E012
:100830001390A6EF1092A8EF1290A2EFC3F001E080
:0408400000F090072D
:0842E80082A091F200E01390A6
:1042F000A0EF1390A2EF1390A4EF1390A6EF1190EC
:04430000A8EF1FFE05
:020CCE000082A2
:0C0CD00010908AEB238011908AEB1FFE2D
:0E06720092A059F290A05AF290A05BF292A0D2
:100680005CF290A05DF280A059F280A05AF282A0A4
:0C0690005BF282A05CF282A05DF21FFE13
:0623DA0092A059F292A04E
:1023E0005AF292A05BF292A05CF292A05DF282A0FF
:1023F00059F282A05AF282A05BF282A05CF282A023
:042400005DF21FFE6C
:0804680000000000000000008C
:0204700000008A
:04069C006EFC03AD40
:0E06A0001AAE47DC804CC7DCDBA02EFC1FFE30
:063C7A006EFC03AD1AAE62
:0C3C80004BDC804CCBDCDBA02EFC1FFEDC
:02676E00CEF962
:106770007EF07EF803A04EF0F4E11AAEEBF02A00B2
:1067800001F0B22BF4E11AAEEBF02E0001F0B22BC7
:1067900001F0227736E801F0D07018E18EF43EF86F
:0467A0003EF08EF346
:1070D000CEF84ADC4BDD1AC8EAF05690329A017AB3
:1070E000FC5B08C772A701F06271007A045B16C5E9
:1070F00000E230CEFE1A036BC07AFF5B09C75F8ADD
:1071000001F00A1000EA01F062710ACE11AD1FC849
:10711000000100E200E4000600EA0CCEFF1A036B57
:107120003D913D923D933D943D953D963C974B9BC3
:107130004A9A738AC38B1AAE86FEEBF00200519115
:1071400051925193519451955196339A8EF201ADCB
:10715000CFC87FE225F420812086F00A7F0B238AA6
:10716000E9CE21A10EC9108D0B2DD3800AC90811BB
:1071700000620063006400650066006702CC0007DF
:0471800081EA1FFE83
:06100A00070BB88A01C4C7
:10101000A18BBD80BD81BD82BD83BD84BD85BD86E4
:0C102000BC87B88AF6C4F97AF3C61FFE3C
:10681000CEF97EF07EF803A04EF0F4E11AAEEBF074
:10682000260001F0881FF4E11AAEEBF02E0001F013
:10683000881F01F0227701F0B65A18E11AAEDAB4D7
:0A684000DCB68EF43EF83EF08EF355
:10551000CEF97EF07EF803A04EF0F4E11AAEEBF087
:10552000220001F0B22B01F0B65A0CE11AAEDAB447
:0A553000DCB68EF43EF83EF08EF378
:06553A006EFC03AD1AAE89
:0E5540004BDC804CCBDCDBA02EFC00F03C1ED4
:105790006EFC03AD1AAE47DC804CC7DCDBA02EFCF0
:0457A00000F0A21E55
:0E2BB200CEF800EC50935094509550965097EA
:102BC00050985099309B908A3B993B983B973B9605
:102BD0003B953B943A93000272A990818381738163
:102BE000638153814381338172AB01C9800C4D9A5B
:102BF0004C9BFF7A075B08C9A5FA0BC970A9011A9B
:102C0000FC6B01F014128EF2020D0071FAC8030D74
:102C1000F8CE007102C8010DF4CE021AFC6B01F06F
:042C2000140DEFCED2
:0C121400EAF0539255945598339C1FFE4D
:0C0D1400400171A90CC8FFEA1B991B9854
:100D20001B971B961B951B941B931A92FF11F3C8DC
:040D3000010D1FFE94
:081F8800CEF800EC00E200E4D9
:101F90000006509750985099309A01CC800C1B9AAB
:101FA0001A991C99000B708083809380FF7A08C96E
:101FB000007A0BC970A9811AFF6B01F014128EF21E
:101FC000020D0070FAC8030DF8CE007002C8010DB2
:0C1FD000F4CE821AFF6B01F0140DEFCE6E
:0A0146003C779877A07794779477C0
:10015000A477A0779477A277A277A277A2779877EF
:060160009877A077A47758
:0E772200CEF8E5FC8CEC4AB230882A980AB00A
:1077300011881A98000988A8460182F024808AD00E
:10774000CAF05690329A48B880ED898A998B01F038
:107750007E78007809C91D901D911D921D931D947E
:107760001D951D961C9781EA88BA01F0D2775EFAC2
:1077700001F0D2775EFA01F0D2775EFA01F0D277AB
:107780005EFA1EF21EF41EF61EF808BA0ABC01F0DC
:1077900014128EF2030101CE01012480CAB08EF2D0
:1077A000C5FE8EF20200CBD08EF27FECE29AA8806A
:1077B000B98142BAA982B98344BAA984B98542BAC7
:1077C000A6F044BAA682B68366847685E296CFFE9A
:1077D00033CECEF85EFC46B887F6E7C000EC65F61F
:1077E00002C847F829C25EFE6EF045F065F200EA75
:1077F00001F09A7805FCE29201F0882B05F825FA51
:1078000042B2C5F001F0882B06FA44B000EE268E95
:10781000368FC5F201F0882B06FE006200635EF22F
:10782000C5F6888699871EF82EF0A980B981E9826D
:10783000F983898499851EFE65F845F625F405F2DD
:1078400085F00CC0FFECEAF0549886F0A682B6836F
:10785000349886849685A686B687F4C0C5FA1EFC41
:027860008EF2A6
:02787E007EF892
:10788000EAF0369807F8258A358B458C558D658E3C
:0A789000758F3EF803A8C0281FFE04
:0A5AB600CEF84AD74BDC26C8EAF010
:105AC0005490038213823382509350945095509691
:105AD00032988178FF590DC772A601F0265B807855
:105AE000005919C47F1800097B997A989387838697
:105AF0008EF27E1800691D921D931D941D951C96B3
:105B000081E8F9C801F0265BEECE01AC02C87FE463
:105B100003CE11AC05C900E4408680087F09E6CEBB
:105B200000E400068EF20072805308C102C201A494
:0E5B300005C981E4006602CC000681E81FFE74
:041E3C00CEF97EF06D
:101E40007EF803A04EF0F4E11AAEEBF02A0001F0A8
:101E5000B22BF4E11AAEEBF02E0001F0B22B01F040
:101E60009E2736E801F0D07018E18EF43EF83EF07F
:021E70008EF3EF
:0A016600B62796287E287E287E2802
:1001700082287E287E2896289628962896289628D3
:0601800096287E2882286B
:02279E00CEF873
:1027A000E5FC8CEE4BD82A980AB231881A980009B9
:1027B00088A8660182F048BA08B8888A998B06C44E
:1027C000C5F0E5FC05FEFFEAFF4AFF4B407A005BDF
:1027D00055C2CAF03690A08A02C901F00A1065F805
:1027E00045F625F405F248BA0ADD4ADCD78C17C84D
:1027F000E29CC6F242BCC684D68544BCC686D68757
:1028000046BCC688D68934C01D921D931D941D9563
:102810001D961D971D981C9970A981EA29CEE29CEE
:10282000288C398DC5F242BC498C598DC5F444BC05
:10283000698C798DC5F646BC898C998DC5F813C015
:10284000FF42FF43FF44FF45FF46FF47FF48FF4964
:1028500081E206C0006400650066006700680069E8
:102860004ADC804CCADC000D01F0140D017D04C966
:102870004ABC01F014128EF2000CCABC8EF2C5FEE6
:102880008EF24AD02480FAC901A303C80201CBD139
:082890008EF20000CAD08EF2A6
:0E1EA200CEF97EF07EF803A04EF0F4E11AAE09
:101EB000EBF0260001F0881FF4E11AAEEBF02E00E3
:101EC00001F0881F01F09E2701F0B65A18E11AAE02
:0C1ED000DAB4DCB68EF43EF83EF08EF37F
:0E1E7200CEF903A07EF87EF0F4E11AAEEBF09C
:101E8000280001F0B22BF4E11AAEEBF02C0001F0C7
:101E9000B22B01F0982818E13EF00B2083803EF829
:021EA0008EF3BF
:0A018600B428E628DA28EC28EC285B
:10019000D628DA28EC28DA28DA28DA28DA28E62835
:0601A000E628DA28E2283F
:08289800CEF8E5FC8CEE00080F
:1028A0004AB230862A960AB011861A96000768A6A0
:1028B000860162F0248017C871A203C9E5FAC5FE3B
:1028C000A5FC08B248BA27FA0AC50AC6CAF036906B
:1028D00001F07E788EF260A88EF2C0388EF270A879
:1028E0008EF22480F8C971A2FAC88EF271A0F7C9DD
:0228F0008EF266
:0E28F200CEF97EF07EF803A04EF0F4E11AAEAF
:10290000EBF02600800C01F0DC1E22E801F0D07014
:0A2910000CE18EF43EF83EF08EF369
:041EDC00CEF8529654
:101EE0003298000D928C07CCFF46FF47FF48FF4910
:101EF00081E60068006900E200E41FEA01F0140DC9
:061F000001F014128EF244
:0A1F0600CEF903A07EF87EF0F4E1AE
:101F10001AAEEBF0240001F0881FF4E11AAEEBF0EA
:101F20002C0001F0881F01F0982818E13EF00B20EA
:061F300083803EF88EF3F1
:06126A00CEF97EF07EF8D3
:1012700003A04EF0F4E11AAEEBF02200800C01F076
:10128000DC1E01F0B65A0CE11AAED6B4D8B68EF414
:061290003EF83EF08EF373
:10122000CEF97EF07EF803A04EF0F4E11AAEEBF0BA
:101230002A0001F0B22BF4E11AAEEBF02E0001F01F
:10124000B22B01F0882936E801F0D07018E18EF455
:061250003EF83EF08EF3B3
:0A01A600A229902A8C2A902A922A9E
:1001B000922A8C2A982A8E2A8E2A8E2A8E2A922A6F
:0601C000982A8C2A922A05
:08298800CEF8E5FC8CEE4AB22A
:1029900030882A980AB011881A98000988A8A601D8
:1029A00082F000E400E62480CAD0C290E29201F0F6
:1029B000882B25F8C29042B201F0882B01F09E2AA4
:1029C00002B0E29201F0882B01F09E2A00E8C2904A
:1029D00044B201F0882B01F0AA2A02B042B201F001
:1029E000882B01F0AA2A04B0E29201F0882B01F0B2
:1029F000AA2A00E4C29046B201F0882B01F0B62A60
:102A000002B044B201F0882B01F0B62A04B042B201
:102A100001F0882B01F0B62A06B0E29201F0882B73
:102A200001F0B62A00E602B046B201F0882B01F0B0
:102A30009E2A04B044B201F0882B01F09E2A06B011
:102A400042B201F0882B01F09E2A85FA00E804B01A
:102A500046B201F0882B01F0AA2A06B044B201F078
:102A6000882B01F0AA2A06B046B201F0882B06F6A0
:102A700026883689A5F248BA08BC80EDC68AD68B6E
:102A800001F0140D4ABC01F014128EF2C5FE8EF254
:102A9000C5FE2480CAD08EF20200CBD08EF206F89A
:102AA00026843685006600671FFE06F42686368774
:102AB000006800691FFE06F62688368900640065F6
:022AC0001FFEF7
:0A129600CEF97EF07EF803A04EF0C2
:1012A000F4E11AAEEBF0220001F0B22B01F0D657B8
:1012B0000CE11AAEDAB0DCB28EF43EF83EF08EF3FA
:0A57D600CEF84BDB017B16C217C9A9
:1057E000EAF05690529AC1EA10C4C17AFF5B0FC525
:1057F0005F8A01F00A10309C07CCFF40FF41FF4256
:10580000FF4381E0006200638EF27FE001CE00E0A2
:0458100005F28EF21D
:1012C000CEF97EF07EF803A04EF0F4E11AAEEBF01A
:1012D000260001F0881FF4E11AAEEBF02E0001F0B9
:1012E000881F01F0882901F0B65A18E11AAEDAB465
:0A12F000DCB68EF43EF83EF08EF3FB
:0612FA00CEF97EF07EF843
:1013000003A04EF0F4E11AAEEBF0220001F0881FCA
:1013100001F0D6570CE11AAED6B0D8B28EF43EF832
:041320003EF08EF31A
:0C132400CEF97EF87EF003A04EF0F4E15C
:101330001AAEEBF0260001F0881F22E801F0D07011
:0A1340000CE18EF43EF03EF88EF34F
:10136000CEF97EF07EF803A04EF0F4E11AAEEBF079
:101370002200000C01F0DC1E01F0B65A0CE11AAE9E
:0C138000D6B4D8B68EF43EF83EF08EF3E2
:0421DC00CEF85EFEDD
:1021E0001AAEE0E16EF86EF425FA05F80CF0FC0486
:1021F00036907EF0EBF0040036907EF001F0721E17
:1022000010E10BA030C00CF00C0536907EF0EBF026
:10221000040036907EF001F0201208E136907EF046
:1022200001F03C1E08E10000000100020003000470
:102230000005F006BF077EF001F03C1E08E10CF03F
:10224000040536907EF0EBF0040036907EF001F04D
:102250003C1E08E101F06E6708E13EF03790A5F002
:102260000130003105FAEBF0040036907EF00CF0FE
:10227000AA0536907EF001F07A3C01F0721E10E162
:102280000BA00DC136907EF0EBF0040036907EF08E
:1022900001F0721E10E10BA002C100F07423EBF0FC
:1022A000040036907EF036907EF001F0201208E1B6
:1022B0003EF0EBF0E0FF37907EF0EBF0040036905C
:1022C0007EF001F0201208E13EF0EBF0F8FF3790CD
:1022D00004E05EF0EBF0E0FF36907EF0D402040301
:1022E000E5F0F0E001F064100AE10CF0B40436907F
:1022F0007EF0EBF0E0FF36907EF001F0201208E176
:102300000CF0BC0436907EF001F03C1E08E1EBF0CE
:10231000E0FF36907EF001F0201208E10CF0C404DA
:1023200036907EF001F03C1E08E1EBF0E0FF3690C5
:102330007EF001F0201208E10CF0CC0436907EF023
:1023400001F03C1E08E1EBF0F8FF36907EF0EBF078
:10235000F0FF36907EF001F06E6708E101F0201288
:1023600008E1EBF0040036907EF001F03C1E08E13D
:102370003EF0379011AA08C9EBF0040036907EF0C9
:1023800001F07A3C3EF03790A5F0072000213B9108
:102390003A900BF0740436907EF0EBF00400369027
:1023A0007EF001F03C1E08E13EF0379031AA08C9EA
:1023B000EBF0040036907EF001F07A3C3EF003CE64
:1023C000EBF004003690EBF0E8FF37908AF037909E
:0A23D0002EF42EF8EAA11EFE8EF294
:0C047400000000000000000066732D383E
:1004800052C1E03F182D4454FB21F93F66732D38CB
:1004900052C1F03F182D4454FB21F93F66732D38AB
:1004A00052C10040182D4454FB2109403FD038C6AA
:1004B000A6F10440BD87B1D97ACDEABF636A8D5CED
:1004C0003FFD20C0CBBCE2B97F8134C0E21C0651A5
:1004D000A6602BC0000000000000F03F10C74AE1FA
:1004E000490C2E40D7A30D320ACA4D40A56D0B040E
:1004F000128A5540A995C4BC7C88444056CD9E5E66
:100500001426D13FAA4C58E87AB6FB3F5599B0D093
:04051000F56CE73F60
:0C106400CEF85EFE1AAEF0E16EF86EF4FD
:1010700025FA05F82AF036901BCEEBF004003690E6
:101080007EF0EBF0F0FF36907EF001F0201208E1E8
:101090003EF0EBF0F8FF379088EAAAF036907EF049
:1010A000EBF0F8FF36907EF001F03C1E08E13EF0D8
:1010B000EBF0F0FF37904CB0FFE0CCB000E04CB26A
:1010C00027F0DBC7EBF0F0FF36908AF037902EF474
:0810D0002EF8EAA11EFE8EF2CB
:0C67A400CEF85EFE1AAE6EF85EF425FA28
:1067B00005F846D04EF044B05EF085F001F07A7CEA
:1067C00004E105F4A5F046F01EF42EF8EAA11EFE41
:1067D0008EF2CEF85EFE1AAE5EF4E5F008100061AF
:1067E0005EF046B05EF044B05EF0A40067015EF07B
:1067F00001F03E2F08E105F400E047F004C644B084
:1068000046F00002019245F01EF4EAA11EFE8EF24F
:04341C00CEF85EFE8A
:103420001AAE6EF45EFC46BCC5F406BCF02C7F2DD3
:103430004D9C4C9DC5F6FF7C075D18C844BC00E060
:10344000C390489006000F20007008C848A00400F0
:1034500005C848A0020002C8429002C902E001CE9D
:1034600001E01EFC2EF4EAA11EFE8EF200E0C7F081
:1034700006C545F001F0866505F605F00FC948A0C0
:1034800006000F208021E0303F3149A0060065F0A2
:103490000210FC6144BCC3907FE0E3CE44BC00E07A
:0634A000C39000E0DECE47
:0A6586006EF45EF805F808A00600A8
:106590000020802105F600E488A006000F200021DD
:1065A00089A0060005F00AC888A0040007C888A0D2
:1065B000020004C8829002C800F0D2660ECE88A005
:1065C000040089A0060088A0020089A0040082902F
:1065D00089A0020000E28392F0E488A00600EFC9DF
:1065E00033CE05F21B931A9288A004007D907C9113
:1065F0007D907C911D901C912380338189A00600A1
:1066000088A204001B931A9288A002007D907C91BE
:106610007D907C911D901C912380338189A0040082
:1066200088A202001B931A9282907D907C917D90AB
:106630007C911D901C912380338189A0020082905F
:106640001B911A908390FFE488A0060010700051FF
:10665000C8C135CE82921D921C9388A002007B9106
:106660007A907B917A901B911A902380338183904A
:1066700088A202001D921C9388A004007B917A904E
:106680007B917A901B911A902380338189A002001C
:1066900088A204001D921C9388A006007B917A902A
:1066A0007B917A901B911A902380338189A00400FA
:1066B00088A006001D901C9189A0060081E420E0BE
:1066C00088A2060027F0C6C325F00F20002189A06C
:1066D000060088A0060065F22380338189A00600A9
:0866E00045F01EF82EF41FFE28
:0E059200000000000000F07F000000000000EC
:1005A000F07F000000000000F8FF000000000000E5
:0A05B000403E000000000000804102
:0609EA005EFE1AAE5EFC89
:1009F0005EF442BCC5F406BCF02C7F2D4D9C4C9D92
:100A0000FF7C075D15C8489006000F20007008C8DD
:100A100048A0040005C848A0020002C8429002C9CC
:100A200002E001CE01E01EF41EFCEAA11EFE1FFE44
:100A300000E0C7F00DC5489006000F20007008C800
:100A400048A0040005C848A0020002C8429002C99C
:080A50007FE0E9CE00E0E7CEF3
:0A34A600CEF85EFE1AAEE0E16EF80B
:1034B0006EF45EFC05F8E5F00C1000615EF001F0C2
:1034C000EA0902E105F4E5F0041000615EF001F0A4
:1034D000EA0902E105FA45F00070005102C700F068
:1034E000C635A5F00070005102C700F0C635EBF0FC
:1034F000040036907EF000E000E26EF06EF001F025
:10350000721E10E10BA008C036907EF001F07A3CEC
:103510003EF0379008EC01CE00ECEBF00C0036905A
:103520007EF000E000E26EF06EF001F0721E10E13D
:103530000BA00AC036907EF001F07A3C3EF0379046
:10354000C5F00640004105FCEBF00C0036907EF023
:10355000EBF0040036907EF001F0721E10E10BA03B
:1035600014C0EBF00C0036907EF0EBF004003690C7
:103570007EF001F06E6708E13EF0EBF0E0FF37907F
:10358000C5F00240004105FC1CCE00E000E26EF0F8
:103590006EF0EBF00C0036907EF001F0721E10E140
:1035A0000BA031C0EBF0040036907EF0EBF00C0085
:1035B00036907EF001F06E6708E13EF0EBF0E0FF40
:1035C000379000F0703645F00270005104C9A5F044
:1035D0000270005120C821E01390AAEF45F002705C
:1035E000005103C8EBF00C0002CEEBF00400369063
:1035F000EBF0F8FF37908AF037901EFC2EF42EF88F
:10360000EAA11EFE8EF200E400E600E000E28AF08D
:1036100055943590F2CEA7F40BC8EBF0F0FF000004
:1036200000010002000300040005F0063F0706CE7B
:1036300000E000E200E400E6EBF0F0FF3790EBF092
:10364000E0FF37904BD071A002C908E001CE00E046
:1036500005FC53D071A004C9C5F00640004105FC2B
:10366000A5F00170005104C8C5F00240004105FCFE
:10367000EBF0E0FF36907EF0C5F2E5F0E8E001F017
:10368000DC2108E1EBF0E8FF36908AF0379000F09B
:02369000FA3509
:02554E00CEF895
:105550005EFE1AAEF4E16EF86EF45EFC44BCC5F873
:1055600006BCF02C7F2D4D9C4C9DC5F4FF7C075D47
:1055700016C8889006000F20007008C888A0040094
:1055800005C888A0020002C8829002C902E001CECC
:1055900001E01EFC2EF42EF8EAA11EFE8EF200E0C1
:1055A000C7F002C500F07A5746B010822F835086AC
:1055B0006F87708606F436863687F4B4F6B6FF0039
:1055C000070100E247F06582758318C688900700DE
:1055D00071A008C90CF09A0536907EF001F07A3C73
:1055E0003EF003CE0CF09A053690EBF0F8FF3790C2
:1055F00044BC3690CAF0379001E0CBCE00E000E228
:1056000074B476B647F0658275830EC488A0060030
:105610000F20802145F24B934A920382138389A283
:1056200006007FE000F0925588A00600002080214F
:1056300005FA88A006000F2000211030003189A053
:10564000060045F065F2CB70FF51FF52FF5304C4D2
:105650007FE0C6B000F0325774B0C6B011CE88A259
:105660000200839288A2040089A2020088A2060098
:1056700089A2040000E089A0060046B090E0C6B010
:1056800046B0F070FF51EBC700E046B22880398188
:10569000C6B005F002C800F0325710E046B22880CC
:1056A000398188A2020005F004C91B931A92FFE019
:1056B000FCC8829046B404C91D901C91FFE4FCC84C
:1056C00023803381839010E046B22880398188A2FC
:1056D000040005F404C91B931A92FFE4FCC888A4D3
:1056E000020046B604C91D941C95FFE6FCC823843D
:1056F000338589A4020088A2060005F004C91B9323
:105700001A92FFE0FCC888A0040046B404C91D90AA
:105710001C91FFE4FCC82380338189A0040088A089
:10572000060046B204C91D901C91FFE2FCC889A086
:10573000060000E046B227F015C688A0060008C89B
:1057400088A0040005C888A0020002C882900AC987
:1057500088A00600A5F22380338189A006007FE09F
:1057600000F0925589AA060000E089A0040089A0F3
:105770000200839000E000F0925585F001F086650C
:1057800005F405F002C900F0A85500E000F09255BC
:101DB0006EF85EF405F825FA029005F425F0FE7041
:101DC000FF510CC8409004C87FE01EF42EF81FFE9F
:101DD00045F081E0839040900F81F7CE00E027F03E
:101DE00003C645F0FFE08390A5F0EFCECEF85EFE8F
:101DF0001AAEE5F0081000615EF046B05EF0E5F066
:101E0000041000615EF0B0001D015EF001F0580AA0
:081E100008E1EAA11EFE8EF2BA
:067C7A005EFE1AAE6EF87A
:107C80006EF45EFC05F825FA05F442B044D205FC1A
:107C9000208608CE45F06F90C092419281E005F4B5
:107CA00081ECFFEA00E0A7F0F5C185F01EFC2EF4A0
:087CB0002EF8EAA11EFE1FFEE2
:02047200000088
:080A5800CEF85EFE1AAEF6E1D5
:100A60006EF86EF45EFC00E444B01390F0EF46B014
:100A70001390F2EF4AB01390F4EF00E01390F6EF0A
:100A800048B005F800F0320B81E8257602C800F086
:100A90003E0B60800F8105F200E31290307E26F05D
:100AA00000E31092327E2F9000900001442001213B
:100AB00005F002C800F0540C01CE81E880900F814F
:100AC00005F200E31290307E26F000E31092327EB1
:100AD0002F90009000014420012105F0EEC800E3B2
:100AE0001290307E00E31092327EFCB0FED2129063
:100AF000F6EF81E01390F6EF7EE21290F2EF129C97
:100B0000F0EFC3F005F67CB226F07ED22F90009075
:100B100000014420012105F001C9E1CE1290F6EF59
:100B2000FFE01390F6EF65F21290F2EF129CF0EFF7
:100B3000C3F080900086008002C900F0880A80908F
:100B400007C845F01EFC2EF42EF8EAA11EFE8EF218
:100B50002A7002C881E801CE00E01190FCEF00E0AD
:100B60001390FAEF10CE1290FAEFE77003510AC417
:100B70000AE201F0882B05F280900F8126F0D0E088
:100B80001390FAEF81E880900F8105F200E3129054
:100B9000307E26F000E31092327E2F90009051A01C
:100BA000E2C880922F831400050101F0883E05F011
:100BB00003C9809081E801CE00E01190FDEF8092A2
:100BC0002F831800050101F0883E05F02AC800E3D4
:100BD0001290307E00E31092327EF8B0FAD212907A
:100BE000F6EF81E01390F6EF7EE21290F2EF129CA6
:100BF000F0EFC3F005F678B226F07AD22F9000908D
:100C000000014420012105F001C9E1CE1290F6EF68
:100C1000FFE01390F6EF65F21290F2EF129CF0EF06
:100C2000C3F05EF8F000EF015EF001F04A6804E105
:100C300005F805F008C800E047F002C445F001CE11
:060C40007FE000F0440B10
:0A0C46001090FEEF01C981E481E87F
:100C500000F0840AFFE81290F6EF81E01390F6EFBF
:100C60007EE21290F2EF129CF0EFC3F005F605FA67
:100C70008090F7D081E80F8167F002C800F0320B56
:100C80001290F6EFFFE01390F6EFA5F21290F2EF5C
:0C0C9000129CF0EFC3F045F000F0440BA4
:08051400686C4C00636E5B0093
:06684A00CEF85EFE1AAE5E
:10685000FEE16EF86EF45EFC44BC00008ED046BCD7
:10686000C090257002C800F0646A457002C800F04C
:106870006069477002C800F06069587002C800F093
:1068800046695B7002C800F0966A63702DC9647037
:1068900002C800F04669657002C800F06069667061
:1068A00002C800F06069677002C800F06069697032
:1068B00002C800F046696E7002C800F074696F701B
:1068C00002C800F0466970703EC9737002C800F0DB
:1068D000CE69757038C9787036C900E01EFC2EF498
:1068E0002EF8EAA11EFE8EF244BC0AB002C801E0F6
:1068F0008AB044BC0CD006C804B082E084B008A0C2
:10690000FEFF05F619CE44BC06B081E086B07EE2FB
:1069100002B0C29CC3F005F40070005102C400E054
:10692000DDCE44BC0CD004C8619481E601008ED059
:1069300044BC0AB0FFE08AB044BC00E00AB227F0D1
:10694000E2C546B0CBCE01E05EF0C09244B001F0AB
:10695000C27202E105F003C900E000F0DC68F1CE8C
:1069600001E244B001F0063F05F003C900E000F089
:10697000DC68E7CE44BC0CD028C80DD0687008C8CD
:1069800004B082E084B008A0FEFF06B203921DCEE0
:10699000C5F084E005F40DD06C7009C9429082E026
:1069A000439004B008A0FEFF06B203920ECE4290C0
:1069B00082E04390C5F004B228ACFEFF08A00600B8
:1069C00010822F833082C39082B200F0426944BCAF
:1069D0000AB00070005102C6FF007F0188B00CD0E1
:1069E00006C804B082E084B008A0FEFF05F644BCEF
:1069F00008B0FFE088B000E008B227F009C606B092
:106A000081E086B07EE202B0C29CC3F005F801CE00
:106A10007EE885F400E087F010C600E31290307E37
:106A200086F000E31092327E2F9000900001442007
:106A3000012105F002C800F0866B45F0FE70FF51A1
:106A400008C944BC06B0FFE086B045F202B0C29C63
:106A5000C3F044BC0CD004C80000619001008ED08B
:106A600000F0426944BC06B081E086B07EE202B02C
:106A7000C29CC3F005F42570005102C800F04269C1
:106A800044BC06B0FFE086B045F202B0C29CC3F041
:106A900000E000F0DC68C5F081E0C6B000905E70F8
:106AA00008C846BCC0900084C5F081E0C6B04080F4
:106AB00001CE00E0008A46BCC0905D7003C8C5F0FE
:106AC00081E001CEC5F05D02000301F0883E05F8CB
:106AD00046B228803981FEB085F003C800E000F09E
:106AE000DC6844BC0AB00070005102C6FF007F01A0
:106AF00088B00CD006C804B082E084B008A0FEFFC5
:106B000005F644BC08B0FFE088B000E008B227F00A
:106B100009C606B081E086B07EE202B0C29CC3F036
:106B200005FC01CE7EECC5F400E0C7F016C6A080DF
:106B300009C87EB05EF045F246B001F0923602E13F
:106B400005F00BC9A08026C97EB05EF045F246B0C4
:106B500001F0923602E105F01DC945F0FE70FF51CB
:106B600008C944BC06B0FFE086B045F202B0C29C42
:106B7000C3F044BC0CD004C80000619001008ED06A
:106B8000C6B800F0426944BC0CD002C8619481E6EA
:106B900000F0EE6944BC0CD002C8619481E600F0BC
:026BA000026B86
:027D2E000080D3
:107D30008080808080808080404040404080808083
:107D400080808080808080808080808080808004AF
:107D5000080808080808080808080808080808218A
:107D600021212121212121212108080808080808B2
:107D700003030303030302020202020202020202DD
:107D800002020202020202020202080808080808AF
:107D900011111111111110101010101010101010DD
:107DA0001010101010101010101008080808800093
:107DB00000000000000000000000000000000000C3
:107DC00000000000000000000000000000000000B3
:107DD00000000000000000000000000000000000A3
:107DE0000000000000000000000000000000000093
:107DF0000000000000000000000000000000000083
:107E00000000000000000000000000000000000072
:107E10000000000000000000000000000000000062
:0F7E200000000000000000000000000000000053
:037E30002F7D00A3
:0E3692005EFE1AAE6EF45EFC5EFA25FAA086AD
:1036A00005F40ECE4090678007C845F01EFA1EFC58
:1036B0002EF4EAA11EFE1FFE81E442B0FFE0C2B07C
:0C36C00000E042BCC7F0EEC100E0F0CE1C
:083E88006EF85EF425FA05F85E
:103E9000A08407CE008004C800E01EF42EF81FFEA8
:0C3EA00081E880904780F6C885F0F7CEDE
:0A3F0600CEF85EFE1AAEF0E16EF890
:103F10006EF45EFC05F825FA0000F1D088A00A00D6
:103F20000070005106C75000000188A20A0027F067
:103F300004C45000000105F401CE25F489A4080052
:103F40000400EB0105FC45F0FFE089A0080000E05B
:103F500088A2080027F00CC688A0060081E089A08E
:103F600006007EE288A00200829443F005F401CEB0
:103F70007EE445F02B70005103C92D7000511AC822
:103F8000119404EB81EC88A00800FFE089A00800F0
:103F900000E088A2080027F00CC688A0060081E097
:103FA00089A006007EE288A00200829443F005F416
:103FB00001CE7EE445F0FE70FF5127C900E3129068
:103FC000307E46F000E31092327E2F90009051A098
:103FD0001CC9C19481EC88A00800FFE089A00800FA
:103FE00000E088A2080027F00CC688A0060081E047
:103FF00089A006007EE288A00200829443F005F4C6
:1040000001CE7EE40100F1D0D5CE45F02E700051F6
:1040100019C8C19481EC88A00800FFE089A00800BD
:1040200000E088A2080027F00CC688A0060081E006
:1040300089A006007EE288A00200829443F005F485
:1040400001CE7EE445F0FE70FF5127C900E31290D7
:10405000307E46F000E31092327E2F90009051A007
:104060001CC9C19481EC88A00800FFE089A0080069
:1040700000E088A2080027F00CC688A0060081E0B6
:1040800089A006007EE288A00200829443F005F435
:1040900001CE7EE40100F1D0D5CE45F0657000512F
:1040A00005C94570005102C900F0804171D002C8B5
:1040B00000F08041C19481EC88A00800FFE089A055
:1040C000080000E088A2080027F00CC688A00600BF
:1040D00081E089A006007EE288A00200829443F07D
:1040E00005F401CE7EE445F02B70005103C92D701C
:1040F000005119C8C19481EC88A00800FFE089A094
:10410000080000E088A2080027F00CC688A006007E
:1041100081E089A006007EE288A00200829443F03C
:1041200005F401CE7EE40000F1D045F0FE70FF51B1
:1041300027C900E31290307E46F000E31092327EF1
:104140002F90009051A01CC9C19481EC88A0080058
:10415000FFE089A0080000E088A2080027F00CC654
:1041600088A0060081E089A006007EE288A0020007
:10417000829443F005F401CE7EE40100F1D0D5CE67
:1041800045F0FE70FF510AC988A00600FFE089A033
:10419000060045F288A00200829443F071D007C85F
:1041A0007FE01EFC2EF42EF8EAA11EFE8EF2000027
:1041B000C19088900C0002C900F0E24200E05EF07D
:1041C0000402EB03E5F0F8E001F04C4802E10100E5
:1041D00089900E0085F08DE005FCA5F0017000517E
:1041E00037C8C0906C700DC888A0040082E089A018
:1041F000040008ACFEFFEBF0F8FF3690CAF03790F1
:1042000025CE85F084E005FC88900D004C7012C925
:10421000C29082E0C390EBF0F8FF36907EF001F0A0
:10422000105504E12EF088A4040048ACFEFFC390B2
:1042300082B20CCEC29082E0C39088A0040008AC89
:10424000FEFFEBF0F8FF3690CAF0379000F0E24244
:10425000C0906C7015C888A0040084E089A0040098
:1042600008ACFCFF0890FEFFEBF0F8FFF7D03690AB
:10427000F2B0F4B2CAF077DC72B0CF90379031CEA2
:1042800085F084E005FC88900D004C7016C9C29042
:1042900084E0C390EBF0F8FF36907EF001F010550B
:1042A00004E12EF088A4040048ACFCFF4894FEFF13
:1042B0004F90C3909FFE82B214CEC29084E0C39010
:1042C00088A0040008ACFCFF0890FEFFEBF0F8FFAC
:1042D000F7D03690F2B0F4B2CAF077DC72B0CF907B
:0842E000379000E000F0A2415C
:04484C00CEF85EFE46
:104850001AAED8E16EF86EF45EFC25FA05F8EEB2F9
:1048600003CE6EB081E0EEB06EBCC0900F8105FC4F
:1048700000E31290307EC6F000E31092327E2F905B
:10488000009000014420012105F0EBC86EBCC090EF
:104890002D7002C92B7006C80084C5F081E0EEB00F
:1048A000408001CE2BE0E990DAFF7FE0E9A0DCFF59
:1048B000E0B000E0EAB0ECB005F46EBCC0902E7041
:1048C0001BC800E060B227F014C66AB002C900F04D
:1048D0005E4944B001C9039A00E400E600E000E24A
:1048E0008AF0559435901EFC2EF42EF8EAA11EFE97
:1048F0008EF26AB0E0B02ECE307005C881E46AB0A6
:1049000081E0EAB027CE0F8105F200E31290307EFD
:1049100026F000E31092327E2F90009051A0D5C96E
:10492000E8A0DCFF0070005102C500F0024CE9A4D1
:10493000DCFF00E46AB081E0EAB06CB020700051A6
:1049400009C46EBCC090D0106CB229906AEB25F0FF
:1049500081E0ECB06EB081E0EEB000F0BA4800E06B
