:040C7C005EF4000022
:100C8000119011F0119012F0119013F0119014F0D6
:100C9000119015F0119016F0119017F0119018F0B6
:100CA000119019F011901AF011901BF011901CF096
:100CB00011901DF011901EF011901FF000E445F00E
:100CC00046F0C402040309A240EF81E41F740055FA
:060CD000F6C51EF41FFE34
:0404A40008ED1FFE42
:0404A000F7EB1FFE59
:080418006EF8008825FA1F7040
:1004200003C17FE02EF81FFE25F206C9808000017F
:1004300006F009AA40EF07CE8080000106F0C40252
:0A044000040309A240EF00E0EDCE36
:020006000FFEEB
:0204C4001FFE19
:0A07D600000106F008A040EF02F059
:10103000CEFF6EF0109000F04EF0000001F0D607E9
:0A1040000EF0119000F02EF08EFF6C
:060F7A00CEF96EF01090AC
:100F800000F04EF0010001F0D6070EF0119000F0D5
:060F90002EF08EF90FFEA9
:04026C00CEF96EF069
:10027000109000F04EF0020001F0D6070EF0119041
:0802800000F02EF08EF90FFED4
:08028800CEF96EF0109000F0B9
:100290004EF0030001F0D6070EF0119000F02EF0A2
:0402A0008EF90FFEC6
:0E0F4200CEF96EF0109000F04EF0040001F0B9
:0E0F5000D6070EF0119000F02EF08EF90FFE75
:04013C00CEF96EF09A
:10014000109000F04EF0050001F0D6070EF011906F
:0801500000F02EF08EF90FFE05
:08015800CEF96EF0109000F0EA
:100160004EF0060001F0D6070EF0119000F02EF0D0
:040170008EF90FFEF7
:060F0A00CEF96EF010901C
:100F100000F04EF0070001F0D6070EF0119000F03F
:060F20002EF08EF90FFE19
:0A0F2600CEF96EF0109000F04EF0CE
:100F3000080001F0D6070EF0119000F02EF08EF9A7
:020F40000FFEA2
:02109E00CEF989
:1010A0006EF0109000F04EF0090001F0D6070EF03F
:0A10B000119000F02EF08EF90FFEF3
:080FF800CEF96EF0109000F03C
:101000004EF00A0001F0D6070EF0119000F02EF01D
:041010008EF90FFE48
:0E108200CEF96EF0109000F04EF00B0001F071
:0E109000D6070EF0119000F02EF08EF90FFE34
:0810E800CEF96EF0109000F04B
:1010F0004EF00C0001F0D6070EF0119000F02EF02B
:041100008EF90FFE57
:0A02F600CEF96EF0109000F04EF00B
:100300000D0001F0D6070EF0119000F02EF08EF9DE
:020310000FFEDE
:0E031200CEF96EF0109000F04EF00E0001F0EB
:0E032000D6070EF0119000F02EF08EF90FFEB1
:0403CC00CEF96EF008
:1003D000109000F04EF00F0001F0D6070EF01190D3
:0803E00000F02EF08EF90FFE73
:0803E800CEF96EF0109000F058
:1003F0004EF0100001F0D6070EF0119000F02EF034
:040400008EF90FFE64
:0802C800CEF96EF0109000F079
:1002D0004EF0110001F0D6070EF0119000F02EF054
:0402E0008EF90FFE86
:0C02A400CEF96EF0109000F04EF0120049
:1002B00001F0D6070EF0119000F02EF08EF90FFE2F
:02032E00CEF906
:100330006EF0109000F04EF0130001F0D6070EF0B2
:0A034000119000F02EF08EF90FFE70
:06104A00CEF96EF01090DB
:1010500000F04EF0140001F0D6070EF0119000F0F1
:061060002EF08EF90FFED8
:04034C00CEF96EF088
:10035000109000F04EF0150001F0D6070EF011904D
:0803600000F02EF08EF90FFEF3
:0A106600CEF96EF0109000F04EF08D
:10107000160001F0D6070EF0119000F02EF08EF958
:021080000FFE61
:06079A00CEF96EF0109094
:1007A00000F04EF0170001F0D6070EF0119000F0A7
:0607B0002EF08EF90FFE91
:0606FA00CEF96EF0109035
:1007000000F04EF0180001F0D6070EF0119000F046
:060710002EF08EF90FFE31
:0A071600CEF96EF0109000F04EF0E6
:10072000190001F0D6070EF0119000F02EF08EF9AE
:020730000FFEBA
:0E073200CEF96EF0109000F04EF01A0001F0BB
:0E074000D6070EF0119000F02EF08EF90FFE8D
:0C101400CEF96EF0109000F04EF01B00C2
:1010200001F0D6070EF0119000F02EF08EF90FFEB1
:020F5E00CEF9CA
:100F60006EF0109000F04EF01C0001F0D6070EF06D
:0A0F7000119000F02EF08EF90FFE34
:10012000CEF96EF0109000F04EF01D0001F0D607F1
:0C0130000EF0119000F02EF08EF90FFE82
:0804A800CEF96EF0109000F097
:1004B0004EF01E0001F0D6070EF0119000F02EF065
:0404C0008EF90FFEA4
:020008003010B6
:04000C007A0F060061
:100010006C028802420F06003C0158010A0F260FAD
:100020009E100600F80F0600060006008210E81079
:1000300006000600F602120306000600060006008F
:10004000CC03E8030600060006000600C802A4026E
:1000500006000600060006002E034A104C03661038
:100060009A07FA06160732070600141006005E0FFC
:08007000200106000600A804AF
:1007E00001F0B60D01F0040400E0000209927EEF72
:1007F00081E016700051F9C500001190FFEF01F083
:10080000D60CF8000E015EF015E27E00EF0101F05B
:10081000B60F02E104CE01F04A0301F00404109087
:10082000FFEF0170F8C810907EEF41701FC8109064
:100830007FEF43701BC8109080EF4B7017C800000B
:100840001190FFEF01F0D60CF8000E015EF016E2F9
:10085000DE00EF0101F04A0402E104CE01F04A0398
:1008600001F004041090FFEF0170F8C810907EEFC3
:10087000497002C900F0780A10907FEF4E7002C9EB
:1008800000F0780A109080EF507002C900F0780AEA
:1008900004E448927EEFD01249927EEF20800170EE
:1008A00003C9000249927EEF81E40C740055F1C542
:1008B000109082EF012003C9F0A061F202CEF2A0F5
:1008C00061F2109083EF012003C9E0A061F202CE33
:1008D000E2A061F2109084EF012003C9D0A061F280
:1008E00002CED2A061F2109085EF012003C9C0A012
:1008F00061F202CEC2A061F2109086EF012003C91E
:10090000B0A061F202CEB2A061F2109087EF012098
:1009100003C9A0A061F202CEA2A061F2109088EFFC
:10092000012003C990A061F202CE92A061F2109062
:1009300089EF012003C980A061F202CE82A061F29A
:10094000109061F27C90012030101190A6EF109071
:1009500061F26C90012030101190A7EF109061F2BD
:100960005C90012030101190A8EF109061F24C9033
:10097000012030101190A9EF109061F23C900120FD
:1009800030101190AAEF109061F22C9001203010DD
:100990001190ABEF109061F21C900120301011907B
:1009A000ACEF109061F2012030101190ADEF10907B
:1009B00060F27C90012030101190AFEF109060F247
:1009C0006C90012030101190B0EF109060F25C90AC
:1009D000012030101190B1EF109060F24C90012086
:1009E00030101190B2EF109060F23C900120301066
:1009F0001190B3EF109060F22C9001203010119004
:100A0000B4EF109060F21C90012030101190B5EFFF
:100A1000109060F2012030101190B6EF000011909C
:020A2000FFEFE6
:0E0A220001F0D60CF8000E015EF017E2A20003
:100A3000EF0101F04A0402E104CE01F04A0301F0A3
:100A400004041090FFEF0170F8C800001190FFEF50
:100A500001F0D60CF8000E015EF00EE2B900EF01D5
:100A600001F04A0402E104CE01F04A0301F004045B
:100A70001090FFEF0170F8C810907EEF4F7002C920
:100A800000F0E40710907FEF557002C900F0E40712
:100A9000109080EF547002C900F0E40704E448921B
:100AA0007EEFD01249927EEF2080017003C90002D0
:100AB00049927EEF81E415740055F1C5109082EFE4
:100AC000012003C9F0A061F202CEF2A061F2109001
:100AD00083EF012003C9E0A061F202CEE2A061F23F
:100AE000109084EF012003C9D0A061F202CED2A001
:100AF00061F2109085EF012003C9C0A061F202CE1F
:100B0000C2A061F2109086EF012003C9B0A061F28B
:100B100002CEB2A061F2109087EF012003C9A0A01D
:100B200061F202CEA2A061F2109088EF012003C909
:100B300090A061F202CE92A061F2109089EF0120A4
:100B400003C980A061F202CE82A061F210908BEF07
:100B5000012003C9F0A060F202CEF2A060F2109072
:100B60008CEF012003C9E0A060F202CEE2A060F2A7
:100B700010908DEF012003C9D0A060F202CED2A068
:100B800060F210908EEF012003C9C0A060F202CE87
:100B9000C2A060F210908FEF012003C9B0A060F2F4
:100BA00002CEB2A060F2109090EF012003C9A0A085
:100BB00060F202CEA2A060F2109091EF012003C972
:100BC00090A060F202CE92A060F2109092EF01200D
:100BD00003C980A060F202CE82A060F2109060F2A1
:100BE0007C90012030101190D4EF109060F26C9046
:100BF000012030101190D5EF109060F25C90012030
:100C000030101190D6EF109060F24C90012030100F
:100C10001190D7EF109060F23C90012030101190AD
:100C2000D8EF109060F22C90012030101190D9EF85
:100C3000109060F21C90012030101190DAEF1090AB
:100C400060F2012030101190DBEF00001190FFEFF7
:100C500001F0D60CF8000E015EF017E2C700EF01BC
:0C0C600001F04A0402E104CE01F04A0356
:040C6C0001F004048B
:0C0C70001090FFEF0170F8C800F0E407DE
:0C0404005A0011900EF081A00EF0FAC911
:08041000A50011900EF01FFE83
:02034A001FFE94
:0A0DB600CEF880A02AF0A2A02AF0D7
:100DC000B0A02AF0E0A02AF0F0A02AF000001190D4
:100DD0002CF011902EF011902FF001F04E0701F041
:100DE000360601F0F20C01F0680301F0960F0000E6
:100DF0001190E0F81190E1F892A0E1F880A0E1F8FC
:100E0000D2A0E2F8F2A0E2F882A0E3F801F0A00498
:100E100001F07C0C0000119017F0119016F0119069
:100E200015F0119014F0119013F0119012F0119030
:100E300011F0119010F011901FF011901EF0119010
:100E40001DF011901CF011901BF011901AF01190F0
:100E500019F0119018F0B2A017F0E40202030F008D
:100E600001F0180480A014F001F0A4040300119014
:100E70000FF001F004040D001190A0EF0A00119092
:100E8000A1EF0D001190B7EF0A001190B8EF0D001F
:100E90001190C5EF0A001190C6EF0D001190DCEF24
:100EA0000A001190DDEF0D001190F2EF0A00119091
:100EB000F3EFEC0000015EF040021F03020001F0BE
:100EC000C60402E101F0F60000001190FFEF01F00E
:100ED000D60CF8000E015EF00EE29400EF0101F076
:100EE0004A0402E104CE01F04A0301F00404109028
:080EF000FFEF0170F8C88EF25B
:080EF800CEF801F074010100C5
:0A0F00001190FFEF01F0C0028EF225
:0802C00001001190FEEF1FFE8A
:0402E40000F07401B1
:0A0F960082A002F092A002F0B0A0C9
:100FA00002F0A2A002F090A003F080A003F0F0A055
:060FB00003F008ED1FFE36
:02074E0082A087
:1007500051F292A051F2A2A051F280A053F280A0D7
:1007600052F290A053F290A052F2A0A053F2A0A097
:1007700052F282A055F282A054F292A055F292A0B9
:1007800054F2A2A055F2A2A054F282A050F292A07C
:0A07900050F2A2A050F200F00404A1
:0A06360082A059F292A059F2A2A08E
:1006400059F2B2A059F2C2A059F2D2A059F2E2A0D6
:1006500059F2F2A059F280A05BF280A05AF290A069
:100660005BF290A05AF2A0A05BF2A0A05AF2B0A058
:100670005BF2B0A05AF2C0A05BF2C0A05AF2D0A0C8
:100680005BF2D0A05AF2E0A05BF2E0A05AF2F0A038
:100690005BF2F0A05AF282A05DF282A05CF292A01E
:1006A0005DF292A05CF2A2A05DF2A2A05CF2B2A008
:1006B0005DF2B2A05CF2C2A05DF2C2A05CF2D2A078
:1006C0005DF2D2A05CF2E2A05DF2E2A05CF2F2A0E8
:1006D0005DF2F2A05CF282A058F292A058F2A2A0C1
:1006E00058F2B2A058F2C2A058F2D2A058F2E2A03A
:0A06F00058F2F2A058F200F00404E2
:0E0CF20082A061F292A061F2A2A061F2B2A013
:100D000061F2C2A061F2D2A061F2E2A061F2F2A0AF
:100D100061F280A063F280A062F290A063F290A0E2
:100D200062F2A0A063F2A0A062F2B0A063F2B0A051
:100D300062F2C0A063F2C0A062F2D0A063F2D0A0C1
:100D400062F2E0A063F2E0A062F2F0A063F2F0A031
:100D500062F282A065F282A064F292A065F292A093
:100D600064F2A2A065F2A2A064F2B2A065F2B2A001
:100D700064F2C2A065F2C2A064F2D2A065F2D2A071
:100D800064F2E2A065F2E2A064F2F2A065F2F2A0E1
:100D900064F282A060F292A060F2A2A060F2B2A01F
:100DA00060F2C2A060F2D2A060F2E2A060F2F2A013
:060DB00060F200F00404F3
:0803680082A069F292A069F283
:10037000A2A069F2B2A069F2C2A069F2D2A069F2A9
:1003800080A06BF280A06AF290A06BF290A06AF25B
:10039000A0A06BF2A0A06AF2B0A06BF2B0A06AF2CB
:1003A000C0A06BF2C0A06AF2D0A06BF2D0A06AF23B
:1003B00082A068F292A068F2A2A068F2B2A068F2ED
:0C03C000C2A068F2D2A068F200F00404B1
:020002000411E7
:0800780048656C6C6F20576FA6
:10008000726C64212020494E505F30303030303067
:1000900030305F30303030303030300000494E503A
:1000A00020526563656976656400004F555420529F
:1000B000656365697665642020202020202020204B
:1000C00000004D4C3631305131313220436F6E6E6D
:0800D000656374656421000002
:0400EC00802500006B
:0600F00000020000000008
:0200000026EFE9
:020004000611E3
:0C11040001CEFFCE00E000E200E400E6B7
:101110000008E0098AF0579088E8F079FCC100786F
:10112000FAC15A0CA50D119C0EF081A00EF0FBC95E
:10113000119D0EF0000A0CF0E200AF905290FF708B
:1011400002C8FF7120C9AF905292AF905294AF90F5
:101150005096AF90509780E4F0C901A20BC801A44B
:1011600009C86F90029882E07F90239882E2FEE4A3
:10117000F8C8E3CE6F90009881E07F90219881E2DB
:10118000FFE4F8C8DACE01F00A000000119000F088
:0411900000F0E00784
:02000A001FFED7
:0800E200780094EF6A000000B1
:0200EA00FFFF16
:107FE000FFFFFFFFFFFFFFFFFFFFFFFFFFFFFFFFA1
:107FF000FFFFFFFFFFFFFFFFFFFFFFFFFFFFFFFF91
:0A04C600CEF85EFE1AAE5EFC5EF892
:1004D0005EF4008800700FC9017002C800F0EC05DE
:1004E000027002C800F0F4057FE01EF41EF81EFC46
:1004F000EAA11EFE8EF20000800100E244BC6EF014
:10050000C29002B26EF001F0B60704E12EF0007066
:1005100000510052005302C87EE0E7CEFFE005F430
:1005200004D0037002C37DE0E0CE05D0027002C3A8
:100530007CE0DBCE06D0017002C37BE0D6CE07D0D4
:10054000017002C37AE0D1CE08D0017002C379E015
:10055000CCCE00E01390F4EF1390F6EF1390F8EF89
:100560001390FAEF1190FCEF82A091F201F00C06CB
:10057000109092F20089F920008980801A90908171
:10058000038110801030119092F2C2A092F210906C
:1005900093F200898020008944BC05D02A9004D1C0
:1005A000038106D04A90138007D15A91038108D065
:1005B0006A90138090810381119193F2119494F2C7
:1005C000109095F20089F020008950800F209081D2
:1005D0000381119195F282A096F292A096F2A2A0C8
:1005E00096F2B2A096F200E000F0EA0400E001E228
:1005F00000F0FC0425F000E27B937B927B917A90E3
:0C0600003B933B923B913A9000F0FC04CD
:06044A005EFE1AAE5EF832
:1004500005F882A091F282A092F21390F4EF139229
:10046000F6EF00E01390F8EF42B01390FAEF0000BF
:100470001190FCEF007200530FC38090119090F226
:100480001290F4EF81E01390F4EF1290F8EF81E016
:100490001390F8EF80A091F21EF8EAA11EFE1FFE55
:0A0FB6005EFE1AAE82A091F282A046
:100FC00096F292A096F2A2A096F280A092F21390CE
:100FD000F4EF1392F6EF00E01390F8EF42B01390A5
:100FE000FAEF00001190FCEF0072005302C380A0E2
:080FF00091F2EAA11EFE1FFEB2
:0C017400CEF85EFC109092F201200070AA
:1001800034C81290F6EF1292F8EF27F019C91090C8
:1001900096F20820007012C8129CF4EFC0901190E3
:1001A00090F2C5F081E01390F4EF25F081E0139018
:1001B000F8EF80A091F200E01EFC8EF27FE0FCCE12
:1001C000109091F2012000700EC81290FAEF09C948
:1001D00005FC00E01390FAEF1092FCEF1290F6EF9E
:1001E000C3F001E0E9CE7EE0E7CE1290F6EF129286
:1001F000F8EF27F02CC9109096F20720008210909B
:10020000FCEF23801190FCEF82A096F292A096F270
:10021000A2A096F2129CF4EF109090F2C19012906E
:10022000F4EF81E01390F4EF1290F8EF81E0139077
:10023000F8EF01A209C81290F6EF1292F8EF27F03A
:1002400006C900E000F0B801010001F0E8021290D8
:10025000FAEF09C905FC00E01390FAEF1092FCEFE9
:0C0260001290F6EFC3F001E000F0B801CE
:0A0CD60082A091F200E01390F4EF09
:100CE0001390F6EF1390F8EF1390FAEF1190FCEFDA
:020CF0001FFEE5
:0802E800008210903CEF23801E
:0602F00011903CEF1FFE1F
:0A00F60092A059F290A05AF290A0D7
:100100005BF292A05CF290A05DF280A059F280A018
:100110005AF282A05BF282A05CF282A05DF21FFE26
:04060C0092A059F26D
:1006100092A05AF292A05BF292A05CF292A05DF2DC
:1006200082A059F282A05AF282A05BF282A05CF210
:0606300082A05DF21FFE36
:0800D800000000000000000020
:0200E00000001E
:0A07B600CEF97EF06EF85EFC1AAC7E
:1007C000CBF012005498349001F0BA1035901EFC12
:0607D0002EF83EF08EF34E
:0610BA00200D00E400E639
:1010C0001B971B961B951B941B931B921B911A90AD
:1010D00087F4A586B58705C188849985A986B987CF
:0810E00000A0FF1DEDC81FFE7A
:00000001FF
