:0607EA00CEF85EFE1AAE1F
:1007F0006EF86EF4008825FA44D0017006C37FE0DD
:100800002EF42EF8EAA11EFE8EF2007805C85004E0
:1008100000056406000707CE017802C900F004094C
:1008200014E490060107A5F045F201F0E42367F017
:1008300002C200002ECE45F02B912A9046F006F021
:1008400046F00A0229F005F2A5F001F0E42367F072
:1008500002C201001ECE45F046F046F02B912A90D0
:100860000A0229F005F2A5F001F0E42367F002C2C4
:1008700002000FCE45F046F046F02B912A9046F04C
:100880000A0229F005F2A5F001F0E42367F03DC269
:10089000030000820000119038EF00E013903AEF5F
:1008A00013903CEF13903EEF139040EF139042EF04
:1008B000139044EF119046EF119047EF82A0A4F2FD
:1008C000D2A059F2D2A05AF2D0A05BF2D2A05CF230
:1008D000D0A05DF2E2A059F2E2A05AF2E0A05BF2F1
:1008E000E2A05CF2E0A05DF280801A9020812A9163
:1008F000038144D04A90138001301190A4F200E0AB
:1009000000F000087EE000F000087DE000F0000844
:0628FA005EFE1AAE5EF85E
:1029000000880000119038EF13923AEF42B0139014
:102910003CEF44B013903EEF46B0139040EF00E020
:10292000139042EF48B0139044EF0000119046EF2F
:10293000119047EF12903CEF08C8129040EF05C885
:1029400001E01EF8EAA11EFE1FFE1090A5F2012074
:10295000017002C87FE0F5CE0100119047EF808042
:102960001A901190A1F201001190A3F200E0E9CEBB
:02045E005EFE40
:100460001AAE5EF800880100119038EF13923AEF4F
:1004700042B013903CEF44B013903EEF46B013905F
:1004800040EF00E0139042EF48B0139044EF0000BB
:10049000119046EF119047EF12903CEF08C8129070
:1004A00040EF05C801E01EF8EAA11EFE1FFE1090F5
:1004B000A5F20120017002C87FE0F5CE0100119085
:1004C00047EF12903CEF04C880801A90013002CEB2
:1004D00080801A901190A1F201001190A3F200E027
:0204E000E2CE6A
:02240E00CEF806
:102410005EFC5EF41090A5F20081109047EF0EC9AB
:1024200001701CC9027002C800F03025037002C898
:1024300000F0D025047002C800F02426129044EF6A
:1024400009C905F400E0139044EF109246EF129092
:1024500042EF43F001E01EF41EFC8EF210800420D7
:10246000047017C80000119047EF0200119046EF6A
:1024700000001190A3F2129044EF09C905F400E0A6
:10248000139044EF109246EF129042EF43F001E0B8
:10249000E2CE1080022002700AC80000119047EFBF
:1024A0000100119046EF02001190A3F23ECE12906F
:1024B0003CEF15C90200119047EF129C3AEFC09013
:1024C0001190A2F2C5F081E013903AEF12903CEF28
:1024D000FFE013903CEF01001190A3F226CE109084
:1024E00038EF0FC90400119047EF0104129040EF3C
:1024F000FFE0129242EF27F001C881041194A3F289
:1025000014CE0300119047EF129C3EEFC090119043
:10251000A2F2C5F081E013903EEF129042EF81E00D
:10252000139042EF01001190A3F200E000F0562456
:102530001080022002700BC80000119047EF0100CC
:10254000119046EF02001190A3F200F0CA251290FC
:102550003CEF12C9129C3AEFC0901190A2F2C5F064
:1025600081E013903AEF12903CEFFFE013903CEFC4
:1025700001001190A3F229CE129040EF07C800008D
:10258000119047EF02001190A3F21FCE109038EF88
:1025900008C90100119047EF80A0A1F2A0A0A3F20A
:1025A00014CE0300119047EF129C3EEFC0901190A3
:1025B000A2F2C5F081E013903EEF129042EF81E06D
:1025C000139042EF01001190A3F200E000F05624B6
:1025D00010800220027008C80000119047EF01002F
:1025E000119046EF020019CE129040EF129242EF86
:1025F00027F00FC9129C3EEFC0901190A2F2C5F0D7
:1026000081E013903EEF25F081E0139042EF01004E
:1026100004CE0000119047EF02001190A3F200E0F9
:0826200000F05624129C3EEF6D
:082628001090A0F2C190129085
:102630003EEF81E013903EEF129042EF81E0139065
:1026400042EF129040EF129242EF27F008C90104C6
:10265000FFE027F001C881041194A3F206CE000028
:10266000119047EF02001190A3F200E000F0562411
:0409CC0082A0A3F270
:1009D0000000119038EF00E013903AEF13903CEFD5
:1009E00013903EEF139040EF139042EF139044EFBB
:0A09F000119046EF119047EF1FFE33
:08007800000000000000000080
:08008000000000000000000078
:0E20E2005EF40000119011F0119012F01190B8
:1020F00013F0119014F0119015F0119016F011904A
:1021000017F0119018F0119019F011901AF0119029
:102110001BF011901CF011901DF011901EF0119009
:102120001FF000E445F046F0A202050309A28CEE80
:0C21300081E41F740055F6C51EF41FFE6C
:0405820008ED1FFE63
:02057E00F7EB99
:020580001FFE5C
:0A04F6006EF8008825FA1F7003C19C
:100500007FE02EF81FFE25F206C98080000106F06C
:1005100009AA8CEE07CE8080000106F0A202050336
:0805200009A28CEE00E0EDCE13
:020006000FFEEB
:0205A2001FFE3A
:060A1A00000106F008A037
:040A20008CEE02F066
:0A279600CEFF6EF0109000F04EF040
:1027A000000001F01A0A0EF0119000F02EF08EFFDA
:1026E000CEF96EF0109000F04EF0010001F01A0AE1
:0C26F0000EF0119000F02EF08EF90FFE9D
:0A02C600CEF96EF0109000F04EF03B
:1002D000020001F01A0A0EF0119000F02EF08EF9D3
:0202E0000FFE0F
:0E02E200CEF96EF0109000F04EF0030001F027
:0E02F0001A0A0EF0119000F02EF08EF90FFE9B
:0826A800CEF96EF0109000F075
:1026B0004EF0040001F01A0A0EF0119000F02EF016
:0426C0008EF90FFE82
:0A019600CEF96EF0109000F04EF06C
:1001A000050001F01A0A0EF0119000F02EF08EF901
:0201B0000FFE40
:0E01B200CEF96EF0109000F04EF0060001F055
:0E01C0001A0A0EF0119000F02EF08EF90FFECC
:10267000CEF96EF0109000F04EF0070001F01A0A4B
:0C2680000EF0119000F02EF08EF90FFE0D
:04268C00CEF96EF025
:10269000109000F04EF0080001F01A0A0EF01190B0
:0826A00000F02EF08EF90FFE90
:0C280400CEF96EF0109000F04EF00900CC
:1028100001F01A0A0EF0119000F02EF08EF90FFE62
:02275E00CEF9B2
:102760006EF0109000F04EF00A0001F01A0A0EF020
:0A277000119000F02EF08EF90FFE1C
:0827E800CEF96EF0109000F034
:1027F0004EF00B0001F01A0A0EF0119000F02EF0CE
:042800008EF90FFE40
:02284E00CEF9C1
:102850006EF0109000F04EF00C0001F01A0A0EF02D
:0A286000119000F02EF08EF90FFE2B
:10035000CEF96EF0109000F04EF00D0001F01A0A88
:0C0360000EF0119000F02EF08EF90FFE50
:04036C00CEF96EF068
:10037000109000F04EF00E0001F01A0A0EF01190ED
:0803800000F02EF08EF90FFED3
:0A042600CEF96EF0109000F04EF0D9
:100430000F0001F01A0A0EF0119000F02EF08EF964
:020440000FFEAD
:0E044200CEF96EF0109000F04EF0100001F0B8
:0E0450001A0A0EF0119000F02EF08EF90FFE39
:0E032200CEF96EF0109000F04EF0110001F0D8
:0E0330001A0A0EF0119000F02EF08EF90FFE5A
:0202FE00CEF937
:100300006EF0109000F04EF0120001F01A0A0EF09C
:0A031000119000F02EF08EF90FFEA0
:08038800CEF96EF0109000F0B8
:100390004EF0130001F01A0A0EF0119000F02EF04A
:0403A0008EF90FFEC5
:1027B000CEF96EF0109000F04EF0140001F01A0AFD
:0C27C0000EF0119000F02EF08EF90FFECC
:0A03A600CEF96EF0109000F04EF05A
:1003B000150001F01A0A0EF0119000F02EF08EF9DF
:0203C0000FFE2E
:0427CC00CEF96EF0E4
:1027D000109000F04EF0160001F01A0A0EF0119061
:0827E00000F02EF08EF90FFE4F
:1009B000CEF96EF0109000F04EF0170001F01A0A18
:0C09C0000EF0119000F02EF08EF90FFEEA
:10091000CEF96EF0109000F04EF0180001F01A0AB7
:0C0920000EF0119000F02EF08EF90FFE8A
:04092C00CEF96EF0A2
:10093000109000F04EF0190001F01A0A0EF011901C
:0809400000F02EF08EF90FFE0D
:08094800CEF96EF0109000F0F2
:100950004EF01A0001F01A0A0EF0119000F02EF07D
:040960008EF90FFEFF
:06277A00CEF96EF0109094
:1027800000F04EF01B0001F01A0A0EF0119000F05C
:062790002EF08EF90FFE91
:0C26C400CEF96EF0109000F04EF01C00FB
:1026D00001F01A0A0EF0119000F02EF08EF90FFEA4
:06017A00CEF96EF01090BA
:1001800000F04EF01D0001F01A0A0EF0119000F080
:060190002EF08EF90FFEB7
:0A058600CEF96EF0109000F04EF078
:100590001E0001F01A0A0EF0119000F02EF08EF9F4
:0205A0000FFE4C
:02000800962739
:04000C00E0260600E4
:10001000C602E202A82606009601B20170268C26CE
:10002000042806005E27060006000600E8274E2882
:100030000600060050036C030600060006000600DA
:100040002604420406000600060006002203FE0203
:1000500006000600060006008803B027A603CC278A
:10006000B00910092C09480906007A270600C426A1
:080070007A0106000600860576
:0C0A240001F05C2201F0E20400E000029E
:100A30000992CAEE81E016700051F9C500001190CC
:100A4000FFEF01F03C21F00023015EF015E2CA0047
:100A5000EE0101F01C2702E104CE01F0A40301F035
:100A6000E2041090FFEF0170F8C81090CAEE4170D8
:100A70001FC81090CBEE43701BC81090CCEE4B708B
:100A800017C800001190FFEF01F03C21F000230196
:100A90005EF016E29200EF0101F0280502E104CEBB
:100AA00001F0A40301F0E2041090FFEF0170F8C818
:100AB0001090CAEE497002C900F0C60C1090CBEE3F
:100AC0004E7002C900F0C60C1090CCEE437002C903
:100AD00000F0C60C4300119058EF11906FEF04E442
:100AE0004892CAEED0124992CAEE2080017003C922
:100AF00000024992CAEE81E40C740055F1C11090D5
:100B0000CEEE012003C9F0A061F202CEF2A061F2A4
:100B10001090CFEE012003C9E0A061F202CEE2A066
:100B200061F21090D0EE012003C9D0A061F202CE94
:100B3000D2A061F21090D1EE012003C9C0A061F2F1
:100B400002CEC2A061F21090D2EE012003C9B0A083
:100B500061F202CEB2A061F21090D3EE012003C97F
:100B6000A0A061F202CEA2A061F21090D4EE01200A
:100B700003C990A061F202CE92A061F21090D5EE6E
:100B8000012003C980A061F202CE82A061F2109020
:100B900061F27C900120301011905AEF109061F2B8
:100BA0006C900120301011905BEF109061F25C901E
:100BB0000120301011905CEF109061F24C900120F8
:100BC000301011905DEF109061F23C9001203010D8
:100BD00011905EEF109061F22C9001203010119076
:100BE0005FEF109061F21C9001203010119060EFC7
:100BF000109061F201203010119061EF109060F2BE
:100C00007C9001203010119063EF109060F26C9096
:100C100001203010119064EF109060F25C90012080
:100C20003010119065EF109060F24C900120301060
:100C3000119066EF109060F23C90012030101190FE
:100C400067EF109060F22C9001203010119068EF47
:0E0C5000109060F21C9001203010119069EF9E
:020C5E001090F4
:100C600060F20120301011906AEF00001190FFEF48
:100C700001F03C21F00023015EF017E25600EF0185
:100C800001F0280502E104CE01F0A40301F0E20422
:100C90001090FFEF0170F8C800001190FFEF01F015
:100CA0003C21F00023015EF00EE26D00EF0101F047
:100CB000280502E104CE01F0A40301F0E204109043
:100CC000FFEF0170F8C81090CAEE4F7002C900F033
:100CD000CC0E1090CBEE557002C900F0CC0E1090E7
:100CE000CCEE437002C900F0CC0E430011907DEFB2
:100CF00004E44892CAEED0124992CAEE20800170F4
:100D000003C900024992CAEE81E415740055F1C18D
:100D10001090CEEE012003C9F0A061F202CEF2A045
:100D200061F21090CFEE012003C9E0A061F202CE83
:100D3000E2A061F21090D0EE012003C9D0A061F2D0
:100D400002CED2A061F21090D1EE012003C9C0A062
:100D500061F202CEC2A061F21090D2EE012003C96E
:100D6000B0A061F202CEB2A061F21090D3EE0120E9
:100D700003C9A0A061F202CEA2A061F21090D4EE4D
:100D8000012003C990A061F202CE92A061F21090FE
:100D9000D5EE012003C980A061F202CE82A061F2EB
:100DA0001090D7EE012003C9F0A060F202CEF2A0AD
:100DB00060F21090D8EE012003C9E0A060F202CEEC
:100DC000E2A060F21090D9EE012003C9D0A060F239
:100DD00002CED2A060F21090DAEE012003C9C0A0CA
:100DE00060F202CEC2A060F21090DBEE012003C9D7
:100DF000B0A060F202CEB2A060F21090DCEE012052
:100E000003C9A0A060F202CEA2A060F21090DDEEB5
:100E1000012003C990A060F202CE92A060F210906F
:100E2000DEEE012003C980A060F202CE82A060F253
:100E3000109060F27C9001203010119088EF10909B
:100E400060F26C9001203010119089EF109060F2E8
:100E50005C900120301011908AEF109060F24C905D
:100E60000120301011908BEF109060F23C90012027
:100E7000301011908CEF109060F22C900120301007
:100E800011908DEF109060F21C90012030101190A5
:100E90008EEF109060F20120301011908FEF000063
:100EA0001190FFEF01F03C21F00023015EF017E20A
:020EB0007B00C5
:0E0EB200EF0101F0280502E104CE01F0A403D7
:100EC00001F0E2041090FFEF0170F8C81090CAEE34
:100ED000497002C900F00A101090CBEE4E7002C9A2
:100EE00000F00A101090CCEE427002C900F00A1017
:100EF0004200119058EF11906FEF04E44892CAEE4F
:100F0000D0124992CAEE2080017003C900024992B2
:100F1000CAEE81E40C740055F1C11090CEEE0120B0
:100F200003C9F0A059F202CEF2A059F21090D3EE0C
:100F3000012003C9A0A059F202CEA2A059F210903C
:100F400059F27C900120301011905AEF78001190E6
:100F50005BEF11905CEF11905DEF11905EEF1090E0
:100F600059F22C900120301011905FEF7800119011
:100F700060EF119061EF109058F27C9001203010DA
:100F8000119063EF7800119064EF119065EF11906C
:100F900066EF119067EF109058F22C9001203010FE
:100FA000119068EF7800119069EF11906AEF0000DE
:100FB0001190FFEF01F03C21F00023015EF017E2F9
:100FC0005600EF0101F0280502E104CE01F0A40370
:100FD00001F0E2041090FFEF0170F8C800001190DA
:100FE000FFEF01F03C21F00023015EF00EE26D0006
:100FF000EF0101F0280502E104CE01F0A40301F0A5
:10100000E2041090FFEF0170F8C81090CAEE4F7024
:1010100002C900F002111090CBEE557002C900F029
:0E10200002111090CCEE427002C900F00211D5
:02102E0042007E
:1010300011907DEF04E44892CAEED0124992CAEEB4
:101040002080017003C900024992CAEE81E4157440
:101050000055F1C11090CEEE012003C9F0A059F265
:1010600002CEF2A059F21090D3EE012003C9A0A045
:1010700059F202CEA2A059F21090D7EE012003C976
:10108000F0A058F202CEF2A058F21090DCEE01204F
:1010900003C9A0A058F202CEA2A058F2109058F2B4
:1010A0007C9001203010119088EF7800119089EF2A
:1010B00011908AEF11908BEF11908CEF109058F2F5
:1010C0002C900120301011908DEF780011908EEF50
:1010D00011908FEF00001190FFEF01F03C21F00024
:1010E00023015EF017E27B00EF0101F0280502E129
:1010F00004CE01F0A40301F0E2041090FFEF0170B0
:10110000F8C81090CAEE497002C900F0D0121090D1
:10111000CBEE4E7002C900F0D0121090CCEE4470AD
:1011200002C900F0D0124400119058EF11906FEFF7
:1011300004E44892CAEED0124992CAEE20800170AF
:1011400003C900024992CAEE81E40C740055F1C152
:101150001090D0EE012003C9D0A069F202CED2A037
:1011600069F21090D1EE012003C9C0A069F202CE4D
:10117000C2A069F21090D2EE012003C9B0A069F2BA
:1011800002CEB2A069F21090D3EE012003C9A0A054
:1011900069F202CEA2A069F21090D4EE012003C938
:1011A00090A069F202CE92A069F21090D5EE0120D3
:1011B00003C980A069F202CE82A069F27800119082
:1011C0005AEF11905BEF109069F25C9001203010A3
:1011D00011905CEF109069F24C900120301011904A
:1011E0005DEF109069F23C900120301011905EEF9D
:1011F000109069F22C900120301011905FEF109048
:1012000069F21C9001203010119060EF109069F28B
:1012100001203010119061EF7800119063EF119070
:1012200064EF109068F25C9001203010119065EF2F
:10123000109068F24C9001203010119066EF1090E1
:1012400068F23C9001203010119067EF109068F226
:101250002C9001203010119068EF109068F21C90D3
:1012600001203010119069EF109068F201203010C9
:0A12700011906AEF00001190FFEFEB
:06127A0001F03C21F00030
:1012800023015EF017E25600EF0101F0280502E1AC
:1012900004CE01F0A40301F0E2041090FFEF01700E
:1012A000F8C800001190FFEF01F03C21F00023018D
:1012B0005EF00EE26D00EF0101F0280502E104CEC0
:1012C00001F0A40301F0E2041090FFEF0170F8C8F0
:1012D0001090CAEE4F7002C900F07C141090CBEE53
:1012E000557002C900F07C141090CCEE447002C915
:1012F00000F07C14440011907DEF04E44892CAEEA3
:10130000D0124992CAEE2080017003C900024992AE
:10131000CAEE81E415740055F1C11090D0EE0120A1
:1013200003C9D0A069F202CED2A069F21090D1EE2A
:10133000012003C9C0A069F202CEC2A069F21090D8
:10134000D2EE012003C9B0A069F202CEB2A069F2C8
:101350001090D3EE012003C9A0A069F202CEA2A092
:1013600069F21090D4EE012003C990A069F202CE78
:1013700092A069F21090D5EE012003C980A069F215
:1013800002CE82A069F21090D9EE012003C9D0A04C
:1013900068F202CED2A068F21090DAEE012003C902
:1013A000C0A068F202CEC2A068F21090DBEE01206D
:1013B00003C9B0A068F202CEB2A068F21090DCEED1
:1013C000012003C9A0A068F202CEA2A068F210908A
:1013D000DDEE012003C990A068F202CE92A068F26F
:1013E0001090DEEE012003C980A068F202CE82A038
:1013F00068F27800119088EF119089EF109068F2F0
:101400005C900120301011908AEF109068F24C909F
:101410000120301011908BEF109068F23C90012069
:10142000301011908CEF109068F22C900120301049
:1014300011908DEF109068F21C90012030101190E7
:101440008EEF109068F20120301011908FEF0000A5
:101450001190FFEF01F03C21F00023015EF017E254
:101460007B00EF0101F0280502E104CE01F0A403A6
:1014700001F0E2041090FFEF0170F8C81090CAEE7E
:10148000497002C900F0301D1090CBEE327002C9D5
:1014900000F0301D1090CCEE437002C900F0301DFA
:1014A0001090CDEE547002C900F0301D1090CEEEB9
:1014B000587002C900F0301D00001190FFEF01F0DC
:1014C0003C21F00023015EF02EE2E000EE0101F08D
:1014D0001C2702E104CE01F0A40301F0E204109005
:1014E000FFEF0170F8C80200119027EF0000119083
:1014F00028EF1090E2EE20700DC90CF027EF2FFEC0
:101500000CF028EF2FFE109027EF00010890E0EE7E
:101510002070F3C8109028EF40CE037014C81090CC
:1015200027EF0001109229EF0003288039810890ED
:10153000E0EED01000811A9101813A9101812A9147
:10154000119137EF21CE027012C8109027EF0001E1
:10155000109229EF0003288039810890E0EED01026
:1015600000812A9101811A91119137EF0DCE1090CF
:1015700027EF0001109229EF00032880398108909D
:10158000E0EED010119037EF109026EF109137EF6A
:101590001180119026EF2080FF10119029EF00702C
:1015A00002C300F01A150CF027EF2FFE000006CE44
:1015B0000CF027EF2FFE109028EF0110119028EF6C
:1015C000109027EF00010890E0EE2070F1C8109015
:1015D00028EF40CE037014C8109027EF000110923E
:1015E00029EF0003288039810890E0EED0100081B7
:1015F0001A9101813A9101812A91119120EF21CE16
:10160000027012C8109027EF0001109229EF00031A
:10161000288039810890E0EED01000812A91018164
:0C1620001A91119120EF0DCE109027EFD1
:04162C000001109217
:1016300029EF0003288039810890E0EED010119046
:1016400020EF10900EEF109120EF118011900EEF0F
:101650002080FF10119029EF007002C300F0D41514
:101660000CF027EF2FFE000006CE0CF027EF2FFE28
:10167000109028EF0110119028EF109027EF000133
:101680000890E0EE2070F1C8109028EF40CE037073
:1016900014C8109027EF0001109229EF0003288052
:1016A00039810890E0EED01000811A9101813A91C1
:1016B00001812A9111911AEF21CE027012C8109067
:1016C00027EF0001109229EF00032880398108904C
:1016D000E0EED01000812A9101811A9111911AEF48
:1016E0000DCE109027EF0001109229EF0003288003
:1016F00039810890E0EED01011901AEF109024EF8D
:1017000010911AEF1180119024EF2080FF1011909A
:1017100029EF007002C300F08E160CF027EF2FFEA9
:10172000000006CE0CF027EF2FFE109028EF0110DE
:10173000119028EF109027EF00010890E0EE207044
:10174000F1C8109028EF40CE037014C8109027EF16
:101750000001109229EF0003288039810890E0EE03
:10176000D01000811A9101813A9101812A91119141
:101770001BEF21CE027012C8109027EF00011092CB
:1017800029EF0003288039810890E0EED010008115
:101790002A9101811A9111911BEF0DCE109027EF24
:1017A0000001109229EF0003288039810890E0EEB3
:1017B000D01011901BEF109025EF10911BEF1180AE
:1017C000119025EF2080FF10119029EF007002C3C7
:1017D00000F048170CF027EF2FFE000006CE0CF0AB
:0E17E00027EF2FFE109028EF0110119028EF38
:0217EE00109059
:1017F00027EF00010890E0EE2070F1C8109028EF6C
:1018000040CE037014C8109027EF0001109229EF0A
:101810000003288039810890E0EED01000811A91F1
:1018200001813A9101812A9111910FEF21CE02702D
:1018300012C8109027EF0001109229EF00032880B2
:1018400039810890E0EED01000812A9101811A912F
:1018500011910FEF0DCE109027EF0001109229EF9C
:101860000003288039810890E0EED01011900FEF2E
:10187000109021EF10910FEF1180119021EF208037
:10188000FF10119029EF007002C300F002180CF055
:1018900027EF2FFE000006CE0CF027EF2FFE109052
:1018A00028EF0110119028EF109027EF0001089009
:1018B000E0EE2070F1C8109028EF40CE037014C8FD
:1018C000109027EF0001109229EF00032880398142
:1018D0000890E0EED01000811A9101813A910181C7
:1018E0002A91119111EF21CE027012C8109027EFAA
:1018F0000001109229EF0003288039810890E0EE62
:10190000D01000812A9101811A91119111EF0DCE11
:10191000109027EF0001109229EF000328803981F1
:101920000890E0EED010119011EF109022EF10917E
:1019300011EF1180119022EF2080FF10119029EFFC
:10194000007002C300F0BC180CF027EF2FFE00005F
:1019500006CE0CF027EF2FFE109028EF011011900B
:1019600028EF109027EF00010890E0EE2070F1C8FA
:10197000109028EF40CE037014C8109027EF00019C
:10198000109229EF0003288039810890E0EED010F2
:1019900000811A9101813A9101812A9111911CEFE4
:1019A00021CE027012C8109027EF0001109229EF8B
:1019B0000003288039810890E0EED01000812A9140
:0E19C00001811A9111911CEF0DCE109027EFAE
:0219CE00000116
:1019D000109229EF0003288039810890E0EED010A2
:1019E00011901CEF109035EF10911CEF11801190A9
:1019F00035EF2080FF10119029EF007002C300F036
:101A000076190CF027EF2FFE000006CE0CF027EF22
:101A10002FFE109028EF0110119028EF109027EF63
:101A200000010890E0EE2070F1C8109028EF40CE41
:101A3000037014C8109027EF0001109229EF0003E3
:101A4000288039810890E0EED01000811A91018140
:101A50003A9101812A9111911DEF21CE027012C895
:101A6000109027EF0001109229EF000328803981A0
:101A70000890E0EED01000812A9101811A91119115
:101A80001DEF0DCE109027EF0001109229EF0003FB
:101A9000288039810890E0EED01011901DEF109051
:101AA00036EF10911DEF1180119036EF2080FF105E
:101AB000119029EF007002C300F0301A0CF027EFEC
:101AC0002FFE000006CE0CF027EF2FFE109028EF1F
:101AD0000110119028EF109027EF00010890E0EE20
:101AE0002070F1C8109028EF40CE037014C81090F9
:101AF00027EF0001109229EF000328803981089018
:101B0000E0EED01000811A9101813A9101812A9171
:101B100011911EEF21CE027012C8109027EF000124
:101B2000109229EF0003288039810890E0EED01050
:101B300000812A9101811A9111911EEF0DCE109012
:101B400027EF0001109229EF0003288039810890C7
:101B5000E0EED01011901EEF10902AEF10911EEFC2
:101B6000118011902AEF2080FF10119029EF007052
:101B700002C300F0EA1A0CF027EF2FFE000006CE99
:101B80000CF027EF2FFE109028EF0110119028EF96
:101B9000109027EF00010890E0EE2070F1C810903F
:101BA00028EF40CE037014C8109027EF0001109268
:101BB00029EF0003288039810890E0EED0100081E1
:101BC0001A9101813A9101812A9111911FEF21CE41
:101BD000027012C8109027EF0001109229EF000345
:101BE000288039810890E0EED01000812A9101818F
:101BF0001A9111911FEF0DCE109027EF0001109256
:101C000029EF0003288039810890E0EED010119070
:101C10001FEF109034EF10911FEF1180119034EFEF
:101C20002080FF10119029EF007002C300F0A41B68
:101C30000CF027EF2FFE0000119028EF109024EFFA
:101C400011902CEF109025EF11902DEF109021EFB7
:101C500011902EEF109022EF11902FEF109035EF92
:101C6000119030EF109036EF119031EF10902AEF75
:101C7000119032EF109034EF119033EF000011907B
:101C800034EF11902AEF119036EF119035EF11904B
:101C900022EF119021EF119025EF119024EF119078
:101CA000FEEF01F0CC09A40005015EF000E05EF05B
:101CB0002C00EF015EF010900EEF00015EF02C02A0
:101CC000EF03109026EF01F0FA2808E104CE01F0AE
:0A1CD000A40301F0E2041090FEEFFF
:061CDA000170F8C80000D3
:101CE000119026EF11900EEF119027EF00010002E6
:101CF00009922CEF0CF027EF2FFE109027EF0870C1
:101D0000F5C100001190FFEF01F03C21F00023012C
:101D10005EF015E2A800EF0101F0280502E104CE13
:101D200001F0A40301F0E2041090FFEF0170F8C885
:101D30001090CAEE497002C900F0280A1090CBEE4C
:101D4000327002C900F0280A1090CCEE437002C92C
:101D500000F0280A1090CDEE527002C900F0280A57
:101D60001090CEEE587002C900F0280A00001190C1
:101D7000FFEF01F03C21F00023015EF02EE2E000D5
:101D8000EE0101F01C2702E104CE01F0A40301F0F2
:101D9000E2041090FFEF0170F8C80200119027EFE5
:101DA0000000119028EF1090E2EE20700DC90CF0A9
:101DB00027EF2FFE0CF028EF2FFE109027EF0001E9
:101DC0000890E0EE2070F3C8109028EF40CE03702A
:101DD00014C8109027EF0001109229EF000328800B
:101DE00039810890E0EED01000811A9101813A917A
:101DF00001812A91119137EF21CE027012C8109003
:101E000027EF0001109229EF000328803981089004
:101E1000E0EED01000812A9101811A91119137EFE3
:101E20000DCE109027EF0001109229EF00032880BB
:101E300039810890E0EED010119037EF109026EF26
:101E4000109137EF1180119026EF2080FF10119034
:021E500029EF78
:0E1E5200007002C300F0CE1D0CF027EF2FFE33
:101E6000000006CE0CF027EF2FFE109028EF011097
:101E7000119028EF109027EF00010890E0EE2070FD
:101E8000F1C8109028EF40CE037014C8109027EFCF
:101E90000001109229EF0003288039810890E0EEBC
:101EA000D01000811A9101813A9101812A911191FA
:101EB00020EF21CE027012C8109027EF000110927F
:101EC00029EF0003288039810890E0EED0100081CE
:101ED0002A9101811A91119120EF0DCE109027EFD8
:101EE0000001109229EF0003288039810890E0EE6C
:101EF000D010119020EF10900EEF109120EF118074
:101F000011900EEF2080FF10119029EF007002C396
:101F100000F0881E0CF027EF2FFE000006CE0CF01C
:101F200027EF2FFE109028EF0110119028EF10904E
:101F300027EF00010890E0EE2070F1C8109028EF24
:101F400040CE037014C8109027EF0001109229EFC3
:101F50000003288039810890E0EED01000811A91AA
:101F600001813A9101812A91119110EF21CE0270E5
:101F700012C8109027EF0001109229EF000328806B
:101F800039810890E0EED01000812A9101811A91E8
:101F9000119110EF0DCE109027EF0001109229EF54
:101FA0000003288039810890E0EED010119010EFE6
:101FB000109023EF109110EF1180119023EF2080EB
:101FC000FF10119029EF007002C300F0421F0CF0C7
:101FD00027EF2FFE0000119028EF1190FEEF01F087
:101FE000CC09A40005015EF010900EEF00015EF038
:0E1FF0001200EF015EF001E05EF02302EF034D
:021FFE00109041
:1020000026EF01F05E0408E104CE01F0A40301F024
:10201000E2041090FEEF0170F8C8109012EF1190DA
:10202000D8EF109013EF1190DAEF109014EF119099
:10203000DCEF109015EF1190DEEF109016EF11907D
:10204000E0EF109017EF1190E2EF109018EF119061
:10205000E4EF109019EF1190E6EF00001190FFEF00
:1020600001F03C21F00023015EF017E2D200EF0105
:1020700001F0280502E104CE01F0A40301F0E2041E
:102080001090FFEF0170F8C80000119026EF11903A
:102090000EEF119023EF119027EF0001000209923B
:1020A00012EF0CF027EF2FFE109027EF0870F5C10C
:1020B00000001190FFEF01F03C21F00023015EF0E1
:1020C00015E2BD00EF0101F0280502E104CE01F0A8
:1020D000A40301F0E2041090FFEF0170F8C800F0D3
:0220E000280ACC
:0E04E2005A0011900EF081A00EF0FAC9A5008C
:0604F00011900EF01FFE4A
:0203A4001FFE3A
:04225C00CEF880A098
:102260002AF0A2A02AF0B0A02AF0E0A02AF0F2A062
:102270002AF0000011902CF011902EF011902FF008
:1022800001F0640901F0260701F0582101F0C203B2
:1022900001F0FC2600001190E0F81190E1F892A006
:1022A000E1F880A0E1F8D2A0E2F8F2A0E2F882A082
:1022B000E3F801F07E0501F0E2200000119017F034
:1022C000119016F0119015F0119014F0119013F078
:1022D000119012F0119011F0119010F011901FF068
:1022E00011901EF011901DF011901CF011901BF038
:1022F00011901AF0119019F0119018F0B2A017F087
:102300003E0203030F0001F0F604020224030C0056
:1023100001F0F604F0A012F0F0A01AF080A014F082
:1023200001F08205030011900FF001F0E2040D00AE
:10233000119054EF0A00119055EF0D0011906BEFC2
:102340000A0011906CEF0D00119079EF0A001190C6
:102350007AEF0D00119090EF0A00119091EF0D00AF
:102360001190A6EF0A001190A7EF0D001190BBEF9E
:102370000A001190BCEF0D001190D0EF0A001190EF
:10238000D1EF0D001190E7EF0A001190E8EF000087
:102390004EF040021F03010001F0EA0702E146008F
:1023A00001015EF040021F03020001F0B60502E1E8
:1023B00001F0500100001190FFEF01F03C21F0000E
:1023C00023015EF00EE24800EF0101F0280502E172
:1023D00004CE01F0A40301F0E2041090FFEF0170BD
:0423E000F8C88EF2B9
:1023F000CEF801F0CE0101001190FFEF01F01A03B9
:022400008EF25A
:0C05A400CEF801F00E2401001190FEEFD3
:0605B00001F01A038EF2B7
:0C240200CEF801F00E2401F01A038EF257
:06031A0001001190DFEE6E
:020320001FFEBE
:02033E0000F0CD
:02034000CE01EC
:0426FC0082A002F0C6
:1027000092A002F0B0A002F0A2A002F090A003F00C
:0C27100080A003F0F0A003F008ED1FFE15
:0C09640082A051F292A051F2A2A051F228
:1009700080A053F280A052F290A053F290A052F2C5
:10098000A0A053F2A0A052F282A055F282A054F28D
:1009900092A055F292A054F2A2A055F2A2A054F255
:1009A00082A050F292A050F2A2A050F200F0E20415
:0A07260082A059F292A059F2A2A09D
:1007300059F2B2A059F2C2A059F2D2A059F2E2A0E5
:1007400059F2F2A059F280A05BF280A05AF290A078
:100750005BF290A05AF2A0A05BF2A0A05AF2B0A067
:100760005BF2B0A05AF2C0A05BF2C0A05AF2D0A0D7
:100770005BF2D0A05AF2E0A05BF2E0A05AF2F0A047
:100780005BF2F0A05AF282A05DF282A05CF292A02D
:100790005DF292A05CF2A2A05DF2A2A05CF2B2A017
:1007A0005DF2B2A05CF2C2A05DF2C2A05CF2D2A087
:1007B0005DF2D2A05CF2E2A05DF2E2A05CF2F2A0F7
:1007C0005DF2F2A05CF282A058F292A058F2A2A0D0
:1007D00058F2B2A058F2C2A058F2D2A058F2E2A049
:0A07E00058F2F2A058F200F0E20413
:0821580082A061F292A061F285
:10216000A2A061F2B2A061F2C2A061F2D2A061F2BB
:10217000E2A061F2F2A061F280A063F280A062F2BC
:1021800090A063F290A062F2A0A063F2A0A062F21D
:10219000B0A063F2B0A062F2C0A063F2C0A062F28D
:1021A000D0A063F2D0A062F2E0A063F2E0A062F2FD
:1021B000F0A063F2F0A062F282A065F282A064F265
:1021C00092A065F292A064F2A2A065F2A2A064F2CD
:1021D000B2A065F2B2A064F2C2A065F2C2A064F23D
:1021E000D2A065F2D2A064F2E2A065F2E2A064F2AD
:1021F000F2A065F2F2A064F282A060F292A060F216
:10220000A2A060F2B2A060F2C2A060F2D2A060F21E
:0C221000E2A060F2F2A060F200F0E20434
:0E03C20082A069F292A069F2A2A069F2B2A034
:1003D00069F2C2A069F2D2A069F280A06BF280A09B
:1003E0006AF290A06BF290A06AF2A0A06BF2A0A0BB
:1003F0006AF2B0A06BF2B0A06AF2C0A06BF2C0A02B
:100400006AF2D0A06BF2D0A06AF282A068F292A049
:1004100068F2A2A068F2B2A068F2C2A068F2D2A00C
:0604200068F200F0E204A6
:020002006A286A
:0800880048656C6C6F20576F96
:10009000726C64212020494E505F30303030303057
:1000A00030305F30303030303030300000494E502A
:1000B00020526563656976656400004F555420528F
:1000C000656365697665642020202020202020203B
:1000D00000004D4C3631305131313220436F6E6E5D
:1000E0006563746564210000493243545820434DD0
:1000F0004420526563696576656421000049324396
:10010000525820434D4420526563696576656421E9
:1001100000004932432D52205820582058205820A2
:100120005820582058205800005001500250035FBA
:0101300007C7
:0A0146008025000000020000000008
:0101310000CD
:0200000070EEA0
:020004006C2866
:06286A0001CEFFCE00E0EC
:1028700000E200E400E60008E0098AF0579088E8EA
:10288000F079FCC10078FAC15A0CA50D119C0EF02C
:1028900081A00EF0FBC9119D0EF0000A0CF03C0166
:1028A000AF905290FF7002C8FF7120C9AF90529252
:1028B000AF905294AF905096AF90509780E4F0C98B
:1028C00001A20BC801A409C86F90029882E07F9012
:1028D000239882E2FEE4F8C8E3CE6F90009881E08E
:1028E0007F90219881E2FFE4F8C8DACE01F00A0077
:0A28F0000000119000F000F0240A2F
:02000A001FFED7
:04013C00780038EF20
:04014000C4000000F7
:02014400FFFFBB
:107FE000FFFFFFFFFFFFFFFFFFFFFFFFFFFFFFFFA1
:107FF000FFFFFFFFFFFFFFFFFFFFFFFFFFFFFFFF91
:0A05B600CEF85EFE1AAE5EFC5EF8A1
:1005C0005EF4008800700FC9017002C800F0DC06FC
:1005D000027002C800F0E4067FE01EF41EF81EFC64
:1005E000EAA11EFE8EF20000800100E244BC6EF023
:1005F000C29002B26EF001F0FA0904E12EF0007030
:1006000000510052005302C87EE0E7CEFFE005F43F
:1006100004D0037002C37DE0E0CE05D0027002C3B7
:100620007CE0DBCE06D0017002C37BE0D6CE07D0E3
:10063000017002C37AE0D1CE08D0017002C379E024
:10064000CCCE00E01390F2EF1390F4EF1390F6EF9E
:100650001390F8EF1190FAEF82A091F201F0FC06EE
:10066000109092F20089F920008980801A90908180
:10067000038110801030119092F2C2A092F210907B
:1006800093F200898020008944BC05D02A9004D1CF
:10069000038106D04A90138007D15A91038108D074
:1006A0006A90138090810381119193F2119494F2D6
:1006B000109095F20089F020008950800F209081E1
:1006C0000381119195F282A096F292A096F2A2A0D7
:1006D00096F2B2A096F200E000F0DA0500E001E246
:1006E00000F0EC0525F000E27B937B927B917A9001
:0C06F0003B933B923B913A9000F0EC05EC
:080528005EFE1AAE5EF805F854
:1005300082A091F282A092F21390F2EF1392F4EF64
:1005400000E01390F6EF42B01390F8EF0000119026
:10055000FAEF007200530FC38090119090F2129046
:10056000F2EF81E01390F2EF1290F6EF81E013903A
:0E057000F6EF80A091F21EF8EAA11EFE1FFE1B
:04271C005EFE1AAE95
:1027200082A091F282A096F292A096F2A2A096F2D6
:1027300080A092F21390F2EF1392F4EF00E0139066
:10274000F6EF42B01390F8EF00001190FAEF00722C
:0E275000005302C380A091F2EAA11EFE1FFEFC
:0201CE00CEF869
:1001D0005EFC109092F20120007034C81290F4EF8F
:1001E0001292F6EF27F019C9109096F208200070CD
:1001F00012C8129CF2EFC090119090F2C5F081E00D
:100200001390F2EF25F081E01390F6EF80A091F2C9
:1002100000E01EFC8EF27FE0FCCE109091F20120F7
:1002200000700EC81290F8EF09C905FC00E01390A9
:10023000F8EF1092FAEF1290F4EFC3F001E0E9CE7C
:100240007EE0E7CE1290F4EF1292F6EF27F02CC981
:10025000109096F2072000821090FAEF2380119000
:10026000FAEF82A096F292A096F2A2A096F2129CC9
:10027000F2EF109090F2C1901290F2EF81E01390A3
:10028000F2EF1290F6EF81E01390F6EF01A209C8A9
:100290001290F4EF1292F6EF27F006C900E000F09A
:1002A0001202010001F042031290F8EF09C905FCA7
:1002B00000E01390F8EF1092FAEF1290F4EFC3F011
:0602C00001E000F0120253
:04213C0082A091F2FA
:1021400000E01390F2EF1390F4EF1390F6EF13907A
:08215000F8EF1190FAEF1FFEF9
:0E0342000082109086EE2380119086EE1FFE42
:1001500092A059F290A05AF290A05BF292A05CF2A9
:1001600090A05DF280A059F280A05AF282A05BF2CA
:0A01700082A05CF282A05DF21FFE87
:0406FC0092A059F27D
:1007000092A05AF292A05BF292A05CF292A05DF2EB
:1007100082A059F282A05AF282A05BF282A05CF21F
:0607200082A05DF21FFE45
:0A01320000000000000000000000C3
:0609FA00CEF97EF06EF85C
:100A00005EFC1AACCBF012005498349001F0202810
:0A0A100035901EFC2EF83EF08EF328
:10282000200D00E400E61B971B961B951B941B9341
:102830001B921B911A9087F4A586B58705C18884E1
:0E2840009985A986B98700A0FF1DEDC81FFE6F
:0C23E400CEF86EF801F01C222EF88EF2EC
:04221C00007302C881
:1022200029F01BCE6EF405F825FA1D981C991D9A0D
:102230001C9B007BFAC8A9F88084208844F830866B
:1022400044F6618907F803C328883989FF14888018
:0C225000998105F2408000012EF41FFE71
:00000001FF
