:102DB000CEF85EFE1AAE6EF86EF4008825FA44D0A6
:102DC000017006C37FE02EF42EF8EAA11EFE8EF2FB
:102DD000007805C8500400056406000707CE017896
:102DE00002C900F0CA2E14E490060107A5F045F2CE
:102DF00001F07A5667F002C200002ECE45F02B910A
:102E00002A9046F006F046F00A0229F005F2A5F0F5
:102E100001F07A5667F002C201001ECE45F046F07E
:102E200046F02B912A900A0229F005F2A5F001F054
:102E30007A5667F002C202000FCE45F046F046F027
:102E40002B912A9046F00A0229F005F2A5F001F034
:102E50007A5667F03DC20300008200001190D6ED63
:102E600000E01390D8ED1390DAED1390DCED1390A1
:102E7000DEED1390E0ED1390E2ED1190E4ED119092
:102E8000E5ED82A0A4F2D2A059F2D2A05AF2D0A0CD
:102E90005BF2D2A05CF2D0A05DF2E2A059F2E2A017
:102EA0005AF2E0A05BF2E2A05CF2E0A05DF280806A
:102EB0001A9020812A91038144D04A9013800130D6
:102EC0001190A4F200E000F0C62D7EE000F0C62DC7
:062ED0007DE000F0C62DBC
:087E08005EFE1AAE5EF8008870
:107E100000001190D6ED1392D8ED42B01390DAED38
:107E200044B01390DCED46B01390DEED00E013900B
:107E3000E0ED48B01390E2ED00001190E4ED1190F8
:107E4000E5ED1290DAED08C81290DEED05C801E00C
:107E50001EF8EAA11EFE1FFE1090A5F2012001707F
:107E600002C87FE0F5CE01001190E5ED80801A9008
:0E7E70001190A1F201001190A3F200E0E9CE02
:101160005EFE1AAE5EF8008801001190D6ED139273
:10117000D8ED42B01390DAED44B01390DCED46B0F8
:101180001390DEED00E01390E0ED48B01390E2ED37
:1011900000001190E4ED1190E5ED1290DAED08C831
:1011A0001290DEED05C801E01EF8EAA11EFE1FFE4A
:1011B0001090A5F20120017002C87FE0F5CE010079
:1011C0001190E5ED1290DAED04C880801A9001309C
:1011D00002CE80801A901190A1F201001190A3F22A
:0411E00000E0E2CE7B
:04599C00CEF85EFCE7
:1059A0005EF41090A5F200811090E5ED0EC9017033
:1059B0001CC9027002C800F0BE5A037002C800F091
:1059C0005E5B047002C800F0B25B1290E2ED09C9A0
:1059D00005F400E01390E2ED1092E4ED1290E0ED9A
:1059E00043F001E01EF41EFC8EF2108004200470CF
:1059F00017C800001190E5ED02001190E4ED0000E1
:105A00001190A3F21290E2ED09C905F400E01390A1
:105A1000E2ED1092E4ED1290E0ED43F001E0E2CE11
:105A20001080022002700AC800001190E5ED01000C
:105A30001190E4ED02001190A3F23ECE1290DAED47
:105A400015C902001190E5ED129CD8EDC09011909F
:105A5000A2F2C5F081E01390D8ED1290DAEDFFE0EC
:105A60001390DAED01001190A3F226CE1090D6ED3E
:105A70000FC904001190E5ED01041290DEEDFFE086
:105A80001292E0ED27F001C881041194A3F214CE24
:105A900003001190E5ED129CDCEDC0901190A2F294
:105AA000C5F081E01390DCED1290E0ED81E0139001
:105AB000E0ED01001190A3F200E000F0E459108045
:105AC000022002700BC800001190E5ED010011905A
:105AD000E4ED02001190A3F200F0585B1290DAEDB1
:105AE00012C9129CD8EDC0901190A2F2C5F081E0CD
:105AF0001390D8ED1290DAEDFFE01390DAED01008B
:105B00001190A3F229CE1290DEED07C8000011908B
:105B1000E5ED02001190A3F21FCE1090D6ED08C95A
:105B200001001190E5ED80A0A1F2A0A0A3F214CE97
:105B300003001190E5ED129CDCEDC0901190A2F2F3
:105B4000C5F081E01390DCED1290E0ED81E0139060
:105B5000E0ED01001190A3F200E000F0E4591080A4
:105B60000220027008C800001190E5ED01001190BC
:105B7000E4ED020019CE1290DEED1292E0ED27F076
:105B80000FC9129CDCEDC0901190A2F2C5F081E02B
:105B90001390DCED25F081E01390E0ED010004CEE0
:105BA00000001190E5ED02001190A3F200E000F07A
:065BB000E459129CDCED3B
:0A5BB6001090A0F2C1901290DCEDF7
:105BC00081E01390DCED1290E0ED81E01390E0EDC8
:105BD0001290DEED1292E0ED27F008C90104FFE01B
:105BE00027F001C881041194A3F206CE00001190A1
:0E5BF000E5ED02001190A3F200E000F0E45990
:0837580082A0A3F20000119011
:10376000D6ED00E01390D8ED1390DAED1390DCED78
:103770001390DEED1390E0ED1390E2ED1190E4ED87
:063780001190E5ED1FFEB3
:0E0232000000000000000000000000000000BE
:020240000000BC
:0E3ED2005EF40000119011F0119012F01190AA
:103EE00013F0119014F0119015F0119016F011903C
:103EF00017F0119018F0119019F011901AF011901C
:103F00001BF011901CF011901DF011901EF01190FB
:103F10001FF000E445F046F048021F0309A2DCEA66
:0C3F200081E41F740055F6C51EF41FFE5E
:041DEC0008ED1FFEE1
:041DE800F7EB1FFEF8
:0E17C2006EF8008825FA1F7003C17FE02EF834
:1017D0001FFE25F206C98080000106F009AADCEA96
:1017E00007CE8080000106F048021F0309A2DCEA50
:0417F00000E0EDCE5A
:020006000FFEEB
:021F48001FFE7A
:043C7C00000106F04D
:063C800008A0DCEA02F0DE
:02723E00CEFF81
:107240006EF0109000F04EF0000001F07C3C0EF06B
:08725000119000F02EF08EFFFA
:0E66F200CEF96EF0109000F04EF0010001F0B5
:0E6700007C3C0EF0119000F02EF08EF90FFE92
:0C081400CEF96EF0109000F04EF00200E3
:1008200001F07C3C0EF0119000F02EF08EF90FFEDE
:0C087400CEF96EF0109000F04EF0030082
:1008800001F07C3C0EF0119000F02EF08EF90FFE7E
:0666BA00CEF96EF0109015
:1066C00000F04EF0040001F07C3C0EF0119000F060
:0666D0002EF08EF90FFE12
:06069A00CEF96EF0109095
:1006A00000F04EF0050001F07C3C0EF0119000F0DF
:0606B0002EF08EF90FFE92
:0A06B600CEF96EF0109000F04EF047
:1006C000060001F07C3C0EF0119000F02EF08EF947
:0206D0000FFE1B
:0A5C0600CEF96EF0109000F04EF0A1
:105C1000070001F07C3C0EF0119000F02EF08EF9A0
:025C20000FFE75
:0E5C2200CEF96EF0109000F04EF0080001F088
:0E5C30007C3C0EF0119000F02EF08EF90FFE6D
:0A79E600CEF96EF0109000F04EF0A4
:1079F000090001F07C3C0EF0119000F02EF08EF9A1
:027A00000FFE77
:046D6C00CEF96EF0FE
:106D7000109000F04EF00A0001F07C3C0EF01190F3
:086D800000F02EF08EF90FFE69
:06788A00CEF96EF0109033
:1078900000F04EF00B0001F07C3C0EF0119000F077
:0678A0002EF08EF90FFE30
:047A4C00CEF96EF011
:107A5000109000F04EF00C0001F07C3C0EF0119004
:087A600000F02EF08EF90FFE7C
:040CAC00CEF96EF01F
:100CB000109000F04EF00D0001F07C3C0EF0119011
:080CC00000F02EF08EF90FFE8A
:080CC800CEF96EF0109000F06F
:100CD0004EF00E0001F07C3C0EF0119000F02EF072
:040CE0008EF90FFE7C
:040FFC00CEF96EF0CC
:10100000109000F04EF00F0001F07C3C0EF01190BB
:0810100000F02EF08EF90FFE36
:08101800CEF96EF0109000F01B
:101020004EF0100001F07C3C0EF0119000F02EF01C
:041030008EF90FFE28
:06099A00CEF96EF0109092
:1009A00000F04EF0110001F07C3C0EF0119000F0D0
:0609B0002EF08EF90FFE8F
:10089000CEF96EF0109000F04EF0120001F07C3CAA
:0C08A0000EF0119000F02EF08EF90FFE0B
:0C0D0400CEF96EF0109000F04EF01300DD
:100D100001F07C3C0EF0119000F02EF08EF90FFEE9
:10736000CEF96EF0109000F04EF0140001F07C3C6D
:0C7370000EF0119000F02EF08EF90FFED0
:0C0D7400CEF96EF0109000F04EF015006B
:100D800001F07C3C0EF0119000F02EF08EF90FFE79
:04737C00CEF96EF0E8
:10738000109000F04EF0160001F07C3C0EF01190D1
:0873900000F02EF08EF90FFE53
:0C370400CEF96EF0109000F04EF01700AF
:1037100001F07C3C0EF0119000F02EF08EF90FFEBF
:0A2ED600CEF96EF0109000F04EF0FF
:102EE000180001F07C3C0EF0119000F02EF08EF9ED
:022EF0000FFED3
:0E2EF200CEF96EF0109000F04EF0190001F0D5
:0E2F00007C3C0EF0119000F02EF08EF90FFECA
:04369C00CEF96EF005
:1036A000109000F04EF01A0001F07C3C0EF01190EA
:0836B00000F02EF08EF90FFE70
:086D8800CEF96EF0109000F04E
:106D90004EF01B0001F07C3C0EF0119000F02EF044
:046DA0008EF90FFE5B
:0A66D600CEF96EF0109000F04EF0C7
:1066E0001C0001F07C3C0EF0119000F02EF08EF9B1
:0266F0000FFE9B
:02067E00CEF9B3
:100680006EF0109000F04EF01D0001F07C3C0EF07A
:0A069000119000F02EF08EF90FFE1D
:101DF000CEF96EF0109000F04EF01E0001F07C3C29
:0C1E00000EF0119000F02EF08EF90FFE95
:020008003E7246
:04000C00F266060092
:1000100014087408BA6606009A06B606065C225CE6
:10002000E67906006C6D0600060006008A784C7AB8
:1000300006000600AC0CC80C060006000600060010
:10004000FC0F181006000600060006009A0990082A
:100050000600060006000600040D6073740D7C7334
:100060000437D62EF22E9C360600886D0600D66622
:080070007E0606000600F01DEB
:0A3CE60001F0B052B1A060F206C870
:103CF00001E01390BAEC01F0A44F07CE00E013905E
:103D0000BAEC01F0A44F01F0A44F01F0261201F02B
:103D10000C7301F0687A000080013C0244031390A8
:103D2000AEEC1392B0EC00E0AA02C403139006EDCF
:103D3000139208ED2202C3031390A2EC1392A4EC99
:103D40001290BAEC09C801F0F2200000119058EF6F
:103D500001F02A4301F026120000119004EE00E465
:103D600045F02B912A9000E209A2C2EC09A2C4EC12
:103D700045F02B912A9009A24AED09A24CED45F09D
:103D80002B912A9009A28EED09A290ED81E4117485
:103D90000055E6C5F0A011F006CE6400000101F068
:103DA000F41701F02612B1A060F2F7C901F06C4FD0
:103DB00001F0AC0801F0261201F0EA281090FDEDA8
:103DC000017009C1A0A060F201F04C4CA2A060F209
:103DD00000001190FDED109005EE007009C3F0A0F9
:103DE00058F201F0D423F2A058F20CF005EE3FFE99
:103DF000109020EF017028C190A060F201F0606483
:103E000092A060F20CF014EF2FFE0CF015EF2FFED5
:103E1000109015EF017010C01290E4EE1292E6EED1
:103E20001390F0EE1392F2EE1290D4EE1292D6EEC0
:103E30001390E0EE1392E2EE0000119020EF12904A
:103E40004CEF81E013904CEF109014EF017005C11E
:103E500001F04E610000119014EF109015EF017009
:063E600005C101F0C65C83
:0A3E66000000119015EFB1A060F20A
:103E700002C900F0B43DF2A011F001F0F42B00E013
:083E800013904CEF00F0403DEF
:0C4FA400CEF85EF400E41290BAEC33C9C1
:104FB000F0A058F26400000101F0F417F2A058F2DA
:104FC0006400000101F0F41781E40F740055F0C58E
:104FD0006400000101F0F4176400000101F0F4170F
:104FE00000E4F0A058F26400000101F0F417F2A010
:104FF00058F26400000101F0F41781E40F740055C9
:10500000F0C56400000101F0F4176400000101F034
:10501000F41700F0DC50F0A058F26400000101F039
:10502000F417F2A058F26400000101F0F41781E4D3
:1050300007740055F0C56400000101F0F417640026
:10504000000101F0F41700E4F0A058F26400000140
:1050500001F0F417F2A058F26400000101F0F41717
:1050600081E407740055F0C56400000101F0F417F5
:105070006400000101F0F41700E4F0A058F26400AD
:10508000000101F0F417F2A058F26400000101F0F1
:10509000F41781E407740055F0C56400000101F0C5
:1050A000F4176400000101F0F41700E4F0A058F2D6
:1050B0006400000101F0F417F2A058F2640000014E
:1050C00001F0F41781E407740055F0C56400000195
:1050D00001F0F4176400000101F0F4171EF48EF2E1
:044F6C00CEF85EF429
:104F700000E4F0A058F26400000101F0F417F2A080
:104F800058F26400000101F0F41781E42874005520
:064F9000F0C51EF48EF2D4
:0A1226005A0011900EF081A00EF0A6
:0A123000FAC9A50011900EF01FFE90
:1052B000CEF880A02AF0A2A02AF0B0A02AF0E0A0A8
:1052C0002AF0F2A02AF0000011902CF011902EF09C
:1052D00011902FF001F0B83601F0EC2C01F0E05005
:1052E00001F0900D01F0D66801F0E81D01F0D23E0A
:1052F000940256030C0001F0C217F0A012F0B6029F
:1053000009030F0001F0C21780A014F092022A03D3
:105310000E0001F0C217A0A013F0B0A013F0A0A0DF
:105320001BF0B0A01BF080A0E2F890A0E2F8A2A0D1
:10533000E2F880A0E6F890A0E6F8A2A0E6F8000067
:1053400001F0203700001190E0F820001190E4F8FF
:1053500080A0E2F892A0E2F800001190E1F880A0AD
:10536000E3F8D0A0E2F8B0A00BF0A0A00BF090A062
:105370000BF080A00BF0B0A059F2B2A05BF2B2A08B
:105380005AF2B2A05DF2B2A05CF2F0A025F0F2A059
:1053900024F0F2A026F0FE025B03080001F0C21721
:1053A000F2A011F0F2A019F0030011900FF001F03B
:1053B000261201004EF040021F0301F0B02D02E161
:1053C000C00005015EF040021F03020001F0AC1FA7
:1053D00002E101F0420600001190EFEF01F00E43F0
:1053E00001F0EC1D01F0420D01F06C0C01F02C59A4
:1053F00001F0262980A069F290A069F2A2A069F2CA
:10540000129066EF12926AEF28803981139064EF50
:1054100000001190EEEF01F058374A001F015EF0D6
:1054200001E05EF0E800ED015EF001E05EF0E70211
:10543000ED031090E6ED01F0087E08E102CE01F0E8
:1054400026121090EEEF0170FAC800001190EEEFF6
:1054500001F058374A001F015EF001E05EF0EA00FB
:10546000ED015EF001E05EF0E902ED031090E6ED83
:1054700001F0087E08E102CE01F026121090EEEF56
:105480000170FAC800001190EEEF01F058374A00A1
:105490001F015EF001E05EF0F100ED015EF001E061
:1054A0005EF0F002ED031090E6ED01F0087E08E1F9
:1054B00002CE01F026121090EEEF0170FAC8000043
:1054C0001190EEEF01F058374A001F015EF001E045
:1054D0005EF0F900ED015EF001E05EF0F802ED0330
:1054E0001090E6ED01F0087E08E102CE01F02612F0
:1054F0001090EEEF0170FAC800001190EEEF01F08D
:1055000058374A001F015EF001E05EF0F700ED0140
:105510005EF001E05EF0F602ED031090E6ED01F0C2
:10552000087E08E102CE01F026121090EEEF017025
:10553000FAC800001190EEEF01F058374A001F0141
:105540005EF001E05EF0FB00ED015EF001E05EF078
:10555000FA02ED031090E6ED01F0087E08E102CEBC
:1055600001F026121090EEEF0170FAC800001190C1
:10557000EEEF01F058374A001F015EF001E05EF0E7
:105580002C00EE015EF001E05EF02B02EE031090C5
:105590002AEE01F0087E08E102CE01F026121090FA
:0255A000EEEF2C
:0E55A2000170FAC800001190EEEF01F05837CA
:1055B0004A001F015EF001E05EF02E00EE015EF099
:1055C00001E05EF02D02EE0310902AEE01F0087E5D
:1055D00008E102CE01F026121090EEEF0170FAC839
:1055E00000001190EEEF01F058374A001F015EF005
:1055F00001E05EF03000EE015EF001E05EF02F02AF
:10560000EE0310902AEE01F0087E08E102CE01F0D0
:1056100026121090EEEF0170FAC8F2A011F000000F
:105620001190EEEF01F0583790A0A4F24A001F014C
:105630005EF00EE05EF09200EC015EF001E05EF0E4
:10564000FE02ED031090E6ED01F0601108E102CEDC
:1056500001F026121090EEEF0170FAC890A06BF2E4
:1056600090A06AF2E0A061F2E0A062F2E0A063F232
:0A567000E2A064F2E2A065F28EF2FF
:044C4C00CEF86EF838
:104C50005EF4F2A011F000001190EEEF01F0583771
:104C600090A0A4F24A001F015EF00EE05EF09200F8
:104C7000EC015EF001E05EF0FE02ED031090E6ED67
:104C800001F0601108E102CE01F026121090EEEF63
:104C90000170FAC8109093EC0001109292EC2083FE
:104CA000000226F010822F8330826EF001F03A125B
:104CB0002EF0109404EE00052B952A9449A0C2EC26
:104CC00049A2C4EC109094EC000100830002109003
:104CD00095EC26F010822F8330826EF001F03A12AC
:104CE0002EF049A04AED49A24CED109096EC00013F
:104CF00000830002109097EC26F010822F83308200
:104D00006EF001F03A122EF049A08EED49A290ED1E
:104D100010909AEC00010083000210909BEC26F0AA
:104D200010822F8330826EF001F03A122EF0139031
:104D3000D2ED1392D4ED10909CEC000100830002A0
:104D400010909DEC26F010822F8330826EF001F0DF
:104D50003A122EF0139078EC13927AEC10909EECAD
:104D600000010083000210909FEC26F010822F8338
:104D700030826EF001F03A122EF0139074EC139220
:104D800076EC48A0C2EC48A2C4EC6EF01290AEECF7
:104D90001292B0EC6EF001F0185904E12EF049A027
:104DA000C2EC49A2C4EC48A04AED48A24CED6EF01A
:104DB000129006ED129208ED6EF001F0185904E120
:104DC0002EF049A04AED49A24CED48A08EED48A234
:084DD00090ED6EF01290A2ECD0
:084DD8001292A4EC6EF001F050
:104DE000185904E12EF049A08EED49A290ED1290E1
:104DF000D2ED1292D4ED6EF012901EEE129220EED1
:104E00006EF001F0185904E12EF01390D2ED1392D8
:104E1000D4ED129078EC12927AEC6EF0129022EEB1
:104E2000129224EE6EF001F0185904E12EF0139066
:104E300078EC13927AEC129074EC129276EC6EF09D
:104E4000129026EE129228EE6EF001F0185904E14D
:104E50002EF0139074EC139276EC00E01390A2EB1A
:104E600005F42B952A9448A8C2EC48AAC4EC6EF825
:104E700012908AEC12928CEC6EF001F0721E04E13A
:104E80002EF013908AEC13928CEC48A84AED48AAB5
:104E90004CED6EF8129086EC129288EC6EF001F0F8
:104EA000721E04E12EF0139086EC139288EC48A059
:104EB0008EED48A290ED6EF0129082EC129284EC8E
:104EC0006EF001F0721E04E12EF0139082EC13924A
:104ED00084EC1290A2EB81E01390A2EB11700051D0
:104EE000BFC512908AEC12928CEC6EF000E0880242
:104EF00041036EF001F0986904E12EF013908AEC02
:104F000013928CEC129086EC129288EC6EF000E01A
:104F1000880241036EF001F0986904E12EF01390CD
:0A4F200086EC139288EC129082ECEC
:064F2A00129284EC6EF00F
:104F300000E0880241036EF001F0986904E12EF070
:104F4000139082EC139284EC0CF004EE2FFE109080
:104F500004EE117003C10000119004EEF0A011F0F6
:0C4F60000CF005EE2FFE1EF42EF88EF271
:0C23D400CEF85EFE1AAEF8E16EF4129036
:1023E00084EE129286EE6EF0FCE101F0F412FC0035
:1023F000A901F102D2034D04620550063F077EF0A9
:1024000001F0F01108E101F0985604E12EF013906C
:102410001AEE13921CEE00E0139084EE139086EEF9
:102420001290D2ED1292D4ED6EF01290F2ED129263
:10243000F4ED6EF001F0986904E112901AEE129238
:102440001CEE6EF001F0901204E1129088EE1292F0
:102450008AEE6EF001F0721E04E12EF0139012EE7F
:10246000139214EE129078EC12927AEC6EF01290B5
:10247000F2ED1292F4ED6EF001F0986904E1129021
:102480001AEE12921CEE6EF001F0901204E12EF0A2
:1024900012948CEE12968EEE7EF001F0185904E143
:1024A0002EF013900EEE139210EE12908AEC129210
:1024B0008CEC6EF001F0CA121EF002E101F01A136A
:1024C00005F4129086EC129288EC6EF001F0CA12BC
:1024D0001EF002E101F01A1306F4129082EC12923F
:1024E00084EC6EF001F0CA121EF002E101F01A1342
:1024F00005F245F026F010822F8330826EF001F055
:102500003A122EF0139016EE139218EE6EF000E0D1
:10251000800246036EF001F0D61E08E10BA002C255
:1025200000F08C26129016EE129218EE6EF000E07B
:10253000000247036EF001F0D61E08E10BA002C1B5
:1025400000F08C26129082EC129284EC6EF0FCE18A
:0825500001F0F412129086EC78
:08255800129288EC6EF0FCE128
:1025600001F0F412E5F0F8E001F0763410E1EBF060
:10257000F8FF36907EF08500EB015102B8031E048F
:10258000A5054C0640077EF001F0F01108E101F0CE
:10259000985604E12EF013900AEE13920CEE12906E
:1025A00012EE129214EE6EF0129090EE129292EEE3
:1025B0006EF001F0901204E12EF012940AEE1296E1
:1025C0000CEE6EF4129494EE129696EE6EF401F008
:1025D000901204E12EF46EF06EF401F0721E04E12C
:1025E0002EF0139088EE13928AEE129082EC1292E3
:1025F00084EC6EF0FCE101F0F41212908AEC12927D
:102600008CEC6EF0FCE101F0F412E5F0F8E001F082
:10261000763410E1EBF0F8FF36907EF08500EB01A8
:102620005102B8031E04A5054C0640077EF001F0D8
:10263000F01108E101F0985604E12EF0139006EE37
:10264000139208EE12900EEE129210EE6EF01290AF
:1026500090EE129292EE6EF001F0901204E12EF0E4
:10266000129406EE129608EE6EF4129494EE129600
:1026700096EE6EF401F0901204E12EF46EF06EF41A
:1026800001F0721E04E12EF000F05827129082EC47
:10269000129284EC6EF0FCE101F0F412129086ECE0
:1026A000129288EC6EF0FCE101F0F412E5F0F8E033
:1026B00001F0763410E1EBF0F8FF36907EF0850003
:1026C000EB015102B8031E04A5054C0640077EF03D
:1026D00001F0F01108E101F0985604E12EF013909A
:1026E0000AEE13920CEE129012EE129214EE139068
:0E26F00088EE13928AEE129082EC129284EC25
:0226FE006EF07C
:10270000FCE101F0F41212908AEC12928CEC6EF063
:10271000FCE101F0F412E5F0F8E001F0763410E1AC
:10272000EBF0F8FF36907EF08500EB015102B80324
:102730001E04A5054C0640077EF001F0F01108E1EB
:1027400001F0985604E12EF0139006EE139208EE75
:1027500012900EEE129210EE13908CEE13928EEEFB
:0E2760000CF020EF2FFE2EF4EAA11EFE8EF2EA
:0628EA0000E0139000EE77
:1028F000139002EE139034EE139036EE139038EEF0
:1029000013903AEE13903CEE13903EEE139040EE8F
:10291000139042EE13904EEE139050EE139052EE41
:06292000139056EE1FFEAD
:04730C0082A073F9EF
:1073100082A037F982A027F982A017F912905EEFB8
:10732000139062F9139032F9139022F9139012F925
:1073300080A073F980A037F980A027F980A017F901
:1073400000E0139084EE139086EE1390D8EE139025
:10735000DAEE1390E8EE1390EAEE13902AEF1FFE98
:087A6800CEF85EF41290BAECB6
:107A700002C900F0FE7A00E020020992ACEB81E03E
:107A800096700051F9C5C60001015EF0AC00EB0133
:107A90005EF001F05A6904E10D00119040EC0A001B
:107AA000119041EC00001190EFEF01F00E438600C1
:107AB00056015EF096020003AC00EB0101F02A1DB6
:107AC00002E104CE01F0400D01F026121090EFEF1C
:107AD0000170F8C800001190EFEF01F00E4386002E
:107AE00056015EF002E2A400EB0101F02A6D02E112
:107AF00002CE01F026121090EFEF0170FAC800E4F8
:107B0000F0A011F01090FDED017002C000F05E7C5D
:107B100000001190EEEF01F0583790A0A4F24A0057
:107B20001F015EF00EE05EF09200EC015EF001E0FD
:107B30005EF0FE02ED031090E6ED01F0601108E149
:107B400002CE01F026121090EEEF0170FAC81090EC
:107B50009AEC00010083000210909BEC26F010824A
:107B60002F8330826EF001F03A1212901EEE1292C4
:107B700020EE6EF001F0721E04E12EF013901EEE66
:107B8000139220EE10909CEC0001008300021090F4
:107B90009DEC26F010822F8330826EF001F03A12B5
:107BA000129022EE129224EE6EF001F0721E04E1A9
:0E7BB0002EF0139022EE139224EE10909EEC15
:027BBE000001C4
:107BC0000083000210909FEC26F010822F833082F9
:107BD0006EF001F03A12129026EE129228EE6EF03C
:107BE00001F0721E04E12EF0139026EE139228EE9F
:107BF000109093EC0001109292EC2083000226F08A
:107C000010822F8330826EF001F03A121290AEECA7
:107C10001292B0EC6EF001F0721E04E12EF013909F
:107C2000AEEC1392B0EC109094EC000100830002D3
:107C3000109095EC26F010822F8330826EF001F0C8
:107C40003A12129006ED129208ED6EF001F0721EDB
:107C500004E12EF0139006ED139208ED81E40A740E
:107C6000005502C400F0047B12901EEE129220EE2A
:107C70006EF000E0200241036EF001F0986904E12B
:107C80002EF013901EEE139220EE129022EE12921E
:107C900024EE6EF000E0200241036EF001F09869DE
:107CA00004E12EF0139022EE139224EE129026EEB1
:107CB000129228EE6EF000E0200241036EF001F017
:107CC000986904E12EF0139026EE139228EEF2A0AC
:107CD00011F01290BAEC2FC800E020020992ACEB30
:107CE00081E096700051F9C5120002015EF0AC000F
:107CF000EB015EF001F05A6904E10D00119040ECD7
:107D00000A00119041EC00001190EFEF01F00E43DA
:107D1000860056015EF096020003AC00EB0101F014
:107D20002A1D02E104CE01F0400D01F02612109050
:0A7D3000EFEF0170F8C81EF48EF2A8
:0E20F200CEF800E020020992ACEB81E096707F
:102100000051F9C5129052EF5EF0129050EF5EF060
:10211000129094EE129296EE6EF0FCE101F0F41241
:10212000129090EE129292EE6EF0FCE101F0F41239
:10213000129004EF129206EF6EF0FCE101F0F4123F
:10214000129000EF129202EF6EF0FCE101F0F41237
:102150001290FCEE1292FEEE6EF0FCE101F0F41231
:10216000060006015EF0AC00EB015EF001F05A697A
:1021700030E10D00119040EC0A00119041EC00009C
:102180001190EFEF01F00E43860056015EF09602CB
:102190000003AC00EB0101F02A1D02E102CE01F0C8
:0C21A00026121090EFEF0170FAC88EF2CA
:06432A00CEF800E00002E5
:104330000992A4EB81E007700051F9C5A2A013F027
:10434000B2A013F000001190EFEF01F00E438600D1
:1043500056015EF008E2A400EB0101F02A6D02E1D3
:1043600002CE01F026121090EFEF0170FAC8109003
:10437000A4EB707002C900F022441090A5EB6970A4
:1043800002C900F022441090A6EB11907CEC109032
:10439000A7EB11907DEC1090A8EB11907EEC1090A3
:1043A000A9EB11907FEC1090AAEB119080EC10908B
:1043B000ABEB119081EC8E00EC015EF02E0002015F
:1043C0005EF07C00EC015EF001F0BC1D06E1129095
:1043D0008EEC129290EC1390FCEE1392FEEE139082
:1043E00008EF13920AEF6EF000E0000240036EF057
:1043F00001F0986904E12EF0139000EF139202EFA0
:1044000012908EEC129290EC6EF000E000024003ED
:104410006EF001F0986904E12EF013900CEF139206
:104420000EEF1090A4EB707002C900F0B44410902D
:10443000A5EB62703FC81090A6EB11907CEC109039
:10444000A7EB11907DEC1090A8EB11907EEC1090F2
:0E445000A9EB11907FEC1090AAEB119080EC7C
:02445E001090BC
:10446000ABEB119081EC8E00EC015EF02E000201AE
:104470005EF07C00EC015EF001F0BC1D06E11290E4
:104480008EEC129290EC6EF001F0CA121EF002E176
:10449000139050EF12908EEC6EF000E08002BF039C
:1044A0006EF001F0901204E101F0CA121EF002E178
:1044B000139054EF1090A4EB647002C900F04645CD
:1044C0001090A5EB62703FC81090A6EB11907CECA9
:1044D0001090A7EB11907DEC1090A8EB11907EEC62
:1044E0001090A9EB11907FEC1090AAEB119080EC4A
:1044F0001090ABEB119081EC8E00EC015EF02E0081
:1045000002015EF07C00EC015EF001F0BC1D06E1F2
:1045100012908EEC129290EC6EF001F0CA121EF026
:1045200002E1139052EF12908EEC6EF000E08002E8
:10453000BF036EF001F0901204E101F0CA121EF008
:1045400002E1139056EF1090A4EB6B7034C81090FA
:10455000A5EB707030C81090A6EB11907CEC109019
:10456000A7EB11907DEC1090A8EB11907EEC1090D1
:10457000A9EB11907FEC1090AAEB119080EC1090B9
:02458000ABEBA3
:0E458200119081EC8E00EC015EF02E00020123
:104590005EF07C00EC015EF001F0BC1D06E11290C3
:1045A0008EEC129290EC1390FCEE1392FEEE1390B0
:1045B00008EF13920AEF1090A4EB6B7034C81090C0
:1045C000A5EB697030C81090A6EB11907CEC1090B0
:1045D000A7EB11907DEC1090A8EB11907EEC109061
:1045E000A9EB11907FEC1090AAEB119080EC109049
:1045F000ABEB119081EC8E00EC015EF02E0002011D
:104600005EF07C00EC015EF001F0BC1D06E1129052
:104610008EEC129290EC139000EF139202EF139035
:104620000CEF13920EEF1090A4EB6B7034C8109047
:10463000A5EB647030C81090A6EB11907CEC109044
:10464000A7EB11907DEC1090A8EB11907EEC1090F0
:10465000A9EB11907FEC1090AAEB119080EC1090D8
:10466000ABEB119081EC8E00EC015EF02E000201AC
:044670005EF07C007C
:0C467400EC015EF001F0BC1D06E11290AC
:104680008EEC129290EC139004EF139206EF1390BD
:1046900010EF139212EF1090A4EB617002C900F0BA
:1046A00024471090A5EB31703DC81090A6EB1190F7
:1046B0007CEC1090A7EB11907DEC1090A8EB119082
:1046C0007EEC1090A9EB11907FEC1090AAEB11906A
:1046D00080EC1090ABEB119081EC8E00EC015EF061
:1046E0002E0002015EF07C00EC015EF001F0BC1DCA
:1046F00006E112908EEC129290EC139090EE1392D1
:1047000092EE00E080023F036EF012908EEC129267
:1047100090EC6EF001F0185904E12EF0139094EE35
:10472000139296EE1090A4EB617002C900F0B247AC
:104730001090A5EB32703DC81090A6EB11907CEC68
:104740001090A7EB11907DEC1090A8EB11907EECEF
:104750001090A9EB11907FEC1090AAEB119080ECD7
:104760001090ABEB119081EC8E00EC015EF02E000E
:0847700002015EF07C00EC0187
:084778005EF001F0BC1D06E13A
:1047800000E080023F036EF012908EEC129290ECEB
:104790006EF001F0185904E12EF0139090EE139290
:1047A00092EE12908EEC129290EC139094EE139283
:1047B00096EE00E020020992ACEB81E09670005189
:1047C000F9C5129052EF5EF0129050EF5EF0129029
:1047D00094EE129296EE6EF0FCE101F0F41212905B
:1047E00090EE129292EE6EF0FCE101F0F412129053
:1047F00004EF129206EF6EF0FCE101F0F412129059
:1048000000EF129202EF6EF0FCE101F0F412129050
:10481000FCEE1292FEEE6EF0FCE101F0F412CA0022
:1048200005015EF0AC00EB015EF001F05A6930E189
:104830000D00119040EC0A00119041EC0000119025
:10484000EFEF01F00E43860056015EF09602000382
:10485000AC00EB0101F02A1D02E102CE01F02612AC
:104860001090EFEF0170FAC8A0A013F0B0A013F001
:024870008EF2C6
:0408AC00CEF81290E0
:1008B00032F912926CEF26F0139032F9129022F96D
:1008C00012926EEF26F0139022F9129012F9129202
:1008D00070EF26F0139012F927CE32E001F0F417F2
:1008E00082A073F982A037F982A027F982A017F9B4
:1008F000129062F981E0139062F9129032F981E06E
:10090000139032F9129022F981E0139022F912909B
:1009100012F981E0139012F980A073F980A037F9E1
:1009200080A027F980A017F9129062F9129268EF5F
:1009300027F0D3C124CE1090FDED017005C101F068
:100940004C4C00001190FDED109005EE007005C3B9
:1009500001F0D4230CF005EE3FFE109020EF017063
:100960000CC101F0606401F04E6101F0C65C000052
:10097000119020EF0CF058EF2FFE01F0261210908E
:1009800058EF0A70D8C100E01390DCEE1390DEEE51
:0A0990001390ECEE1390EEEE8EF2E1
:10646000CEF86EF412908CEE12928EEE6EF001F079
:106470006C062EF01390D4EE1392D6EE6EF01290BE
:10648000FCEE1292FEEE6EF001F0901204E12EF09E
:106490006EF001F0CA121EF402E1139448ED12945A
:1064A000DCEE1296DEEE6EF4129400EF129602EF1E
:1064B0006EF401F0901204E12EF46EF06EF401F02F
:1064C000721E04E12EF0139078EF13927AEF12907F
:1064D00088EE12928AEE6EF001F06C062EF01390A8
:1064E000E4EE1392E6EE6EF0129008EF12920AEFCD
:1064F0006EF001F0901204E12EF01294ECEE129680
:10650000EEEE6EF412940CEF12960EEF6EF401F0B4
:10651000901204E12EF46EF06EF401F0721E04E1AC
:106520002EF013907CEF13927EEF109058EF0A70CC
:1065300002C000F0B6661290D4EE1292D6EE6EF063
:1065400000E000E26EF001F0D61E08E10BA02BC3C4
:1065500082A037F982A027F9129068EF00E26EF06E
:1065600001F03013129078EF12927AEF6EF001F092
:10657000721E04E12EF412906CEF00E26EF001F056
:1065800030132EF07EF001F0721E04E101F0CA1209
:106590001EF002E1139032F9129068EF139022F985
:1065A00001F02E5228CE82A037F982A027F912904E
:1065B00068EF139032F900E26EF001F030131290A0
:1065C00078EF12927AEF6EF001F0185904E12EF490
:1065D000129070EF00E26EF001F030132EF07EF0BA
:1065E00001F0721E04E101F0CA121EF002E11390E4
:0665F00022F901F02E5219
:0A65F60080A037F980A027F9129069
:10660000E4EE1292E6EE6EF000E000E26EF001F0D1
:10661000D61E08E10BA023C382A073F982A017F94C
:10662000129068EF00E26EF001F0301312907CEFF0
:1066300012927EEF6EF001F0721E04E101F0CA12B8
:106640001EF002E1139062F9129068EF139012F9B4
:1066500001F02E5280A073F980A017F92CCE82A0F1
:1066600073F982A017F9129068EF139062F900E2B3
:106670006EF001F0301312907CEF12927EEF6EF00C
:1066800001F0185904E12EF412906EEF00E26EF062
:1066900001F030132EF07EF001F0721E04E101F0E3
:1066A000CA121EF002E1139012F901F02E5280A0DE
:0A66B00073F980A017F92EF48EF2A2
:02614E00CEF889
:106150006EF41290D8EE00E26EF0FCE101F0C2287D
:10616000FC00A901F102D2034D04620550063F076D
:106170007EF001F0F01108E101F0985604E12EF0F4
:10618000139080EF139282EF00E01390D8EE1290FC
:1061900080EF6EF01290D4EE1292D6EE6EF001F017
:1061A000901204E11290DCEE1292DEEE6EF001F03D
:1061B000721E04E12EF01390DCEE1392DEEE6EF010
:1061C000129000EF129202EF6EF001F0901204E1D3
:1061D00001F0CA121EF002E1139044ED1294D4EEC5
:1061E0001296D6EE6EF41294FCEE1296FEEE6EF45B
:1061F00001F0901204E12EF410822F8330826EF0B1
:1062000001F03A122EF07EF001F0721E04E12EF041
:10621000139084EF139286EF1290E8EE00E26EF096
:10622000FCE101F0C228FC00A901F102D2034D04F7
:10623000620550063F077EF001F0F01108E101F021
:10624000985604E12EF0139088EF13928AEF00E045
:106250001390E8EE129088EF6EF01290E4EE129236
:10626000E6EE6EF001F0901204E11290ECEE129264
:10627000EEEE6EF001F0721E04E12EF01390ECEEE3
:106280001392EEEE1290E4EE1292E6EE6EF01290A1
:1062900008EF12920AEF6EF001F0901204E12EF076
:1062A0001294ECEE1296EEEE6EF412940CEF12963F
:1062B0000EEF6EF401F0901204E12EF46EF06EF425
:1062C00001F0721E04E12EF013908CEF13928EEF0A
:0462D000109058EFE3
:0C62D4000A7002C000F05C641290D4EE6E
:1062E0001292D6EE6EF000E000E26EF001F0D61EE3
:1062F00008E10BA02BC382A037F982A027F91290E6
:1063000068EF00E26EF001F03013129084EF129209
:1063100086EF6EF001F0721E04E12EF412906CEF25
:1063200000E26EF001F030132EF07EF001F0721EEC
:1063300004E101F0CA121EF002E1139032F912904A
:1063400068EF139022F901F02E5228CE82A037F97F
:1063500082A027F9129068EF139032F900E26EF0F4
:1063600001F03013129084EF129286EF6EF001F07C
:10637000185904E12EF4129070EF00E26EF001F073
:1063800030132EF07EF001F0721E04E101F0CA120B
:106390001EF002E1139022F901F02E5280A037F98D
:1063A00080A027F91290E4EE1292E6EE6EF000E083
:1063B00000E26EF001F0D61E08E10BA023C382A01C
:1063C00073F982A017F9129068EF00E26EF001F005
:1063D000301312908CEF12928EEF6EF001F0721E5D
:1063E00004E101F0CA121EF002E1139062F912906A
:1063F00068EF139012F901F02E5280A073F980A07B
:1064000017F92CCE82A073F982A017F9129068EFC9
:10641000139062F900E26EF001F0301312908CEFED
:1064200012928EEF6EF001F0185904E12EF41290E2
:106430006EEF00E26EF001F030132EF07EF001F00E
:10644000721E04E101F0CA121EF002E1139012F96B
:1064500001F02E5280A073F980A017F92EF48EF26D
:0A5CC600CEF86EF86EF41290DAEEDC
:105CD00000E26EF0FCE101F0C228FC00A901F10233
:105CE000D2034D04620550063F077EF001F0F0112B
:105CF00008E101F0985604E12EF0139090EF139212
:105D000092EF00E01390DAEE1290D4EE1292D6EEFB
:105D10006EF01290E0EE1292E2EE6EF001F0185981
:105D200004E1129090EF129292EF6EF001F09869F8
:105D300004E12EF01390F4EE1392F6EE1290D4EEEE
:105D40001292D6EE6EF000E000E26EF001F0D61E88
:105D500008E10BA012C01290E0EE1292E2EE6EF09B
:105D600000E000E26EF001F0D61E08E10BA005C1D4
:105D700000E01390DCEE1390DEEE1290D4EE12925F
:105D8000D6EE6EF000E000E26EF001F0D61E08E103
:105D90000BA012C11290E0EE1292E2EE6EF000E063
:105DA00000E26EF001F0D61E08E10BA005C000E095
:105DB0001390DCEE1390DEEE1290D4EE1292D6EE3B
:105DC0001390E0EE1392E2EE129004EF129206EFBF
:105DD0006EF01290F4EE1292F6EE6EF001F0901268
:105DE00004E101F0CA121EF802E1139846ED129088
:105DF000D4EE1292D6EE6EF01290FCEE1292FEEEFF
:105E00006EF001F0901204E12EF01294DCEE129686
:105E1000DEEE6EF4129400EF129602EF6EF401F0D3
:105E2000901204E12EF46EF06EF401F0721E04E1A3
:105E30002EF490822F83308225FA6EF801F03A1208
:105E40002EF07EF001F0721E04E12EF0139094EF1C
:085E5000139296EF1290EAEEA6
:085E580000E26EF0FCE101F034
:105E6000C228FC00A901F102D2034D0462055006CC
:105E70003F077EF001F0F01108E101F0985604E1CF
:105E80002EF0139098EF13929AEF00E01390EAEE41
:105E90001290E4EE1292E6EE6EF01290F0EE129294
:105EA000F2EE6EF001F0185904E1129098EF1292A0
:105EB0009AEF6EF001F0986904E12EF01390F8EE7D
:105EC0001392FAEE1290E4EE1292E6EE6EF000E01B
:105ED00000E26EF001F0D61E08E10BA012C0129095
:105EE000F0EE1292F2EE6EF000E000E26EF001F0E1
:105EF000D61E08E10BA005C100E01390ECEE139054
:105F0000EEEE1290E4EE1292E6EE6EF000E000E2A9
:105F10006EF001F0D61E08E10BA012C11290F0EE57
:105F20001292F2EE6EF000E000E26EF001F0D61E8A
:105F300008E10BA005C000E01390ECEE1390EEEE2C
:105F40001290E4EE1292E6EE1390F0EE1392F2EE5F
:105F50006EF0129008EF12920AEF6EF001F09012BC
:105F600004E12EF01294ECEE1296EEEE6EF4129422
:105F70000CEF12960EEF6EF401F0901204E12EF485
:105F80006EF06EF401F0721E04E12EF0129410EF28
:105F9000129612EF6EF41294F8EE1296FAEE6EF478
:105FA00001F0901204E12EF46EF06EF401F0721E16
:105FB00004E12EF013909CEF13929EEF109058EF97
:105FC0000A7002C000F048611290D4EE1292D6EE30
:105FD0006EF000E000E26EF001F0D61E08E10BA0CA
:105FE0002BC382A037F982A027F9129068EF00E254
:065FF0006EF001F0301319
:0A5FF600129094EF129296EF6EF0F5
:1060000001F0721E04E12EF412906CEF00E26EF0CB
:1060100001F030132EF07EF001F0721E04E101F069
:10602000CA121EF002E1139032F9129068EF139039
:1060300022F901F02E5228CE82A037F982A027F94A
:10604000129068EF139032F900E26EF001F0301315
:10605000129094EF129296EF6EF001F0185904E14D
:106060002EF4129070EF00E26EF001F030132EF07B
:106070007EF001F0721E04E101F0CA121EF002E18E
:10608000139022F901F02E5280A037F980A027F951
:106090001290E4EE1292E6EE6EF000E000E26EF096
:1060A00001F0D61E08E10BA023C382A073F982A0E1
:1060B00017F9129068EF00E26EF001F030131290C1
:1060C0009CEF12929EEF6EF001F0721E04E101F05F
:1060D000CA121EF002E1139062F9129068EF139059
:1060E00012F901F02E5280A073F980A017F92CCE7E
:1060F00082A073F982A017F9129068EF139062F9E9
:1061000000E26EF001F0301312909CEF12929EEFBD
:106110006EF001F0185904E12EF412906EEF00E2D7
:106120006EF001F030132EF07EF001F0721E04E1EB
:1061300001F0CA121EF002E1139012F901F02E5282
:0E61400080A073F980A017F92EF42EF88EF2CD
:02522E001290DC
:1052300032F9129266EF27F002C3139232F91290FC
:1052400032F912926AEF27F002C0139232F91290EB
:1052500062F9129266EF27F002C3139262F912907C
:1052600062F912926AEF27F002C0139262F912906B
:1052700022F9129266EF27F002C3139222F91290DC
:1052800022F912926AEF27F002C0139222F91290CB
:1052900012F9129266EF27F002C3139212F91290DC
:1052A00012F912926AEF27F002C0139212F91FFE50
:0C2BF400CEF8129032F912925EEF27F03A
:102C00000EC2129062F927F00AC2129022F927F040
:102C100006C2129012F927F002C200F0D62C01F081
:102C2000261282A073F982A037F982A027F982A028
:102C300017F9129062F9F6E0139062F9129032F9E6
:102C4000F6E0139032F9129022F9F6E0139022F98F
:102C5000129012F9F6E0139012F980A073F980A097
:102C600037F980A027F980A017F96400000101F06E
:102C7000F417129032F912925EEF27F002C213920B
:102C800032F9129062F927F002C2139262F912909F
:102C900022F927F002C2139222F9129012F927F0BA
:102CA00002C2139212F9129032F927F002C300F017
:102CB0001E2C129062F927F002C300F01E2C129015
:102CC00022F927F002C300F01E2C129012F927F00F
:102CD00002C300F01E2CFF003F01139018EF139069
:0C2CE0001AEF13901CEF13901EEF8EF201
:0E0D420082A061F280A063F280A062F280A025
:100D500065F282A064F292A072F980A072F91290FA
:100D600060EF139060F912905EEF139062F982A029
:040D700073F91FFEF6
:040C6C00A2A059F2F7
:100C7000A0A05BF2A0A05AF2A2A05DF2A0A05CF23C
:100C800092A036F980A036F9129060EF139030F9F7
:0E0C900012905EEF139032F982A037F91FFE2A
:04592C0092A051F202
:1059300090A053F290A052F292A055F290A054F28F
:1059400092A026F980A026F9129060EF139020F91A
:0E59500012905EEF139022F982A027F91FFE3D
:0A29260082A051F280A053F280A0BD
:1029300052F282A055F280A054F292A016F980A023
:1029400016F9129060EF139010F912905EEF139049
:0829500012F982A017F91FFE25
:0E2A9200CEF8A1A050F203C9A2A050F202CECD
:102AA000A0A050F21290D8EE81E01390D8EE00E290
:102AB000FF70FF510052005303C500E01390D8EEA1
:102AC0001290E8EE81E01390E8EE00E2FF70FF5113
:102AD0000052005303C500E01390E8EE1290DAEEC6
:102AE00081E01390DAEE00E2FF70FF5100520053D4
:102AF00003C500E01390DAEE1290EAEE81E0139045
:102B0000EAEE00E2FF70FF510052005303C500E0FF
:102B10001390EAEE129084EE129286EE6EF000E0D0
:102B200080023F036EF001F0721E04E12EF013905C
:102B300084EE139286EE6EF00000FF017F024703E1
:102B40006EF001F0D61E08E10BA005C100E0139065
:082B500084EE139086EE8EF274
:025BFE000100A4
:065C00001190FDED1FFEF6
:0A568600CEF801F01C07010011909E
:04569000EFEF8EF2B8
:061F4A00CEF801F09C59E5
:081F500001001190EEEF8EF28A
:0456940000F09C592D
:0409B60000F01C072A
:0A68D60082A002F092A002F0B0A030
:1068E00002F0A2A002F090A003F080A003F0F0A0BC
:0668F00003F008ED1FFE9D
:0836B80082A051F292A051F230
:1036C000A2A051F280A053F280A052F290A053F237
:1036D00090A052F2A0A053F2A0A052F282A055F204
:1036E00082A054F292A055F292A054F2A2A055F2F8
:1036F000A2A054F282A050F292A050F2A2A050F2E6
:0437000000F026129D
:042CEC0082A059F277
:102CF00092A059F2A2A059F2B2A059F2C2A059F280
:102D0000D2A059F2E2A059F2F2A059F280A05BF2EF
:102D100080A05AF290A05BF290A05AF2A0A05BF2C1
:102D2000A0A05AF2B0A05BF2B0A05AF2C0A05BF231
:102D3000C0A05AF2D0A05BF2D0A05AF2E0A05BF2A1
:102D4000E0A05AF2F0A05BF2F0A05AF282A05DF28D
:102D500082A05CF292A05DF292A05CF2A2A05DF271
:102D6000A2A05CF2B2A05DF2B2A05CF2C2A05DF2E1
:102D7000C2A05CF2D2A05DF2D2A05CF2E2A05DF251
:102D8000E2A05CF2F2A05DF2F2A05CF282A058F246
:102D900092A058F2A2A058F2B2A058F2C2A058F2E3
:102DA000D2A058F2E2A058F2F2A058F200F0261297
:1050E00082A061F292A061F2A2A061F2B0A061F28E
:1050F000C2A061F2D0A061F2E2A061F2F2A061F27E
:1051000080A063F280A062F290A063F290A062F2AD
:10511000A0A063F2A0A062F2B0A063F2B0A062F21D
:10512000C0A063F2C0A062F2D0A063F2D0A062F28D
:10513000E0A063F2E0A062F2F0A063F2F0A062F2FD
:1051400082A065F282A064F292A065F292A064F25D
:10515000A2A065F2A2A064F2B2A065F2B2A064F2CD
:10516000C2A065F2C2A064F2D2A065F2D2A064F23D
:10517000E2A065F2E2A064F2F2A065F2F2A064F2AD
:1051800082A060F292A060F2A2A060F2C2A060F2DF
:10519000D2A060F2E2A060F2F2A060F200F026126B
:100D900082A069F292A069F2A2A069F2B2A069F2FF
:100DA000C2A069F2D2A069F280A06BF280A06AF2C0
:100DB00090A06BF290A06AF2A0A06BF2A0A06AF2E1
:100DC000B0A06BF2B0A06AF2C0A06BF2C0A06AF251
:100DD000D0A06BF2D0A06AF282A068F292A068F272
:100DE000A2A068F2B2A068F2C2A068F2D2A068F233
:040DF00000F02612D7
:0C17F400CEF86EF45EFC5EF805F805F41B
:101800000006010001F0203780A0EAF892A0EAF873
:10181000FF001190E8F81190ECF885F080780059FD
:1018200007C07B917A902B912A908880998105FC42
:101830008078005902C87FEC00068078005915C3F3
:1018400004CE8010FF6105F4011645F08074005548
:10185000F8C245F408C97B917A902B912A90488070
:10186000598105FC02CE7FECFF1601F02612000024
:101870001190E9F880A0EBF81090E9F8000105F26A
:101880001090EDF8038325F008CE1090E9F80001E0
:1018900005F21090EDF8038325F0C7F0F6C100764D
:1018A00005C982A0EBF8FF167FECDFCE1EF81EFC08
:0418B0002EF48EF292
:020D40001FFE94
:020002003A7D45
:0E024200686B001C0000000080461B086F1255
:1002500083421A041913380100003B00000000001B
:10026000000000000000000000000000000000008E
:10027000000000000000000000000000000000007E
:100280000000000000001E00780160020103090068
:10029000000000000000000000000000000000005E
:1002A0005C8FC23F6F1203BE000000000000000020
:1002B000705100000A000A0000008C420000484211
:1002C00000007043AE47E1BDAE47E13DAE47E1BD42
:1002D000AE47E13D0000803F0080B343000034435F
:1002E000000000000000000000000000EC51783F1A
:1002F0008FC2F53C0000000000000000000001007B
:1003000000000000000000000000000000000000ED
:1003100000000000000000000000000000000000DD
:100320000000000000000000000000000000803F0E
:1003300000000000000000000000000000000000BD
:1003400000000000000000000000000000000000AD
:1003500000000000000000000000BE420000C84194
:10036000000098410000BE420000C84100009841D2
:1003700000000000FF3FFF3FFF3FFF3F0000000085
:100380008C4200000000000000000000000000009F
:10039000000000000000000000000000000000005D
:1003A000000000000000000000000000000000004D
:1003B000000000000000983A401FD0206842000072
:1003C0000000983A0429342188FF9CFF3200000085
:1003D000000000000000000000000000000000001D
:1003E000000000000000000000000000000000000D
:0C03F00000000000000000000000000001
:0A05C00000E100000002000000004E
:02022E00256643
:0102300000CD
:0A01C6004779726F2043616C696293
:1001D000726174696F6E3A20506C65617365204B73
:1001E00065657020746865205175616420466C6196
:1001F0007420616E642052657475726E20416E7950
:10020000203220636861727320746F2053746172AE
:02021000740078
:0E0212004779726F2043616C69627261746992
:0D0220006F6E20436F6D706C65746521007A
:0A06060043757272656E742053652F
:100610007474696E67733A206B703D25662C6B6944
:100620003D25662C6B643D25662C61313D25662C8D
:1006300061323D25662C50623D25752C44623D2576
:02064000750043
:0605CA00202020204E65F8
:1005D000772053657474696E67733A206B703D259C
:1005E000662C6B693D25662C6B643D25662C61315C
:1005F0003D25662C61323D25662C50623D25752CCB
:0606000044623D25750077
:020000008AEA8A
:020004003C7D41
:067D3A0001CEFFCE00E0C7
:107D400000E200E400E60008E0098AF0579088E8C5
:107D5000F079FCC10078FAC15A0CA50D119C0EF007
:107D600081A00EF0FBC9119D0EF0000A0CF01C055D
:107D7000AF905290FF7002C8FF7120C9AF9052922D
:107D8000AF905294AF905096AF90509780E4F0C966
:107D900001A20BC801A409C86F90029882E07F90ED
:107DA000239882E2FEE4F8C8E3CE6F90009881E069
:107DB0007F90219881E2FFE4F8C8DACE01F00A0052
:0A7DC0000000119000F000F0E63C16
:02000A001FFED7
:04051C003202D6EDE4
:04052000D601000000
:02052400FFFFD7
:107FE000FFFFFFFFFFFFFFFFFFFFFFFFFFFFFFFFA1
:107FF000FFFFFFFFFFFFFFFFFFFFFFFFFFFFFFFF91
:10372000007005C901700AC902700FC91FFE82A08E
:10373000E3F882A0E7F8D0A0E2F81FFE82A0EBF841
:1037400082A0EFF8D0A0EAF81FFE82A063F382A067
:083750006BF3A0A062F31FFE61
:041FAC00CEF85EFE0F
:101FB0001AAE5EFC5EF85EF4008800700FC9017016
:101FC00002C800F0D220027002C800F0DA207FE0E0
:101FD0001EF41EF81EFCEAA11EFE8EF20000800117
:101FE00000E244BC6EF0C29002B26EF001F05C3CC4
:101FF00004E12EF0007000510052005302C87EE050
:10200000E7CEFFE005F404D0037002C37DE0E0CE2C
:1020100005D0027002C37CE0DBCE06D0017002C3A3
:102020007BE0D6CE07D0017002C37AE0D1CE08D0D3
:10203000017002C379E0CCCE00E01390A0EF1390C2
:10204000A2EF1390A4EF1390A6EF1190A8EF82A037
:1020500091F201F0AA23109092F20089F9200089F0
:1020600080801A909081038110801030119092F23C
:10207000C2A092F2109093F200898020008944BCA3
:1020800005D02A9004D1038106D04A90138007D14D
:102090005A91038108D06A90138090810381119135
:1020A00093F2119494F2109095F20089F020008937
:1020B00050800F2090810381119195F282A096F2B9
:1020C00092A096F2A2A096F2B2A096F200E000F0E2
:1020D000D01F00E001E200F0E21F25F000E27B9358
:1020E0007B927B917A903B933B923B913A9000F0AC
:0220F000E21FED
:061D2A005EFE1AAE5EF839
:101D300005F882A091F282A092F21390A0EF139284
:101D4000A2EF00E01390A4EF42B01390A6EF0000C2
:101D50001190A8EF007200530FC38090119090F281
:101D60001290A0EF81E01390A0EF1290A4EF81E019
:101D70001390A4EF80A091F21EF8EAA11EFE1FFEB0
:066D2A005EFE1AAE82A01D
:106D300091F282A096F292A096F2A2A096F280A082
:106D400092F21390A0EF1392A2EF00E01390A4EF41
:106D500042B01390A6EF00001190A8EF007200530C
:0C6D600002C380A091F2EAA11EFE1FFEFB
:04071C00CEF85EFCB9
:10072000109092F20120007034C81290A2EF129241
:10073000A4EF27F019C9109096F20820007012C893
:10074000129CA0EFC090119090F2C5F081E0139040
:10075000A0EF25F081E01390A4EF80A091F200E0DB
:100760001EFC8EF27FE0FCCE109091F20120007012
:100770000EC81290A6EF09C905FC00E01390A6EF81
:100780001092A8EF1290A2EFC3F001E0E9CE7EE054
:10079000E7CE1290A2EF1292A4EF27F02CC910908E
:1007A00096F2072000821090A8EF23801190A8EF06
:1007B00082A096F292A096F2A2A096F2129CA0EFCE
:1007C000109090F2C1901290A0EF81E01390A0EFF2
:1007D0001290A4EF81E01390A4EF01A209C8129037
:1007E000A2EF1292A4EF27F006C900E000F0600724
:1007F000010001F09E0C1290A6EF09C905FC00E073
:100800001390A6EF1092A8EF1290A2EFC3F001E0B0
:0408100000F060078D
:02430E0082A08B
:1043100091F200E01390A0EF1390A2EF1390A4EF9E
:0A4320001390A6EF1190A8EF1FFE06
:020C9E000082D2
:0C0CA0001090A0EB23801190A0EB1FFE31
:0E06420092A059F290A05AF290A05BF292A002
:100650005CF290A05DF280A059F280A05AF282A0D4
:0C0660005BF282A05CF282A05DF21FFE43
:0623AA0092A059F292A07E
:1023B0005AF292A05BF292A05CF292A05DF282A02F
:1023C00059F282A05AF282A05BF282A05CF282A053
:0423D0005DF21FFE9D
:0403FC0000000000FD
:06040000000000000000F6
:04066C006EFC03AD70
:0E0670001AAE47DC804CC7DCDBA02EFC1FFE60
:063C4A006EFC03AD1AAE92
:0C3C50004BDC804CCBDCDBA02EFC1FFE0C
:0A68F600CEF97EF07EF803A04EF00C
:10690000F4E11AAEEBF02A0001F0822BF4E11AAEAA
:10691000EBF02E0001F0822B01F0A67836E801F0B2
:0C692000587218E18EF43EF83EF08EF341
:08725800CEF84ADC4BDD1AC838
:10726000EAF05690329A017AFC5B08C772A701F0E7
:10727000EA72007A045B16C500E230CEFE1A036B98
:10728000C07AFF5B09C75F8A01F0DA0F00EA01F0FC
:10729000EA720ACE11AD1FC8000100E200E4000648
:1072A00000EA0CCEFF1A036B3D913D923D933D9455
:1072B0003D953D963C974B9B4A9A738AC38B1AAE79
:1072C00086FEEBF0020051915192519351945195E9
:1072D0005196339A8EF201ADCFC87FE225F420811A
:1072E0002086F00A7F0B238AE9CE21A10EC9108DDA
:1072F0000B2DD3800AC90811006200630064006589
:0C7300000066006702CC000781EA1FFE57
:060FDA00070BB88A01C4F8
:100FE000A18BBD80BD81BD82BD83BD84BD85BD8615
:0C0FF000BC87B88AF6C4F97AF3C61FFE6D
:08699800CEF97EF07EF803A0A9
:1069A0004EF0F4E11AAEEBF0260001F0581FF4E1CE
:1069B0001AAEEBF02E0001F0581F01F0A67801F09E
:1069C0003E5C18E11AAEDAB4DCB68EF43EF83EF066
:0269D0008EF344
:08569800CEF97EF07EF803A0BC
:1056A0004EF0F4E11AAEEBF0220001F0822B01F093
:1056B0003E5C0CE11AAEDAB4DCB68EF43EF83EF095
:0256C0008EF367
:0E56C2006EFC03AD1AAE4BDC804CCBDCDBA0E3
:0656D0002EFC00F00C1E90
:085918006EFC03AD1AAE47DC82
:0C592000804CC7DCDBA02EFC00F0721EE7
:0E2B8200CEF800EC509350945095509650971A
:102B900050985099309B908A3B993B983B973B9635
:102BA0003B953B943A93000272A990818381738193
:102BB000638153814381338172AB01C9800C4D9A8B
:102BC0004C9BFF7A075B08C9A5FA0BC970A9011ACB
:102BD000FC6B01F0E4118EF2020D0071FAC8030DD6
:102BE000F8CE007102C8010DF4CE021AFC6B01F0A0
:042BF000E40CEFCE34
:0C11E400EAF0539255945598339C1FFE7E
:0C0CE400400171A90CC8FFEA1B991B9885
:100CF0001B971B961B951B941B931A92FF11F3C80D
:040D0000010D1FFEC4
:081F5800CEF800EC00E200E409
:101F60000006509750985099309A01CC800C1B9ADB
:101F70001A991C99000B708083809380FF7A08C99E
:101F8000007A0BC970A9811AFF6B01F0E4118EF27F
:101F9000020D0070FAC8030DF8CE007002C8010DE2
:0C1FA000F4CE821AFF6B01F0E40CEFCECF
:0A014600C0781C7924791879187923
:1001500028792479187926792679267926791C79BF
:060160001C7924792879C6
:0A78A600CEF8E5FC8CEC4AB2308805
:1078B0002A980AB011881A98000988A8460182F00F
:1078C00024808AD0CAF05690329A48B880ED898ACE
:1078D000998B01F0027A007809C91D901D911D92C3
:1078E0001D931D941D951D961C9781EA88BA01F081
:1078F00056795EFA01F056795EFA01F056795EFA31
:1079000001F056795EFA1EF21EF41EF61EF808BA51
:107910000ABC01F0E4118EF2030101CE01012480C2
:10792000CAB08EF2C5FE8EF20200CBD08EF27FEC92
:10793000E29AA880B98142BAA982B98344BAA984DB
:10794000B98542BAA6F044BAA682B6836684768523
:10795000E296CFFE33CECEF85EFC46B887F6E7C09F
:1079600000EC65F602C847F829C25EFE6EF045F0ED
:1079700065F200EA01F01E7A05FCE29201F0582B54
:1079800005F825FA42B2C5F001F0582B06FA44B0CA
:1079900000EE268E368FC5F201F0582B06FE0062EF
:1079A00000635EF2C5F6888699871EF82EF0A980DE
:1079B000B981E982F983898499851EFE65F845F6C7
:1079C00025F405F285F00CC0FFECEAF0549886F03F
:1079D000A682B683349886849685A686B687F4C038
:0679E000C5FA1EFC8EF248
:0E7A02007EF8EAF0369807F8258A358B458C19
:0E7A1000558D658E758F3EF803A8C0281FFEA9
:025C3E00CEF89E
:105C40004AD74BDC26C8EAF0549003821382338291
:105C5000509350945095509632988178FF590DC7C3
:105C600072A601F0AE5C8078005919C47F18000953
:105C70007B997A98938783868EF27E1800691D92AD
:105C80001D931D941D951C9681E8F9C801F0AE5C2A
:105C9000EECE01AC02C87FE403CE11AC05C900E42E
:105CA000408680087F09E6CE00E400068EF200728E
:105CB000805308C102C201A405C981E4006602CC78
:065CC000000681E81FFE52
:041E0C00CEF97EF09D
:101E10007EF803A04EF0F4E11AAEEBF02A0001F0D8
:101E2000822BF4E11AAEEBF02E0001F0822B01F0D0
:101E30006E2736E801F0587218E18EF43EF83EF055
:021E40008EF31F
:0A016600862766284E284E284E28F2
:1001700052284E284E286628662866286628662853
:0601800066284E285228FB
:02276E00CEF8A3
:10277000E5FC8CEE4BD82A980AB231881A980009E9
:1027800088A8660182F048BA08B8888A998B06C47E
:10279000C5F0E5FC05FEFFEAFF4AFF4B407A005B0F
:1027A00055C2CAF03690A08A02C901F0DA0F65F866
:1027B00045F625F405F248BA0ADD4ADCD78C17C87D
:1027C000E29CC6F242BCC684D68544BCC686D68787
:1027D00046BCC688D68934C01D921D931D941D9594
:1027E0001D961D971D981C9970A981EA29CEE29C1F
:1027F000288C398DC5F242BC498C598DC5F444BC36
:10280000698C798DC5F646BC898C998DC5F813C045
:10281000FF42FF43FF44FF45FF46FF47FF48FF4994
:1028200081E206C000640065006600670068006918
:102830004ADC804CCADC000D01F0E40C017D04C9C7
:102840004ABC01F0E4118EF2000CCABC8EF2C5FE47
:102850008EF24AD02480FAC901A303C80201CBD169
:082860008EF20000CAD08EF2D6
:0E1E7200CEF97EF07EF803A04EF0F4E11AAE39
:101E8000EBF0260001F0581FF4E11AAEEBF02E0043
:101E900001F0581F01F06E2701F03E5C18E11AAE08
:0C1EA000DAB4DCB68EF43EF83EF08EF3AF
:0E1E4200CEF903A07EF87EF0F4E11AAEEBF0CC
:101E5000280001F0822BF4E11AAEEBF02C0001F027
:101E6000822B01F0682818E13EF00B2083803EF8B9
:021E70008EF3EF
:0A0186008428B628AA28BC28BC284B
:10019000A628AA28BC28AA28AA28AA28AA28B628B5
:0601A000B628AA28B228CF
:08286800CEF8E5FC8CEE00083F
:102870004AB230862A960AB011861A96000768A6D0
:10288000860162F0248017C871A203C9E5FAC5FE6B
:10289000A5FC08B248BA27FA0AC50AC6CAF036909B
:1028A00001F0027A8EF260A88EF2C0388EF270A823
:1028B0008EF22480F8C971A2FAC88EF271A0F7C90D
:0228C0008EF296
:0E28C200CEF97EF07EF803A04EF0F4E11AAEDF
:1028D000EBF02600800C01F0AC1E22E801F05872EB
:0A28E0000CE18EF43EF83EF08EF39A
:041EAC00CEF8529684
:101EB0003298000D928C07CCFF46FF47FF48FF4940
:101EC00081E60068006900E200E41FEA01F0E40C2A
:061ED00001F0E4118EF2A6
:0A1ED600CEF903A07EF87EF0F4E1DF
:101EE0001AAEEBF0240001F0581FF4E11AAEEBF04B
:101EF0002C0001F0581F01F0682818E13EF00B207B
:061F000083803EF88EF321
:06123A00CEF97EF07EF803
:1012400003A04EF0F4E11AAEEBF02200800C01F0A6
:10125000AC1E01F03E5C0CE11AAED6B4D8B68EF4EA
:061260003EF83EF08EF3A3
:1011F000CEF97EF07EF803A04EF0F4E11AAEEBF0EB
:101200002A0001F0822BF4E11AAEEBF02E0001F07F
:10121000822B01F0582936E801F0587218E18EF45B
:061220003EF83EF08EF3E3
:0A01A6007229602A5C2A602A622A8E
:1001B000622A5C2A682A5E2A5E2A5E2A5E2A622AEF
:0601C000682A5C2A622A95
:08295800CEF8E5FC8CEE4AB25A
:1029600030882A980AB011881A98000988A8A60108
:1029700082F000E400E62480CAD0C290E29201F026
:10298000582B25F8C29042B201F0582B01F06E2A64
:1029900002B0E29201F0582B01F06E2A00E8C290DA
:1029A00044B201F0582B01F07A2A02B042B201F091
:1029B000582B01F07A2A04B0E29201F0582B01F072
:1029C0007A2A00E4C29046B201F0582B01F0862A20
:1029D00002B044B201F0582B01F0862A04B042B292
:1029E00001F0582B01F0862A06B0E29201F0582B34
:1029F00001F0862A00E602B046B201F0582B01F041
:102A00006E2A04B044B201F0582B01F06E2A06B0D1
:102A100042B201F0582B01F06E2A85FA00E804B0AA
:102A200046B201F0582B01F07A2A06B044B201F008
:102A3000582B01F07A2A06B046B201F0582B06F660
:102A400026883689A5F248BA08BC80EDC68AD68B9E
:102A500001F0E40C4ABC01F0E4118EF2C5FE8EF2E6
:102A6000C5FE2480CAD08EF20200CBD08EF206F8CA
:102A700026843685006600671FFE06F426863687A4
:102A8000006800691FFE06F6268836890064006526
:022A90001FFE27
:0A126600CEF97EF07EF803A04EF0F2
:10127000F4E11AAEEBF0220001F0822B01F05E598E
:101280000CE11AAEDAB0DCB28EF43EF83EF08EF32A
:02595E00CEF881
:105960004BDB017B16C217C9EAF05690529AC1EA86
:1059700010C4C17AFF5B0FC55F8A01F0DA0F309C5B
:1059800007CCFF40FF41FF42FF4381E0006200631C
:0C5990008EF27FE001CE00E005F28EF206
:10129000CEF97EF07EF803A04EF0F4E11AAEEBF04A
:1012A000260001F0581FF4E11AAEEBF02E0001F019
:1012B000581F01F0582901F03E5C18E11AAEDAB46B
:0A12C000DCB68EF43EF83EF08EF32B
:0612CA00CEF97EF07EF873
:1012D00003A04EF0F4E11AAEEBF0220001F0581F2B
:1012E00001F05E590CE11AAED6B0D8B28EF43EF8D9
:0412F0003EF08EF34B
:0C12F400CEF97EF87EF003A04EF0F4E18D
:101300001AAEEBF0260001F0581F22E801F05872E7
:0A1310000CE18EF43EF03EF88EF37F
:10133000CEF97EF07EF803A04EF0F4E11AAEEBF0A9
:101340002200000C01F0AC1E01F03E5C0CE11AAE74
:0C135000D6B4D8B68EF43EF83EF08EF312
:04692C00CEF85EFE45
:106930001AAE6EF85EF425FA05F846D04EF044B073
:106940005EF085F001F0CA7D04E105F4A5F046F0A3
:106950001EF42EF8EAA11EFE8EF2CEF85EFE1AAEEE
:106960005EF4E5F0081000615EF046B05EF044B001
:106970005EF02C0069015EF001F00E2F08E105F4D5
:1069800000E047F004C644B046F00002019245F032
:086990001EF4EAA11EFE8EF2C6
:0433EC00CEF85EFEBB
:1033F0001AAE6EF45EFC46BCC5F406BCF02C7F2D04
:103400004D9C4C9DC5F6FF7C075D18C844BC00E090
:10341000C390489006000F20007008C848A0040020
:1034200005C848A0020002C8429002C902E001CECD
:1034300001E01EFC2EF4EAA11EFE8EF200E0C7F0B1
:1034400006C545F001F00E6705F605F00FC948A066
:1034500006000F208021E0303F3149A0060065F0D2
:103460000210FC6144BCC3907FE0E3CE44BC00E0AA
:06347000C39000E0DECE77
:02670E006EF427
:106710005EF805F808A006000020802105F600E4D8
:1067200088A006000F20002189A0060005F00AC8F5
:1067300088A0040007C888A0020004C8829002C88C
:1067400000F05A680ECE88A0040089A0060088A038
:10675000020089A00400829089A0020000E28392D6
:10676000F0E488A00600EFC933CE05F21B931A921D
:1067700088A004007D907C917D907C911D901C915F
:106780002380338189A0060088A204001B931A92FB
:1067900088A002007D907C917D907C911D901C9141
:1067A0002380338189A0040088A202001B931A92DF
:1067B00082907D907C917D907C911D901C91238096
:1067C000338189A0020082901B911A908390FFE48C
:1067D00088A0060010700051C8C135CE82921D926B
:1067E0001C9388A002007B917A907B917A901B91F8
:1067F0001A9023803381839088A202001D921C93FB
:1068000088A004007B917A907B917A901B911A90DA
:106810002380338189A0020088A204001D921C936A
:1068200088A006007B917A907B917A901B911A90B8
:106830002380338189A0040088A006001D901C914C
:1068400089A0060081E420E088A2060027F0C6C3E4
:1068500025F00F20002189A0060088A0060065F21F
:106860002380338189A0060045F01EF82EF41FFE18
:0A052600000000000000F07F00005C
:1005300000000000F07F000000000000F8FF000055
:0E05400000000000403E00000000000080416E
:0A347600CEF85EFE1AAEE0E16EF83B
:103480006EF45EFC05F8E5F00C1000615EF001F0F2
:10349000BA0902E105F4E5F0041000615EF001F004
:1034A000BA0902E105FA45F00070005102C700F0C8
:1034B0009635A5F00070005102C700F09635EBF08C
:1034C000040036907EF000E000E26EF06EF001F055
:1034D000421E10E10BA008C036907EF001F04A3C7D
:1034E0003EF0379008EC01CE00ECEBF00C0036908B
:1034F0007EF000E000E26EF06EF001F0421E10E19E
:103500000BA00AC036907EF001F04A3C3EF03790A6
:10351000C5F00640004105FCEBF00C0036907EF053
:10352000EBF0040036907EF001F0421E10E10BA09B
:1035300014C0EBF00C0036907EF0EBF004003690F7
:103540007EF001F0F66808E13EF0EBF0E0FF379026
:10355000C5F00240004105FC1CCE00E000E26EF028
:103560006EF0EBF00C0036907EF001F0421E10E1A0
:103570000BA031C0EBF0040036907EF0EBF00C00B5
:1035800036907EF001F0F66808E13EF0EBF0E0FFE7
:10359000379000F0403645F00270005104C9A5F0A4
:1035A0000270005120C821E01390AAEF45F002708C
:1035B000005103C8EBF00C0002CEEBF00400369093
:1035C000EBF0F8FF37908AF037901EFC2EF42EF8BF
:1035D000EAA11EFE8EF200E400E600E000E28AF0BE
:1035E00055943590F2CEA7F40BC8EBF0F0FF000035
:1035F00000010002000300040005F0063F0706CEAC
:1036000000E000E200E400E6EBF0F0FF3790EBF0C2
:10361000E0FF37904BD071A002C908E001CE00E076
:1036200005FC53D071A004C9C5F00640004105FC5B
:10363000A5F00170005104C8C5F00240004105FC2E
:10364000EBF0E0FF36907EF0C5F2E5F0E8E001F047
:10365000AC2108E1EBF0E8FF36908AF0379000F0FB
:02366000CA3569
:0421AC00CEF85EFE0D
:1021B0001AAEE0E16EF86EF425FA05F80CF0900422
:1021C00036907EF0EBF0040036907EF001F0421E77
:1021D00010E10BA030C00CF0A00436907EF0EBF0C4
:1021E000040036907EF001F0F01108E136907EF0A8
:1021F00001F00C1E08E100000001000200030004D1
:102200000005F006BF077EF001F00C1E08E10CF09F
:10221000980436907EF0EBF0040036907EF001F0EA
:102220000C1E08E101F0F66808E13EF03790A5F0D9
:102230000130003105FAEBF0040036907EF00CF02E
:102240003E0536907EF001F04A3C01F0421E10E15E
:102250000BA00DC136907EF0EBF0040036907EF0BE
:1022600001F0421E10E10BA002C100F04423EBF08C
:10227000040036907EF036907EF001F0F01108E117
:102280003EF0EBF0E0FF37907EF0EBF0040036908C
:102290007EF001F0F01108E13EF0EBF0F8FF37902E
:1022A00004E05EF0EBF0E0FF36907EF0680204039D
:1022B000E5F0F0E001F034100AE10CF0480436904B
:1022C0007EF0EBF0E0FF36907EF001F0F01108E1D7
:1022D0000CF0500436907EF001F00C1E08E1EBF09B
:1022E000E0FF36907EF001F0F01108E10CF05804A8
:1022F00036907EF001F00C1E08E1EBF0E0FF369026
:102300007EF001F0F01108E10CF0600436907EF0F0
:1023100001F00C1E08E1EBF0F8FF36907EF0EBF0D8
:10232000F0FF36907EF001F0F66808E101F0F01160
:1023300008E1EBF0040036907EF001F00C1E08E19D
:102340003EF0379011AA08C9EBF0040036907EF0F9
:1023500001F04A3C3EF03790A5F0072000213B9168
:102360003A900BF0080436907EF0EBF004003690C3
:102370007EF001F00C1E08E13EF0379031AA08C94A
:10238000EBF0040036907EF001F04A3C3EF003CEC4
:10239000EBF004003690EBF0E8FF37908AF03790CE
:0A23A0002EF42EF8EAA11EFE8EF2C4
:080408000000000000000000EC
:1004100066732D3852C1E03F182D4454FB21F93F3B
:1004200066732D3852C1F03F182D4454FB21F93F1B
:1004300066732D3852C10040182D4454FB210940E9
:100440003FD038C6A6F10440BD87B1D97ACDEABF06
:10045000636A8D5C3FFD20C0CBBCE2B97F8134C0B4
:10046000E21C0651A6602BC0000000000000F03F17
:1004700010C74AE1490C2E40D7A30D320ACA4D409D
:10048000A56D0B04128A5540A995C4BC7C884440D4
:1004900056CD9E5E1426D13FAA4C58E87AB6FB3F53
:0804A0005599B0D0F56CE73F5F
:0C103400CEF85EFE1AAEF0E16EF86EF42D
:1010400025FA05F82AF036901BCEEBF00400369016
:101050007EF0EBF0F0FF36907EF001F0F01108E149
:101060003EF0EBF0F8FF379088EAAAF036907EF079
:10107000EBF0F8FF36907EF001F00C1E08E13EF038
:10108000EBF0F0FF37904CB0FFE0CCB000E04CB29A
:1010900027F0DBC7EBF0F0FF36908AF037902EF4A4
:0810A0002EF8EAA11EFE8EF2FB
:0609BA005EFE1AAE5EFCB9
:1009C0005EF442BCC5F406BCF02C7F2D4D9C4C9DC2
:1009D000FF7C075D15C8489006000F20007008C80E
:1009E00048A0040005C848A0020002C8429002C9FD
:1009F00002E001CE01E01EF41EFCEAA11EFE1FFE75
:100A000000E0C7F00DC5489006000F20007008C830
:100A100048A0040005C848A0020002C8429002C9CC
:080A20007FE0E9CE00E0E7CE23
:0A56D600CEF85EFE1AAEF4E16EF8A5
:1056E0006EF45EFC44BCC5F806BCF02C7F2D4D9CCE
:1056F0004C9DC5F4FF7C075D16C8889006000F20FE
:10570000007008C888A0040005C888A0020002C86C
:10571000829002C902E001CE01E01EFC2EF42EF8B8
:10572000EAA11EFE8EF200E0C7F002C500F00259A9
:1057300046B010822F8350866F87708606F43686B7
:105740003687F4B4F6B6FF00070100E247F0658241
:10575000758318C68890070071A008C90CF02E0543
:1057600036907EF001F04A3C3EF003CE0CF02E0560
:105770003690EBF0F8FF379044BC3690CAF0379083
:1057800001E0CBCE00E000E274B476B647F065826B
:1057900075830EC488A006000F20802145F24B932C
:1057A0004A920382138389A206007FE000F01A5711
:1057B00088A006000020802105FA88A006000F209E
:1057C00000211030003189A0060045F065F2CB7051
:1057D000FF51FF52FF5304C47FE0C6B000F0BA5837
:1057E00074B0C6B011CE88A20200839288A20400D1
:1057F00089A2020088A2060089A2040000E089A014
:10580000060046B090E0C6B046B0F070FF51EBC75E
:1058100000E046B228803981C6B005F002C800F029
:10582000BA5810E046B22880398188A2020005F0FB
:1058300004C91B931A92FFE0FCC8829046B404C9C5
:105840001D901C91FFE4FCC823803381839010E0FD
:1058500046B22880398188A2040005F404C91B934C
:105860001A92FFE4FCC888A4020046B604C91D943D
:105870001C95FFE6FCC82384338589A4020088A216
:10588000060005F004C91B931A92FFE0FCC888A02B
:10589000040046B404C91D901C91FFE4FCC8238099
:1058A000338189A0040088A0060046B204C91D9077
:1058B0001C91FFE2FCC889A0060000E046B227F078
:1058C00015C688A0060008C888A0040005C888A0DE
:1058D000020002C882900AC988A00600A5F22380AF
:1058E000338189A006007FE000F01A5789AA0600DC
:1058F00000E089A0040089A00200839000E000F08D
:105900001A5785F001F00E6705F405F002C900F0A2
:08591000305700E000F01A57C7
:101D80006EF85EF405F825FA029005F425F0FE7071
:101D9000FF510CC8409004C87FE01EF42EF81FFECF
:101DA00045F081E0839040900F81F7CE00E027F06E
:101DB00003C645F0FFE08390A5F0EFCECEF85EFEBF
:101DC0001AAEE5F0081000615EF046B05EF0E5F096
:101DD000041000615EF080001D015EF001F0280A31
:081DE00008E1EAA11EFE8EF2EB
:067DCA005EFE1AAE6EF829
:107DD0006EF45EFC05F825FA05F442B044D205FCC9
:107DE000208608CE45F06F90C092419281E005F464
:107DF00081ECFFEA00E0A7F0F5C185F01EFC2EF44F
:087E00002EF8EAA11EFE1FFE90
:020406000000F4
:080A2800CEF85EFE1AAEF6E105
:100A30006EF86EF45EFC00E444B01390F0EF46B044
:100A40001390F2EF4AB01390F4EF00E01390F6EF3A
:100A500048B005F800F0020B81E8257602C800F0E6
:100A60000E0B60800F8105F200E31290807F26F06C
:100A700000E31092827F2F9000900001442001211A
:100A800005F002C800F0240C01CE81E880900F81AF
:100A900005F200E31290807F26F000E31092827F3F
:100AA0002F90009000014420012105F0EEC800E3E2
:100AB0001290807F00E31092827FFCB0FED21290F1
:100AC000F6EF81E01390F6EF7EE21290F2EF129CC7
:100AD000F0EFC3F005F67CB226F07ED22F900090A6
:100AE00000014420012105F001C9E1CE1290F6EF8A
:100AF000FFE01390F6EF65F21290F2EF129CF0EF28
:100B0000C3F080900086008002C900F0580A8090EF
:100B100007C845F01EFC2EF42EF8EAA11EFE8EF248
:100B20002A7002C881E801CE00E01190FCEF00E0DD
:100B30001390FAEF10CE1290FAEFE77003510AC447
:100B40000AE201F0582B05F280900F8126F0D0E0E8
:100B50001390FAEF81E880900F8105F200E3129084
:100B6000807F26F000E31092827F2F90009051A0AA
:100B7000E2C880922F83A800040101F0AE3E05F088
:100B800003C9809081E801CE00E01190FDEF8092D2
:100B90002F83AC00040101F0AE3E05F02AC800E34B
:100BA0001290807F00E31092827FF8B0FAD2129008
:100BB000F6EF81E01390F6EF7EE21290F2EF129CD6
:100BC000F0EFC3F005F678B226F07AD22F900090BD
:100BD00000014420012105F001C9E1CE1290F6EF99
:100BE000FFE01390F6EF65F21290F2EF129CF0EF37
:100BF000C3F05EF8F000EF015EF001F0D26904E1AD
:100C000005F805F008C800E047F002C445F001CE41
:060C10007FE000F0140B70
:0A0C16001090FEEF01C981E481E8AF
:100C200000F0540AFFE81290F6EF81E01390F6EF1F
:100C30007EE21290F2EF129CF0EFC3F005F605FA97
:100C40008090F7D081E80F8167F002C800F0020BB6
:100C50001290F6EFFFE01390F6EFA5F21290F2EF8C
:0C0C6000129CF0EFC3F045F000F0140B04
:0804A800686C4C00636E5B0000
:0E69D200CEF85EFE1AAEFEE16EF86EF45EFCCC
:1069E00044BC00008ED046BCC090257002C800F0A8
:1069F000EC6B457002C800F0E86A477002C800F00E
:106A0000E86A587002C800F0CE6A5B7002C800F0F5
:106A10001E6C63702DC9647002C800F0CE6A657088
:106A200002C800F0E86A667002C800F0E86A6770A1
:106A300002C800F0E86A697002C800F0CE6A6E70A1
:106A400002C800F0FC6A6F7002C800F0CE6A707075
:106A50003EC9737002C800F0566B757038C9787003
:106A600036C900E01EFC2EF42EF8EAA11EFE8EF2BE
:106A700044BC0AB002C801E08AB044BC0CD006C8CD
:106A800004B082E084B008A0FEFF05F619CE44BC35
:106A900006B081E086B07EE202B0C29CC3F005F48D
:106AA0000070005102C400E0DDCE44BC0CD004C82C
:106AB000619481E601008ED044BC0AB0FFE08AB048
:106AC00044BC00E00AB227F0E2C546B0CBCE01E0FC
:106AD0005EF0C09244B001F0467402E105F003C9D3
:106AE00000E000F0646AF1CE01E244B001F02C3F16
:106AF00005F003C900E000F0646AE7CE44BC0CD0A6
:106B000028C80DD0687008C804B082E084B008A01E
:106B1000FEFF06B203921DCEC5F084E005F40DD051
:106B20006C7009C9429082E0439004B008A0FEFF57
:106B300006B203920ECE429082E04390C5F004B2BA
:106B400028ACFEFF08A0060010822F833082C3907D
:106B500082B200F0CA6A44BC0AB00070005102C69A
:106B6000FF007F0188B00CD006C804B082E084B07A
:106B700008A0FEFF05F644BC08B0FFE088B000E0C6
:106B800008B227F009C606B081E086B07EE202B006
:106B9000C29CC3F005F801CE7EE885F400E087F0E2
:106BA00010C600E31290807F86F000E31092827F8F
:106BB0002F90009000014420012105F002C800F050
:106BC0000E6D45F0FE70FF5108C944BC06B0FFE0F1
:106BD00086B045F202B0C29CC3F044BC0CD004C8DD
:106BE0000000619001008ED000F0CA6A44BC06B07B
:106BF00081E086B07EE202B0C29CC3F005F425704D
:106C0000005102C800F0CA6A44BC06B0FFE086B07A
:106C100045F202B0C29CC3F000E000F0646AC5F027
:106C200081E0C6B000905E7008C846BCC090008489
:106C3000C5F081E0C6B0408001CE00E0008A46BCCD
:106C4000C0905D7003C8C5F081E001CEC5F05D0263
:106C5000000301F0AE3E05F846B228803981FEB04F
:106C600085F003C800E000F0646A44BC0AB000701C
:106C7000005102C6FF007F0188B00CD006C804B0E6
:106C800082E084B008A0FEFF05F644BC08B0FFE037
:106C900088B000E008B227F009C606B081E086B0EF
:106CA0007EE202B0C29CC3F005FC01CE7EECC5F4CE
:106CB00000E0C7F016C6A08009C87EB05EF045F2BD
:106CC00046B001F0623602E105F00BC9A08026C98A
:106CD0007EB05EF045F246B001F0623602E105F0AA
:106CE0001DC945F0FE70FF5108C944BC06B0FFE065
:106CF00086B045F202B0C29CC3F044BC0CD004C8BC
:106D00000000619001008ED0C6B800F0CA6A44BC91
:106D10000CD002C8619481E600F0766B44BC0CD0C4
:0A6D200002C8619481E600F08A6C5D
:027E7E00008082
:107E80008080808080808080404040404080808032
:107E9000808080808080808080808080808080045E
:107EA0000808080808080808080808080808082139
:107EB0002121212121212121210808080808080861
:107EC000030303030303020202020202020202028C
:107ED000020202020202020202020808080808085E
:107EE000111111111111101010101010101010108C
:107EF0001010101010101010101008080808800042
:107F00000000000000000000000000000000000071
:107F10000000000000000000000000000000000061
:107F20000000000000000000000000000000000051
:107F30000000000000000000000000000000000041
:107F40000000000000000000000000000000000031
:107F50000000000000000000000000000000000021
:107F60000000000000000000000000000000000011
:0F7F700000000000000000000000000000000002
:037F80007F7E0001
:0E3662005EFE1AAE6EF45EFC5EFA25FAA086DD
:1036700005F40ECE4090678007C845F01EFA1EFC88
:103680002EF4EAA11EFE1FFE81E442B0FFE0C2B0AC
:0C36900000E042BCC7F0EEC100E0F0CE4C
:023EAE006EF8AC
:103EB0005EF425FA05F8A08407CE008004C800E06F
:103EC0001EF42EF81FFE81E880904780F6C885F02A
:023ED000F7CE2B
:043F2C00CEF85EFE6F
:103F30001AAEF0E16EF86EF45EFC05F825FA0000AA
:103F4000F1D088A00A000070005106C7500000019F
:103F500088A20A0027F004C45000000105F401CE35
:103F600025F489A408001A00EB0105FC45F0FFE0E8
:103F700089A0080000E088A2080027F00CC688A0ED
:103F8000060081E089A006007EE288A002008294FB
:103F900043F005F401CE7EE445F02B70005103C9D7
:103FA0002D7000511AC811941AEB81EC88A00800FA
:103FB000FFE089A0080000E088A2080027F00CC6F6
:103FC00088A0060081E089A006007EE288A00200A9
:103FD000829443F005F401CE7EE445F0FE70FF517B
:103FE00027C900E31290807F46F000E31092827FA1
:103FF0002F90009051A01CC9C19481EC88A00800AA
:10400000FFE089A0080000E088A2080027F00CC6A5
:1040100088A0060081E089A006007EE288A0020058
:10402000829443F005F401CE7EE40100F1D0D5CEB8
:1040300045F02E70005119C8C19481EC88A0080089
:10404000FFE089A0080000E088A2080027F00CC665
:1040500088A0060081E089A006007EE288A0020018
:10406000829443F005F401CE7EE445F0FE70FF51EA
:1040700027C900E31290807F46F000E31092827F10
:104080002F90009051A01CC9C19481EC88A0080019
:10409000FFE089A0080000E088A2080027F00CC615
:1040A00088A0060081E089A006007EE288A00200C8
:1040B000829443F005F401CE7EE40100F1D0D5CE28
:1040C00045F06570005105C94570005102C900F006
:1040D000A64171D002C800F0A641C19481EC88A02D
:1040E0000800FFE089A0080000E088A2080027F08F
:1040F0000CC688A0060081E089A006007EE288A0A8
:104100000200829443F005F401CE7EE445F02B706A
:10411000005103C92D70005119C8C19481EC88A0C9
:104120000800FFE089A0080000E088A2080027F04E
:104130000CC688A0060081E089A006007EE288A067
:104140000200829443F005F401CE7EE40000F1D039
:1041500045F0FE70FF5127C900E31290807F46F0C2
:1041600000E31092827F2F90009051A01CC9C1944F
:1041700081EC88A00800FFE089A0080000E088A288
:10418000080027F00CC688A0060081E089A0060080
:104190007EE288A00200829443F005F401CE7EE422
:1041A0000100F1D0D5CE45F0FE70FF510AC988A0BC
:1041B0000600FFE089A0060045F288A00200829474
:1041C00043F071D007C87FE01EFC2EF42EF8EAA160
:1041D0001EFE8EF20000C19088900C0002C900F013
:1041E000084300E05EF01A02EB03E5F0F8E001F0AE
:1041F000724802E1010089900E0085F08DE005FC17
:10420000A5F00170005137C8C0906C700DC888A02F
:10421000040082E089A0040008ACFEFFEBF0F8FF88
:104220003690CAF0379025CE85F084E005FC889062
:104230000D004C7012C9C29082E0C390EBF0F8FF01
:1042400036907EF001F0985604E12EF088A4040028
:1042500048ACFEFFC39082B20CCEC29082E0C39005
:1042600088A0040008ACFEFFEBF0F8FF3690CAF01F
:10427000379000F00843C0906C7015C888A0040007
:1042800084E089A0040008ACFCFF0890FEFFEBF07E
:10429000F8FFF7D03690F2B0F4B2CAF077DC72B023
:1042A000CF90379031CE85F084E005FC88900D00EA
:1042B0004C7016C9C29084E0C390EBF0F8FF3690C2
