:020006000FFEEB
:02038E0000016C
:0803900006F008A0CAE702F024
:10056000CEFF6EF0109000F04EF0000001F08E0310
:0A0570000EF0119000F02EF08EFF47
:10021000CEFF6EF0109000F04EF0010001F08E0362
:0A0220000EF0119000F02EF08EFF9A
:08018800CEF96EF0109000F0BA
:100190004EF0020001F08E030EF0119000F02EF0F0
:0401A0008EF90FFEC7
:0C01A400CEF96EF0109000F04EF0030059
:1001B00001F08E030EF0119000F02EF08EF90FFE7C
:0801D800CEF96EF0109000F06A
:1001E0004EF0040001F08E030EF0119000F02EF09E
:0401F0008EF90FFE77
:0C01F400CEF96EF0109000F04EF0050007
:1002000001F08E030EF0119000F02EF08EF90FFE2B
:06057A00CEF96EF01090B6
:1005800000F04EF0060001F08E030EF0119000F026
:060590002EF08EF90FFEB3
:08052800CEF96EF0109000F016
:100530004EF0070001F08E030EF0119000F02EF047
:040540008EF90FFE23
:0A00A600CEF96EF0109000F04EF05D
:1000B000080001F08E030EF0119000F02EF08EF982
:0200C0000FFE31
:0E00C200CEF96EF0109000F04EF0090001F043
:0E00D0008E030EF0119000F02EF08EF90FFE50
:0200DE00CEF959
:1000E0006EF0109000F04EF00A0001F08E030EF05A
:0A00F000119000F02EF08EF90FFEC3
:04016C00CEF96EF06A
:10017000109000F04EF00B0001F08E030EF0119085
:0801800000F02EF08EF90FFED5
:0E037200CEF96EF0109000F04EF00C0001F08D
:0E0380008E030EF0119000F02EF08EF90FFE9D
:0203FE00CEF936
:100400006EF0109000F04EF00D0001F08E030EF033
:0A041000119000F02EF08EF90FFE9F
:0C013400CEF96EF0109000F04EF00E00BE
:1001400001F08E030EF0119000F02EF08EF90FFEEC
:10015000CEF96EF0109000F04EF00F0001F08E031B
:0C0160000EF0119000F02EF08EF90FFE52
:0E04E200CEF96EF0109000F04EF0100001F018
:0E04F0008E030EF0119000F02EF08EF90FFE2C
:0A024600CEF96EF0109000F04EF0BB
:10025000110001F08E030EF0119000F02EF08EF9D7
:020260000FFE8F
:0C054400CEF96EF0109000F04EF01200A6
:1005500001F08E030EF0119000F02EF08EF90FFED8
:0204FE00CEF935
:100500006EF0109000F04EF0130001F08E030EF02C
:0A051000119000F02EF08EF90FFE9E
:06008A00CEF96EF01090AB
:1000900000F04EF0140001F08E030EF0119000F00D
:0600A0002EF08EF90FFEA8
:06022A00CEF96EF0109009
:1002300000F04EF0150001F08E030EF0119000F06A
:060240002EF08EF90FFE06
:08039800CEF96EF0109000F0A8
:1003A0004EF0160001F08E030EF0119000F02EF0CA
:0403B0008EF90FFEB5
:06041A00CEF96EF0109017
:1004200000F04EF0170001F08E030EF0119000F076
:060430002EF08EF90FFE14
:0A04C600CEF96EF0109000F04EF039
:1004D000180001F08E030EF0119000F02EF08EF94E
:0204E0000FFE0D
:0400FC00CEF96EF0DB
:10010000109000F04EF0190001F08E030EF01190E7
:0801100000F02EF08EF90FFE45
:08011800CEF96EF0109000F02A
:100120004EF01A0001F08E030EF0119000F02EF048
:040130008EF90FFE37
:0800080060051002060006006D
:100010008801A401D801F4010600060006000600CC
:100020007A05060028050600060006000600A60060
:10003000C200DE00FC0018010600060006000600F3
:100040006C010600720306000600FE0306000600AF
:1000500006000600060006003401500106000600F6
:10006000E204060006000600460244050600FE04FF
:100070008A00060006002A02060098031A04C60435
:0C03B40001F0360401F0260301F06202A3
:1003C00000E492A050F282A058F2A2A058F2C2A07B
:1003D00058F201F0C00181E414740055F2C500E444
:1003E00090A050F280A058F2A0A058F2C0A058F2FD
:0E03F00001F0C00181E414740055F2C5E1CEA5
:1001C000F7EB5A0011900EF081A00EF0FAC9A500CD
:0801D00011900EF008ED1FFE76
:0A043600CEF8FF0011902AF000003C
:1004400011902CF011902EF011902FF001F0260356
:1004500001F0620201F01A0500001190E0F811901D
:10046000E1F892A0E1F880A0E1F8D2A0E2F8F2A0D1
:10047000E2F882A0E3F8119017F0119016F01190B5
:1004800015F0119014F0119013F0119012F01190DA
:1004900011F0119010F011901FF011901EF01190BA
:1004A0001DF011901CF011901BF011901AF011909A
:1004B00019F0119018F0B2A017F0030011900FF08E
:0604C00001F0C0018EF204
:06051A000000119002F048
:0805200090A003F008ED1FFE9E
:0A03260082A051F292A051F2A2A0B1
:1003300051F280A053F280A052F290A053F290A00C
:1003400052F2A0A053F2A0A052F282A055F282A0D5
:1003500054F292A055F292A054F2A2A055F2A2A09B
:1003600054F282A050F292A050F2A2A050F200F0FB
:02037000C001CA
:0E02620082A059F292A059F2A2A059F2B2A0C5
:1002700059F2C2A059F2D2A059F2E2A059F2F2A06A
:1002800059F280A05BF280A05AF290A05BF290A09D
:100290005AF2A0A05BF2A0A05AF2B0A05BF2B0A00C
:1002A0005AF2C0A05BF2C0A05AF2D0A05BF2D0A07C
:1002B0005AF2E0A05BF2E0A05AF2F0A05BF2F0A0EC
:1002C0005AF282A05DF282A05CF292A05DF292A04E
:1002D0005CF2A2A05DF2A2A05CF2B2A05DF2B2A0BC
:1002E0005CF2C2A05DF2C2A05CF2D2A05DF2D2A02C
:1002F0005CF2E2A05DF2E2A05CF2F2A05DF2F2A09C
:100300005CF282A058F292A058F2A2A058F2B2A0D9
:1003100058F2C2A058F2D2A058F2E2A058F2F2A0CD
:0603200058F200F0C001DC
:02000200960561
:02000000CAE74D
:0200040098055D
:0A05960001CEFFCE00E000E200E419
:1005A00000E60008E0098AF0579088E8E879FCC185
:1005B0000078FAC15A0CA50D119C0EF081A00EF026
:1005C000FBC9119D0EF0000A0CF08000AF90529014
:1005D000FF7002C8FF7120C9AF905292AF90529441
:1005E000AF905096AF90509780E4F0C901A20BC82D
:1005F00001A409C86F90029882E07F90239882E25C
:10060000FEE4F8C8E3CE6F90009881E07F902198D7
:1006100081E2FFE4F8C8DACE01F0FA0000001190A0
:0606200000F000F0B4033D
:0200FA001FFEE7
:08008000000000000000000078
:02008800FFFF78
:105FE000FFFFFFFFFFFFFFFFFFFFFFFFFFFFFFFFC1
:105FF000FFFFFFFFFFFFFFFFFFFFFFFFFFFFFFFFB1
:00000001FF
